:020000040000FA
:10000000980420208D010000910100009301000060
:1000100000000000000000000000000000000000E0
:10002000000000000000000000000000950100003A
:100030000000000000000000970100009909000086
:100040009B010000BD0700009B0100009B01000018
:100050009B0100009B0100009B0100009B01000030
:10006000000000009B0100009B0100000000000058
:10007000000000009B0100009B0100009B010000AC
:100080009B0100009B0100009B0100009B01000000
:100090009B0100009B010000000000000000000028
:1000A0009B0100009B010000000000000000000018
:1000B0009B010000000000009B0100009B0100006C
:1000C00000F002F800F052F812A030C808382418E6
:1000D0002D18AC4201D100F049F80FCCA246AB4636
:1000E0000CA730CF2D1B083F3F197C427F1E544484
:1000F0002D090426F441641EAC4201D300F036F809
:100100000126334200D0FB1A3343984754465D46DC
:10011000DFE70000A42B0000C42B0000000000005B
:10012000103A02D378C878C1FAD8520701D330C840
:1001300030C101D504680C60704700000000000069
:100140007047000000000000002300240025002666
:10015000103A01D378C1FBD8520700D330C100D583
:100160000B6070471FB51FBD10B510BD00F037FA0A
:100170001146FFF7F7FF01F033FC00F04FFA03B42C
:10018000FFF7F2FF03BC00F055FA000006480047F5
:10019000FEE7FEE7FEE7FEE7FEE7FEE70348044969
:1001A000024A044B70470000C10000009803202061
:1001B00098042020980320204343514330B55C1815
:1001C000010C130C0D4692B25D4380B251432C19C1
:1001D000054655430A0C09044D1962415843010C68
:1001E00000044019514130BD70B5054610460C461B
:1001F00018430ED000210846891A984127DA0021B9
:100200000846491BA04118DA2846214600F03FF86D
:1002100070BD002C03DA01230022DB0707E0002178
:100220000846491BA04102DA0022D2435308104677
:100230001946C046C0462A4627E000216842A1412F
:1002400000F025F8002440428C4121461AE00021AC
:100250000846491BA0410CDA214600205242984131
:100260000346284600F013F8002440428C41214602
:1002700070BD002052429841002103466842A141CE
:1002800000F005F8002452429C41234670BDFEB5A3
:10029000044610460D46184373D0A6468C460020EF
:1002A000A41A01469D4167D36646002701243D46B6
:1002B000B61A9D4102D313463A4621246546764636
:1002C0002F04360C3E432D0CB61A9D4104D3150C59
:1002D0001B042B4312041034654676462F06360A5B
:1002E0003E432D0AB61A9D4104D3150E1B022B4323
:1002F00012020834654676462F0736093E432D091B
:10030000B61A9D4104D3150F1B012B431201241D66
:1003100065467646AF07B6083E43AD08B61A9D411E
:1003200004D3950F9B002B439200A41C6546764690
:10033000EF0776083E436D08B61A9D411AD392180E
:100340005B41641C16E00018764665464941B71AC1
:100350009D410191009009D36046B11A98418E46A3
:100360008446009801990025401C6941DD07520828
:100370002A435B08641EE6D57246634603B0F0BDAF
:10038000FFE72046284307D00020C0430146C0466F
:10039000C04622462B46F1E700200146F7E701E080
:1003A00004C0091F0429FBD28B0701D50280801CE1
:1003B000C90700D00270704700290BD0C30702D0D4
:1003C0000270401C491E022904D3830702D5028013
:1003D000801C891EE3E70022EEE70022DFE7000031
:1003E000002203098B4273D3030A8B4258D3030BB9
:1003F0008B423CD3030C8B4221D312E003460B43C8
:100400007FD4002243088B4274D303098B425FD30D
:10041000030A8B4244D3030B8B4228D3030C8B4239
:100420000DD30902FF2212BA030C8B4202D312121F
:10043000090265D0030B8B4219D300E0090AC30BF4
:100440008B4201D3CB03C01A5241830B8B4201D3A1
:100450008B03C01A5241430B8B4201D34B03C01A8A
:100460005241030B8B4201D30B03C01A5241C30A02
:100470008B4201D3CB02C01A5241830A8B4201D373
:100480008B02C01A5241430A8B4201D34B02C01A5D
:100490005241030A8B4201D30B02C01A5241CDD202
:1004A000C3098B4201D3CB01C01A524183098B424D
:1004B00001D38B01C01A524143098B4201D34B0136
:1004C000C01A524103098B4201D30B01C01A524199
:1004D000C3088B4201D3CB00C01A524183088B4220
:1004E00001D38B00C01A524143088B4201D34B0009
:1004F000C01A5241411A00D201465241104670477B
:100500005DE0CA0F00D04942031000D3404253407F
:100510009C46002203098B422DD3030A8B4212D33F
:100520008901FC2212BA030A8B420CD38901921171
:100530008B4208D3890192118B4204D389013AD0AE
:10054000921100E08909C3098B4201D3CB01C01A83
:10055000524183098B4201D38B01C01A5241430996
:100560008B4201D34B01C01A524103098B4201D384
:100570000B01C01A5241C3088B4201D3CB00C01AF1
:10058000524183088B4201D38B00C01A5241D9D209
:1005900043088B4201D34B00C01A5241411A00D28A
:1005A00001465241104663465B1001D34042002B86
:1005B00000D54942704763465B1000D3404201B505
:1005C0000449002802DC491C084000E00846C046F7
:1005D000C04602BDFFFFFF7F7047704770477546FA
:1005E00000F024F8AE46050069465346C008C00036
:1005F000854618B020B5FFF7D1FD60BCB646002691
:100600000027C0C5C0C5C0C5C0C5C0C5C0C5C0C520
:10061000C0C5403D490849008D46704710B50446A5
:10062000C046C0462046FFF7AAFD10BD00487047EF
:100630000800202001491820ABBEFEE7260002007A
:100640007047811E091F00BFFCD27047F0B53C4ABD
:1006500082183C4BC31808794E793B4D3B4C002E19
:1006600023D0202804D00526F601002803D003E07B
:10067000374E002800D18826576F2F4037435767E1
:10068000976F2F4037439767566B26405663966B9C
:10069000264096630026566596658F26F6435F686A
:1006A00037405F609F6837409F608E7909682028D7
:1006B0000BD0002819D1491E5160D76E2F408821D8
:1006C0000F43D7661746703719E0491E5160D16E47
:1006D00029401F4F3943D166116F294039431167B3
:1006E000012149071B4D174609E049085160D76EA3
:1006F0002F400521C9010F43D766174670373C6864
:100700002C400C433C60D16A104C2140D162116BEB
:10071000214011630021D16411658F21C943D46F39
:100720000C40D4671C680C401C600643BD20304060
:100730001168094B0B40C018801C1060F0BDC0460A
:10074000041800008418000024493E008888FDFF3A
:1007500001040000FFFFFFCF4000FFCF10B50723CB
:100760009B04194092008018024A84589C436118E7
:10077000815010BD3018000010B5029CA400001973
:1007800011431943014A815010BDC0465018000062
:1007900092008018014A81507047C046101800002E
:1007A00010B50122120383180C789C604B7883509B
:1007B0008978014A815010BD0C110000F0B581B05C
:1007C000204801461039096801256C051E4B1A4660
:1007D000103A176827400022D643090203D4002F9D
:1007E0001AD101B0F0BDE90502680A43026017485A
:1007F00000F0F4F800960646E906144800F0EEF81A
:100800007040009E304600D1284611490A68801881
:1008100008600D4B002FE4D01868204318600D4885
:10082000214600F0DBF804460125A905074800F041
:10083000D5F8604000D13546074801686918016065
:1008400001B0F0BD48300A4048100A4000200A407C
:100850008C01202000000A402C02202010B5284ADC
:100860008120D06227490860274BCB641060274C59
:100870009466D466546594659463D464D465D463F3
:1008800048608861906293645366536353649060D8
:10089000506008654865C8658865486608661066E2
:1008A00008674867C863886361481949016106227F
:1008B0000260891D016403208102164A13680B43FC
:1008C000136001214A05144B1C6A14431C621C6806
:1008D00014431C60404A114B13614B041360104BCE
:1008E000136480030F4A136803431360C8050E495D
:1008F0000A6A02430A620A6802430A6010BDC046DF
:10090000848042400480424081000E0081000C003F
:10091000013C0000A0130A4028100A40CC33050413
:10092000CC330704A0330A4028300A40094800218C
:1009300001600948014608390A6803239A430A609E
:100940000168012291430160110202688A4302603A
:100950007047C04608030B4008010B4080B500F00B
:1009600005F8FFF77BFFFFF7E1FF80BD80B5064884
:1009700006494160064A5160064901601160102035
:10098000FFF75FFE80BDC04600080A40030000B1CB
:1009900000280A400100002608480168491C01603F
:1009A00007480178072903D80178491C017070476E
:1009B00004480168491C01607047C046300320208C
:1009C00014022020100220200349002800D11031F9
:1009D000012080040860704790320A402722D2012B
:1009E00080580840411E884170470000002A03D10A
:1009F0009522520181507047014A81507047C0468C
:100A0000901200000A49002800D11031012008602E
:100A10007047C04670B5064C01252560054E7D2007
:100A20000002FFF70EFE761CF9D3256170BDC046AB
:100A300090120A4018FCFFFF012040020249096899
:100A4000014048424841704780130A400020014954
:100A5000085E7047A0002020054800680F498842C2
:100A600000DC08460E49884200DB08467047C04655
:100A7000A800202000200149085E7047A400202023
:100A8000054800680549884200DC08460449884258
:100A900000DB08467047C046AC0020200080FFFF06
:100AA000FF7F000010B584B0044601A800F018F8DC
:100AB000002803D10020C04304B010BD0298201AC2
:100AC00004B010BD014800787047C0469C0020204B
:100AD0001248C0697047C046104880697047C046D8
:100AE00010B5002817D00D4A137AD907FCD15189C7
:100AF0000180117B8170517BC17011694160117D52
:100B00000172147AA342EFD101231C40ECD1481E9C
:100B10008141084610BD002010BDC046740320204E
:100B200010B50024204600F06DFF01F0DBF903480A
:100B3000848003210170048510BDC0463403202049
:100B4000F0B58BB001460020002964D07F229302CB
:100B50001F680F605D684D609A688A60DC68009469
:100B6000CC601C6901940C615C6902944C619E69C3
:100B70008E61DC690394CC611C6A04940C625C6A2B
:100B800005944C629C6A06948C62DC6A0794CC6281
:100B90001C6B08940C635C6B09944C639C6B8C63BA
:100BA000DB6B0A93CB631D49794001236B400B43F8
:100BB00007214C401C43631E9C41734273412343F5
:100BC00029D11748424017484243009B5A404243AC
:100BD000019B5A404243029B5A4042437240424367
:100BE000039B5A404243049B5A404243059B5A4050
:100BF0004243069B5A404243079B5A404243089B4C
:100C00005A404243099B5A4042434A4042430A9851
:100C1000811A484248410BB0F0BDC046314C4143B7
:100C2000A766714B93010001F0B581B02D48FFF725
:100C300087FF2D4E30702D490870D64F3C46143436
:100C400000252046294600F0A3FE01F097F901F0A7
:100C500089FB00F01FFF01F019FC00F097FA00F08B
:100C600049FB284600F09CFC21480221017001202C
:100C70003874204805803078002801D019488068F1
:100C800000F0D6F901F04CFA2846FFF79DFEFFF779
:100C9000C1FE788CD5490880B88CD5490880A07CE5
:100CA000DE490870E07CDE490870F87D1249087062
:100CB000387E12490870B86AF96A114A1060114802
:100CC0000160388ECB49088001F044FBD54908709B
:100CD00001F05EFBD449087001F040FBD349087075
:100CE00001B0F0BDEC0220202C0320202C0120209C
:100CF0006C0120206A0120208A0120208901202007
:100D0000500120204C012020F0B581B0FFF794FE67
:100D1000064601F021FE074601F0DCFD054600F025
:100D20007DFA044697480670974807709748057003
:100D3000284601F0B7FD96490870002E0BD0954F5C
:100D400038881D280CD8411C39801D38414241414A
:100D5000002908D124E08F480021017101801FE0A3
:100D6000012100291CD03879002819D101203871BF
:100D7000B879002805D000203881B87100F018FA41
:100D80000EE001F0E9FD01F0A5FD064601F0C8F90D
:100D90000020387400F042FA314600F0FFF9B871D3
:100DA0002046294600F00CFA00F0DEF90646801EC7
:100DB00045424541FE203040022802D175480021BD
:100DC0008171744F022E08D1387C002805D100F0C3
:100DD000B7F900F0E5FB01203874B8796E49087066
:100DE000FFF7F2FD032E28D100F08CF9002505282D
:100DF00009D8012678440079400087441E0409027E
:100E00000608022604E0052602E0032600E0042688
:100E100062492046FFF7E4FA88B28008604A4243FC
:100E2000500D864209D94B2292004243881A80B263
:100E3000962801D3002500E001252846FFF7E2FDB2
:100E400000F09CF95749087000F08EF95649087077
:100E500000F058F955490870204600F049F9544906
:100E6000086000F06DF95349086000F037F9524905
:100E7000086000F06FF9514908805148002505606D
:100E8000FFF7F8FD4F490880FFF7E6FD4E4908805F
:100E9000FFF7F6FD4D490880FFF7D8FD4C49088063
:100EA00001F0EEFA4B490880FFF70CFE4A49087042
:100EB0002046FFF7F7FD49490860FFF70DFE484956
:100EC0000860FFF705FE4749086000F083F94649CE
:100ED000086000F02BF9454908804548058000F07E
:100EE0001BF94449088000F0B5FD4349086000F053
:100EF000C1FD4249086000F0B9FD414C208000F07E
:100F0000C5FD404E3080605F00F0C6F83E49086085
:100F1000705F00F0C1F83D49086000F0A3FD3C4D52
:100F2000288000F0AFFD3B4C208000F08FFD3A4957
:100F30000870288801B2C9134840401A81B2C820FD
:100F4000C82900D30146354A117021880AB2D2134C
:100F50005140891A89B2C82900D30146304801702E
:100F600001F01AFA01F02EFA01F0F4F92D49087097
:100F700001F00EFA2C49087001F0F0F92B490870C5
:100F800001B0F0BDE8022020720320206D03202074
:100F90006C0320206800202094012020B80B000062
:100FA0003B6D00007901202078012020680120207D
:100FB0006401202070012020600120207601202083
:100FC000540120205C0120205A0120205E012020B5
:100FD0005801202074012020880120207C0120203D
:100FE0008401202080012020340220207003202052
:100FF0006E03202048012020300120203C012020C9
:1010000034012020400120203801202044012020EC
:1010100092012020320220200C022020900120206A
:1010200030022020290220202A0220202B0220200A
:10103000B0B50446074D28463C304021FFF7CDF9B6
:10104000601C68642846103000F0B0FC0020686026
:101050002880B0BDB0002020F0B581B00546C11792
:101060001C4A00242346FFF7A7F81B4A1268D30F37
:10107000D318DF175E107342BC41002D00D43C46EC
:10108000002D00D4334618184C41D3172146FFF7E2
:10109000ABF801B0F0BDC046F0B581B00546C11750
:1010A0000C4A00242346FFF787F80B4A13680A22EC
:1010B0005A43D31757107E429C41002D00D41C4642
:1010C000002D00D43E4630184C412146FFF78CF8E5
:1010D00001B0F0BD40420F000000202080B53C4828
:1010E0000068002802D0406A804780BD002080BD93
:1010F00080B537490968002902D0096A884780BD50
:10110000002080BD80B532480068002802D0806988
:10111000804780BD062080BD80B52D48006800282E
:1011200002D0006B804780BD002080BD80B528487C
:101130000068002802D0C06A804780BD002080BDC2
:1011400080B523480068002802D0C069804780BD70
:10115000002080BD80B51E480068002802D0806A4B
:10116000804780BD002080BD80B5194800680028F8
:1011700002D04069804780BD032080BD14480068CC
:10118000002801D0007870470020704780B501F03A
:10119000C3F90F4908604068804780BD80B50C4A9C
:1011A0001268002A02D09268904780BD002080BD5E
:1011B00080B507480068002801D00069804780BDDD
:1011C00080B5034A1268002A01D0D268904780BDDA
:1011D000380220200D4800687047C04610B51949F4
:1011E000002008700F490860084908600849094A4A
:1011F0004A60FF221206084B1C68944303229207A0
:10120000A2181A6088600720086010BD1002202014
:1012100010E000E0FF7C000020ED00E001480068E5
:101220007047C04630032020EFF3108072B60549A6
:101230000878002802D00A78521E0A70411E8841A0
:1012400062B6704714022020EFF3108172B618497D
:101250000968184A126806C062B67047EFF310803A
:1012600072B61348002101601248016062B6012085
:10127000C105074A13680B431360400505490A6816
:1012800002430A6004480221016001607047C046C1
:1012900048300A4048100A4000E100E0EFF31080B7
:1012A00072B60348002101600248016062B67047CF
:1012B0008C0120202C022020B0B5044600252846B1
:1012C00000F0A0FB00F02CFF0348447005858580EA
:1012D00005210170B0BDC04634032020044881219F
:1012E000016001200002AC49086008647047C046F4
:1012F0004C804240F0B58DB0A74802210161042125
:10130000016001204604A54806607D200402C72034
:10131000C5432F462046FFF794F97F1CFAD39F4F11
:101320003E61012000F092FA3E602F46323720469F
:10133000FFF787F97F1CFAD3984F3E61112000F028
:1013400085FA3E6050352046FFF77BF96D1CFAD3D5
:10135000924F3E61362000F079FA3E60A02000F006
:1013600075FA3E613A2000F071FA3E60052009905E
:1013700000F06CFA3E61B22000F068FA3E600C2585
:10138000284600F063FA284600F060FA00200A9030
:1013900000F05CFA33250C95284600F057FA2846F1
:1013A00000F054FA3E61B72000F050FA3E6035205C
:1013B00000F04CFA3E61BB2000F048FA3E6032205B
:1013C00000F044FA3E61C22000F040FA3E60012085
:1013D00000F03CFA3E61C32000F038FA3E60152070
:1013E0000B9000F033FA3E61C42000F02FFA3E600B
:1013F000202000F02BFA3E61C62000F027FA3E6064
:101400000F2000F023FA3E61D0252846089500F011
:101410001DFA3E60A42000F019FAA12000F016FA8F
:101420003E61E02000F012FA3E60284600F00EFA1D
:101430000820079000F00AFA0E20069000F006FA45
:101440000927384600F002FA384600F0FFF90998FB
:1014500000F0FCF931252846029500F0F7F90C98C8
:1014600000F0F4F94820099000F0F0F917200590F9
:1014700000F0ECF91420049000F0E8F90B9800F06B
:10148000E5F9284600F0E2F93420039000F0DEF997
:10149000ED4D2E61E12000F0D9F92E60089800F0A2
:1014A000D5F9079800F0D2F9069800F0CFF9384640
:1014B00000F0CCF9384600F0C9F90B9F384600F02F
:1014C000C5F9029D284600F0C1F90C9800F0BEF95C
:1014D000099800F0BBF9059800F0B8F9049800F0FD
:1014E000B5F9384600F0B2F9284600F0AFF9039894
:1014F00000F0ACF9D44D2E61212000F0A7F92E6048
:101500002E61292000F0A2F92E602046FFF799F8FD
:101510002046FFF796F82046FFF793F82046FFF79E
:1015200090F82046FFF78DF82046FFF78AF820460E
:10153000FFF787F82046FFF784F82046FFF781F889
:101540002046FFF77EF82046FFF77BF82046FFF79E
:1015500078F82046FFF775F82046FFF772F8204626
:10156000FFF76FF82046FFF76CF82046FFF769F8A1
:101570002046FFF766F82046FFF763F82046FFF79E
:1015800060F80A980090FF221832EF23014600F01D
:1015900001F90DB0F0BDC04690120A4090320A40E9
:1015A000F0B58BB07049884200D3084608906F4967
:1015B00001F064FA09AE30707D20C5000898294614
:1015C00001F05CFACD2739464143C90A0A24614338
:1015D000411A717045430898401B81B28A08644BD8
:1015E00053435A0CB270634A4A43D10C22464A43D1
:1015F000801A3071C8B202977843C00A01946043E0
:10160000081AF0700024009408204821ED22A3233A
:1016100000F0C0F808995848814203D3574E00297A
:101620000BD103E03F204601002906D1544E04E0CF
:10163000039C641C052C00D18CE009A8005D029974
:101640004143C90A019A5143401AC0B24DA10F5CEF
:10165000039460004E490C5A2046213006902046E3
:101660001C300590601D049020461B300890A01D82
:101670000790012004E000F08DF86800212DD7D2FA
:1016800005463842F9D0681E3F28F6D878440079DC
:10169000400087442B342A3D2A2A2A462A2A2A2A0D
:1016A0002A2A2A4F2A2A2A2A2A2A2A2A2A2A2A2A75
:1016B0002A2A2A572A2A2A2A2A2A2A2A2A2A2A2A5D
:1016C0002A2A2A2A2A2A2A2A2A2A2A2A2A2A2A2A7A
:1016D0002A2A2A1FB0B20090079880B208998AB2CD
:1016E00075217A2300F056F8A2E7C6E7B0B2009061
:1016F000079880B208998AB254215923BBE7B0B247
:101700000090059880B206998AB25A217723B2E7F1
:10171000B0B20090059880B206998AB278219523DC
:10172000A9E7B0B20090079880B208998AB29621D2
:101730009B23A0E7B0B20090049882B27821952351
:10174000204698E7B0B20090049882B25A217723DD
:10175000204690E7B0B20090632092216A2299233C
:1017600000F018F80BB0F0BD9F86010010270000B4
:101770007B140000CDCC0000214E000000F8FFFFDC
:101780001084FFFF3F065B4F666D7D077F6F000093
:10179000A82C0000F0B583B0904252D816460446FB
:1017A000D00822284DD80D4699424AD80120470436
:1017B00025490F6101972A20029300F047F822483B
:1017C000076027461437B8B2000A00F03FF8F8B2B5
:1017D00000F03CF837461437B8B2000A00F036F88B
:1017E000F8B200F033F8019F174807612B2000F092
:1017F0002DF815480760280A00F028F8E8B200F034
:1018000025F80095029D280A00F020F8E8B200F0C3
:101810001DF80D4807612C2000F018F80A480760F1
:10182000301B401C0099691A4D1C454309D0089E85
:10183000340A204600F00AF8F0B200F007F86D1EF6
:10184000F7D103B0F0BDC04690320A40F0B581B088
:1018500004464E4E022737610820FEF7F2FE60B2C2
:10186000002802D40420306101E004203060082503
:101870002846FEF7E6FE37602846FEF7E2FE3761AF
:101880002846FEF7DEFE600602D40420306101E047
:101890000420306008252846FEF7D3FE376028462E
:1018A000FEF7CFFE37612846FEF7CBFEA00602D436
:1018B0000420306101E00420306008252846FEF74E
:1018C000C0FE37602846FEF7BCFE37612846FEF7AB
:1018D000B8FEE00602D40420306101E0042030604C
:1018E00008252846FEF7ADFE37602846FEF7A9FE1C
:1018F00037612846FEF7A5FE200702D40420306198
:1019000001E00420306008252846FEF79AFE376083
:101910002846FEF796FE37612846FEF792FE6007DE
:1019200002D40420306101E00420306008252846FC
:10193000FEF787FE37602846FEF783FE37612846AC
:10194000FEF77FFEA00702D40420306101E00420EE
:10195000306008252846FEF774FE37602846FEF7FB
:1019600070FE37612846FEF76CFEE00702D10420C6
:10197000306101E00420306008242046FEF761FE5B
:1019800037602046FEF75DFE01B0F0BD90120A40C0
:1019900000280AD000220171C1708270028082602A
:1019A000C2600261426182618283704770B584B017
:1019B000002813D0044604215020082200920190F0
:1019C000029125460835002628463246334600F067
:1019D0004DFC26606660284600F061FC04B070BDD6
:1019E000FEF7BCFFFFF77AFCFFF71EF9FFF7F6FBE7
:1019F00000E030BFFFF718FC0028FAD0FFF784F9A9
:101A0000F8E7000010B56D4C207000280ED10020C2
:101A10006060A0602061607020462C3000F03FFCC8
:101A20005034204600F03BFC00F07AFB10BDC0466D
:101A300080B582B06846FFF707FC00980199081846
:101A4000C10F4018401002B080BD000028205B4943
:101A5000085C704780B582B06846FFF7F5FB0098D8
:101A600002B080BD10205549085E70470C205349D4
:101A7000085E704780B582B06846FFF7E5FB0198C5
:101A800002B080BD12204D49085E70470E204B49C0
:101A9000085E7047F0B589B0FFF7E0FB2D21059196
:101AA0004B20800104902824009401900291434E21
:101AB00030462C3006901227032203920025394627
:101AC0002B4600F0D3FB00940498019005980290F7
:101AD0003446503420463946039A2B4600F0C6FB64
:101AE000FFF7DCFB07A8FFF7AFFBB5703580756229
:101AF00030461C300573089807997560B560F5602D
:101B000035617161B061F5613562069800F0C7FB1F
:101B1000204600F0C4FB00F003FB09B0F0BDC04656
:101B200010B582B0FFF7BAFB6846FFF78DFBEA4CB1
:101B30000020A0702080606221461C31087301994A
:101B4000009A6060A060E06020616261A161E06174
:101B5000206220462C3000F0A2FB5034204600F0DA
:101B60009EFB00F0DDFA02B010BDC04670B50D4618
:101B70000446D94E7078002807D130462C3000F04A
:101B80008EFB3046503000F08AFB012070706820D8
:101B9000C043854200DC05466921692D00DB0D4606
:101BA0007581844203DD692C04DA348170BD0446FA
:101BB000692CFADB0C46348170BDC04698012020A8
:101BC000F0B58DB0C44C2078002805D0A078401C1A
:101BD000A070C0B20A2801D20DB0F0BD0027A770D6
:101BE0000BA8FFF731FB60690B996161A2690C9B3F
:101BF000A361081A0A90A081981A0990E0810A202E
:101C0000215E6278E088002A039000D008460191A6
:101C10000821655EA1880492002A059100D029461A
:101C200000B20A043B460AD0228A13B2DB135A40A0
:101C3000D21A92B2132A01D8002300E001230295A0
:101C40000EB200280AD0618A0AB2D2135140891A12
:101C500089B2132901D8002700E001270A9909B2A7
:101C600008910122012E03DB0899002915460CD4A6
:101C7000079201210022002E0D4600D41546089E31
:101C8000002E00DC11460D40079A069509990EB208
:101C9000012801DB002E09D40121002500280A4675
:101CA00000D42A46002E00DC29460A4007960A98EE
:101CB00080B2414241411940884D012904D1A68B8F
:101CC000AE4203D20A3600E00026A683099880B20D
:101CD000414241413940012905D1E08BA842069992
:101CE00004D20A3001E000200699E0830B40012B6A
:101CF00004D1218CA94203D20A3100E000212184C1
:101D00001740012F04D1628CAA4203D20A3200E0AC
:101D100000226284089BDB130A9D5D40EB1A9BB294
:101D20001F2B05D3A38C6D4DAB4203D20A3300E0C9
:101D30000023A384079DED13099F6F407D1BADB267
:101D40001F2D05D3E58C654FBD4203D20A3500E057
:101D50000025E584B6B27609182E01D9012018E0D5
:101D60005F4E80B2B04201D9022012E088B26328EF
:101D700001D903200DE090B2632801D9042008E0C6
:101D800098B2312801D9052003E0A8B2322813D334
:101D900006202821605400206060A060206120801F
:101DA00020462C3000F07BFA5034204600F077FAC1
:101DB00000F0B6F90DB0F0BD2820205C0028EAD173
:101DC0000498002803D0039D029E019B47E0002554
:101DD0000598002803990FD001B220462C300A9AAA
:101DE0001204921300F063FA0421625E012A06DBFA
:101DF00091B2490816310DE02A462E460CE0002A21
:101E000001D4002106E0514289B24908334B591AE6
:101E10000C3909B20E18E18800290FD00E20205E7F
:101E200082002046503009B200F041FA0621655E7A
:101E3000012D06DBA9B2490816310DE005922B46AB
:101E40000DE0002D01D4002106E0694289B2490865
:101E5000224A511A0C3909B20B18A08805906078F3
:101E6000002801D0218905916821CA43934200DCF2
:101E70001346059A1204692B00DB6923002A11D04E
:101E8000C9438E4200DC0E46692E00DB6926102114
:101E9000615ECA1EB24200DC3246C91CB14202DB9E
:101EA000114600E000212182002800D06589280425
:101EB0000AD01220225ED01E984200DC1846D21CA6
:101EC0009A4202DB024600E00022628208B211B2AE
:101ED00000F04CF90DB0F0BD98012020F6FF000095
:101EE0001F030000F0B581B001246603DB4D2846D6
:101EF00031462246FEF77AFD210328462246FEF7A8
:101F000075FDA10228462246FEF770FDE102284633
:101F10002246FEF76BFDD24D402128462246FEF7B1
:101F200065FD610228462246FEF760FD28463146DF
:101F30002246FEF75BFD082128462246FEF756FDA5
:101F4000C84F0026384631463246FEF721FC0222B1
:101F500038463146FEF71CFC032238463146FEF770
:101F600017FCC14831463246FEF712FC8021284654
:101F70002246FEF73BFD01B0F0BDC046F0B58BB088
:101F80000AAF0024BC70082005903880012007901B
:101F90000002099019208001019008905648842180
:101FA00081628321816385210491016053485449F2
:101FB00041605449016010200390FEF742FBA94E96
:101FC00030463946FEF7ECFB08A93046FEF73EFBEB
:101FD000009430463746214622462346FEF7CCFB86
:101FE0000225009506953046214622462346FEF7F7
:101FF000C3FB032600963846214622462346FEF7B9
:10200000BBFB384621462246FEF7A8FB3846214650
:102010002A46FEF7A3FB3846214632460296FEF7D3
:102020009DFB3846019D29462246FEF7B1FB384606
:102030002946069AFEF7ACFB384629463246FEF79B
:10204000A7FB3148079A82600D2101602F48016883
:10205000114301600AAFBC70059838802C48049980
:102060000160099408952B48254941602549016084
:102070000398FEF7E6FA7C4E30463946FEF790FBB1
:1020800008A93046FEF7E2FA00943046214622467F
:102090002346FEF771FB304621462246FEF75EFBE3
:1020A0003046374629462246FEF772FB1A48079A01
:1020B0008260026019480168114301602A48027079
:1020C000684E304629462246FEF762FB30462946D6
:1020D000069AFEF75DFB30462946029AFEF758FB4A
:1020E000384629462246FEF753FBDE488021224629
:1020F000FEF77CFC0BB0F0BD3C80424000088640FF
:10210000030000B10100002600118640041886403B
:10211000E4804240008886400091864004988640D2
:1021200070B511480078012817D1192084014D4E4F
:102130000025304621462A46FEF72AFB0222304679
:102140002146FEF725FB032230462146FEF720FB01
:10215000454821462A46FEF71BFBC2488021002243
:10216000FEF744FC70BDC0460D022020F0B583B0E0
:102170000C4601260021019102900028354600DA24
:10218000019D7103354800912A46FEF72FFC31036B
:10219000029880B2C70B31483A46FEF727FCB102DD
:1021A0002E483A46FEF722FCF1022C482A46FEF75A
:1021B0001DFC002C374600DA019FAA4840213A4610
:1021C000FEF714FC7102A0B2C50BA64E30462A469B
:1021D000FEF70CFC304600992A46FEF707FC082162
:1021E00030463A46FEF702FC20B2C0132146414079
:1021F000081A80B2C825C82800D32846C000192173
:102200008E01371A17483946019AFEF7C1FA02992A
:1022100008B2C0134140081A80B2C82800D328462B
:10222000C000351A02220F4E30462946FEF7B0FA9A
:10223000032230463946FEF7ABFA0B482946019A8D
:10224000FEF7A6FA02980443601E84418021854867
:102250002246FEF7CBFB03B0F0BDC04600000A40AB
:1022600000200A400000864000808640F0B581B022
:10227000002812D00093089B079E069D202700246B
:10228000C455066143618461C46106C00099016060
:102290000838012D00D80125C56001B0F0BD002827
:1022A00004D02021002242548261C2617047F0B5FF
:1022B00085B000280AD004468F1A2020215C2046D1
:1022C0002030002904D0E169791A02E000253AE0C3
:1022D0000021E7610122027023687B43A5684D431A
:1022E000A0690290C21926697042904200DC104633
:1022F00004930395E918B24200DC06466268304652
:10230000019250430818E168009100F0D9FB65691B
:102310006942012F01DBA84203DC002F16D5884259
:1023200014DA0C460299019841430498081803995D
:102330004018009900F0C4FB2146814200DC0146B0
:10234000A84200DC0D46284605B0F0BDA6618142DA
:10235000F5DDF5E7424800787047C0464748007809
:102360007047C046B0B54148002404603E48046050
:102370003B4804703F4804703F4D2C703F48047048
:102380000120010437482246FEF730FB2C70B0BD17
:10239000394800787047C04610B5344800240460BE
:1023A000314804602E480470324804703348047089
:1023B000012001042B482246FEF718FB2E4804702A
:1023C00010BDC046F0B581B0254C277801263104F8
:1023D0002448002F11D0009123490A68234B1D681F
:1023E0006D1E95420BD200261E600E60267021489D
:1023F0000670224806701B4808E0002607E01C4BC8
:102400009A420BD31D490E70002626700099324661
:10241000FEF7ECFA1848067001B0F0BD501C0860D9
:102420000A21384600F02AFB124C2178002581420F
:1024300001D3294600E001210A48632F00D80E4647
:1024400000993246FEF7D2FA0B4806702078401CFD
:10245000C1B2092900D80546257001B0F0BDC046BB
:102460002002202000200A40180220201C022020E8
:10247000307500002402202026022020280220207F
:1024800000200149085E70472E012020F0B583B07E
:10249000114E30463830FFF789FA08217D27380180
:1024A0000A220092019002913046643000240C25EB
:1024B00022462B46FFF7DAFE0320029007480190E0
:1024C000F800009030468830062122462B46FFF760
:1024D000CDFE347003B0F0BD3C022020400D03005F
:1024E000E648406A7047C0460146E44A5069002801
:1024F00000D0704710780028FBD01069081A704788
:10250000DE4840787047C0463420DC49085E70479A
:102510003020DA49085E704700487047742C00008C
:10252000D64840697047C0462820D449085E7047A5
:10253000002004490856052802D803A1085C70470A
:102540000120704734032020000101010203000034
:102550002A20CA4900220A540A854A624A610A802E
:10256000CA620A638A86704770B50C460546FFF753
:10257000D7FD002C1FD0C14E00207060B060F0620B
:1025800035617061F473B4735021B181B0707070B3
:102590003063B08630627062308531462031887297
:1025A000FFF7BEFA01252846FFF72CFAFFF740FA9D
:1025B000B061F06103E0B148012141700525AF48E9
:1025C0000570601E8441204670BDC04610B50024D1
:1025D0002046FFF717FAFFF7A3FDA848047004850B
:1025E00010BDC046F0B583B00E460446A34F387800
:1025F000052806D8012181403122114201D003B0C3
:10260000F0BDB988491CB98003280BD188B278285D
:10261000F5D3FFF785FD042038703869201A7861FA
:1026200003B0F0BD0294FFF703FAB9690190401AB4
:10263000C1174840401AFEF70FFD2A24395D4D1C92
:102640003D557D21C90000F03BFA7862B87BBE732E
:10265000FB7BF87319460140034333400B43E8B258
:1026600005284AD300263E551806854C1BD00093FA
:10267000D8B200F032F9611C09B2012388421A462F
:1026800000DB32462F217D5C6C426C41042800DC6B
:1026900033461C431443012C0DD101227A5481008E
:1026A0007986009B19E02E2000213954B88DA04274
:1026B00037D2401D20E0798E8000401A00B20128F8
:1026C000009B03DBC01C8008091805E0002803D527
:1026D0000322101A8008091A798608B2002802D449
:1026E000801C800803E00221081A800840422E2145
:1026F00001227A5438860020B885180611D00020AF
:10270000F880029C3869201A5F4988421DD3002452
:102710002046FFF777F9FFF703FD3C85BC805F4853
:102720006FE0F88857494A1C9042029C03D2421C31
:10273000FA808842E6D100242046FFF763F9FFF7CC
:10274000EFFC3C85BC8056485BE03978022900D01C
:102750000D2128203A5E90B2914202D10021B98128
:1027600018E01D46914201DB502300E03223BC8972
:10277000A34203D9611CB9812B460BE00023BB8126
:10278000914203DC0421C943091D00E001212B46CD
:10279000081838853221795E03224A43910F511877
:1027A00089101422D243914200DC1146152900DB26
:1027B0001521B98602B2400016301C46032A01DCFE
:1027C000024600E01C22BB8D632B00D802462E235C
:1027D000FB5C002B00D00246501A00B2511809B21F
:1027E000FFF7C4F9FFF7ECF9FFF730F900280BD039
:1027F00000242046FFF706F9FFF792FC3C85BC80D9
:102800002248388003B0F0BD387802280DD1F8692D
:10281000396A019A101AC2175040801A884200D2B1
:10282000EDE6FEF77DF903B0F0BDE0B200F0DCF8B4
:10283000002819D00199F9610025BD800220387067
:10284000B869081AC1174840401AF02229462B4699
:10285000FDF7B2FC0F4A801869410F4A2B46FDF77D
:1028600016FD386203B0F0BDB8880949884200D22D
:10287000C5E60520FEF720FD03B0F0BD340320209F
:10288000FBFF000057020000C0D401000503000058
:1028900031750000FF0B0000FE170000050400006A
:1028A00005020000012101408207D20F891842076A
:1028B000D20F89180207D20F8918C206D20F8918C1
:1028C0008206D20F89184206D20F8918C00908184B
:1028D000C0B27047FF2148407047F0B581B0022177
:1028E000014001220240544207232340002900D026
:1028F0005B1D0424044000D0DB1C08250540ED08C6
:1029000000955B1910260640F506ED175B19202788
:10291000074000D0DB1E4025054000D0FB334908AE
:102920005118A2088918009A8918320989187A0959
:102930008918AA09891840B2002804D4080604D1CD
:10294000002001B0F0BDDB1F491C58B249B200F0B5
:10295000B7F840B201B0F0BDF0B581B00125A906CD
:102960001F4E3046FEF73AF80446E9063046FEF7B9
:1029700035F8002800D0A41C2E0619483146FEF771
:102980002DF8002800D0241D6F0615483946FEF7A3
:1029900025F8002800D0083412483146FEF71EF80A
:1029A000002801D0102004430E4E30463946FEF771
:1029B00015F8002801D020200443A9050848FEF797
:1029C0000DF8002801D04020044329053046FEF7C9
:1029D00005F8002801D080200443E0B201B0F0BD2A
:1029E00000000A4000200A4010B50446FFF75AFFD5
:1029F0000022032806D3E006800F03D0C322224022
:102A0000501E82411B498878002805D088881A4BBF
:102A1000984206D8002005E0002A14D00020088142
:102A200010BD01200240012A0AD14889062803D29C
:102A3000421C4A8105281AD100208870012010BD4F
:102A40000020488110BD0889272805D8421C0A812A
:102A500027384242424100E001220020002AEED005
:102A60008A88D2087D2AEAD301228A7010BD00200C
:102A700010BDC04634032020AF36000043088B420F
:102A80001AD3002203098B4279D3030A8B425ED307
:102A9000030B8B4242D3030C8B4227D30902FF2244
:102AA00012BA030C8B4202D31212090203D0030B99
:102AB0008B4233D31AE0D3E0411A8041401C704767
:102AC00003460B4371D443088B42F5D3002203091C
:102AD0008B4254D3030A8B4239D3030B8B421DD351
:102AE000030C8B4202D394466EE0090AC30B8B425F
:102AF00001D3CB03C01A5241830B8B4201D38B030A
:102B0000C01A5241430B8B4201D34B03C01A5241AE
:102B1000030B8B4201D30B03C01A5241C30A8B42F1
:102B200001D3CB02C01A5241830A8B4201D38B02DC
:102B3000C01A5241430A8B4201D34B02C01A524180
:102B4000030A8B4201D30B02C01A5241CDD2C309F2
:102B50008B4201D3CB01C01A524183098B4201D36E
:102B60008B01C01A524143098B4201D34B01C01A59
:102B7000524103098B4201D30B01C01A5241C308D1
:102B80008B4201D3CB00C01A524183088B4201D340
:102B90008B00C01A524143088B4201D34B00C01A2C
:102BA0005241411A524110007047CA0F00D04942A9
:102BB000031000D34042534000229C4603098B423D
:102BC0002DD3030A8B4212D38901FC2212BA030AC5
:102BD0008B420CD3890192118B4208D38901921147
:102BE0008B4204D3890137D0921100E08909C309CF
:102BF0008B4201D3CB01C01A524183098B4201D3CE
:102C00008B01C01A524143098B4201D34B01C01AB8
:102C1000524103098B4201D30B01C01A5241C30830
:102C20008B4201D3CB00C01A524183088B4201D39F
:102C30008B00C01A5241D9D243088B4201D34B00BA
:102C4000C01A5241411A00D2014652411046634611
:102C50005B1000D34042704763465B1000D3404294
:102C600001B50021004201D0C9430846C046C04614
:102C700002BD00000200000051250000692500008F
:102C8000E5250000CD2500003125000001250000CC
:102C900021250000E9240000E1240000292500008E
:102CA000112500000925000012003C0070009A0068
:102CB000C400000000000000D82C0000000020200C
:102CC0000800000020010000E02C00000800202087
:102CD0009004000048010000C10D00000000000049
:04000005000000C136
:00000001FF
