:020000040000FA
:10000000B00420208D010000910100009301000048
:1000100000000000000000000000000000000000E0
:10002000000000000000000000000000950100003A
:10003000000000000000000097010000810900009E
:100040009B010000BD0700009B0100009B01000018
:100050009B0100009B0100009B0100009B01000030
:10006000000000009B0100009B0100000000000058
:10007000000000009B0100009B0100009B010000AC
:100080009B0100009B0100009B0100009B01000000
:100090009B0100009B010000000000000000000028
:1000A0009B0100009B010000000000000000000018
:1000B0009B010000000000009B0100009B0100006C
:1000C00000F002F800F052F812A030C808382418E6
:1000D0002D18AC4201D100F049F80FCCA246AB4636
:1000E0000CA730CF2D1B083F3F197C427F1E544484
:1000F0002D090426F441641EAC4201D300F036F809
:100100000126334200D0FB1A3343984754465D46DC
:10011000DFE70000F42A0000142B000000000000BC
:10012000103A02D378C878C1FAD8520701D330C840
:1001300030C101D504680C60704700000000000069
:100140007047000000000000002300240025002666
:10015000103A01D378C1FBD8520700D330C100D583
:100160000B6070471FB51FBD10B510BD00F037FA0A
:100170001146FFF7F7FF01F08FFD00F04FFA03B4CF
:10018000FFF7F2FF03BC00F055FA000006480047F5
:10019000FEE7FEE7FEE7FEE7FEE7FEE70348044969
:1001A000024A044B70470000C1000000B003202049
:1001B000B0042020B00320204343514330B55C18E5
:1001C000010C130C0D4692B25D4380B251432C19C1
:1001D000054655430A0C09044D1962415843010C68
:1001E00000044019514130BD70B5054610460C461B
:1001F00018430ED000210846891A984127DA0021B9
:100200000846491BA04118DA2846214600F03FF86D
:1002100070BD002C03DA01230022DB0707E0002178
:100220000846491BA04102DA0022D2435308104677
:100230001946C046C0462A4627E000216842A1412F
:1002400000F025F8002440428C4121461AE00021AC
:100250000846491BA0410CDA214600205242984131
:100260000346284600F013F8002440428C41214602
:1002700070BD002052429841002103466842A141CE
:1002800000F005F8002452429C41234670BDFEB5A3
:10029000044610460D46184373D0A6468C460020EF
:1002A000A41A01469D4167D36646002701243D46B6
:1002B000B61A9D4102D313463A4621246546764636
:1002C0002F04360C3E432D0CB61A9D4104D3150C59
:1002D0001B042B4312041034654676462F06360A5B
:1002E0003E432D0AB61A9D4104D3150E1B022B4323
:1002F00012020834654676462F0736093E432D091B
:10030000B61A9D4104D3150F1B012B431201241D66
:1003100065467646AF07B6083E43AD08B61A9D411E
:1003200004D3950F9B002B439200A41C6546764690
:10033000EF0776083E436D08B61A9D411AD392180E
:100340005B41641C16E00018764665464941B71AC1
:100350009D410191009009D36046B11A98418E46A3
:100360008446009801990025401C6941DD07520828
:100370002A435B08641EE6D57246634603B0F0BDAF
:10038000FFE72046284307D00020C0430146C0466F
:10039000C04622462B46F1E700200146F7E701E080
:1003A00004C0091F0429FBD28B0701D50280801CE1
:1003B000C90700D00270704700290BD0C30702D0D4
:1003C0000270401C491E022904D3830702D5028013
:1003D000801C891EE3E70022EEE70022DFE7000031
:1003E000002203098B4273D3030A8B4258D3030BB9
:1003F0008B423CD3030C8B4221D312E003460B43C8
:100400007FD4002243088B4274D303098B425FD30D
:10041000030A8B4244D3030B8B4228D3030C8B4239
:100420000DD30902FF2212BA030C8B4202D312121F
:10043000090265D0030B8B4219D300E0090AC30BF4
:100440008B4201D3CB03C01A5241830B8B4201D3A1
:100450008B03C01A5241430B8B4201D34B03C01A8A
:100460005241030B8B4201D30B03C01A5241C30A02
:100470008B4201D3CB02C01A5241830A8B4201D373
:100480008B02C01A5241430A8B4201D34B02C01A5D
:100490005241030A8B4201D30B02C01A5241CDD202
:1004A000C3098B4201D3CB01C01A524183098B424D
:1004B00001D38B01C01A524143098B4201D34B0136
:1004C000C01A524103098B4201D30B01C01A524199
:1004D000C3088B4201D3CB00C01A524183088B4220
:1004E00001D38B00C01A524143088B4201D34B0009
:1004F000C01A5241411A00D201465241104670477B
:100500005DE0CA0F00D04942031000D3404253407F
:100510009C46002203098B422DD3030A8B4212D33F
:100520008901FC2212BA030A8B420CD38901921171
:100530008B4208D3890192118B4204D389013AD0AE
:10054000921100E08909C3098B4201D3CB01C01A83
:10055000524183098B4201D38B01C01A5241430996
:100560008B4201D34B01C01A524103098B4201D384
:100570000B01C01A5241C3088B4201D3CB00C01AF1
:10058000524183088B4201D38B00C01A5241D9D209
:1005900043088B4201D34B00C01A5241411A00D28A
:1005A00001465241104663465B1001D34042002B86
:1005B00000D54942704763465B1000D3404201B505
:1005C0000449002802DC491C084000E00846C046F7
:1005D000C04602BDFFFFFF7F7047704770477546FA
:1005E00000F024F8AE46050069465346C008C00036
:1005F000854618B020B5FFF7D1FD60BCB646002691
:100600000027C0C5C0C5C0C5C0C5C0C5C0C5C0C520
:10061000C0C5403D490849008D46704710B50446A5
:10062000C046C0462046FFF7AAFD10BD00487047EF
:100630000800202001491820ABBEFEE7260002007A
:100640007047811E091F00BFFCD27047F0B53C4ABD
:1006500082183C4BC31808794E793B4D3B4C002E19
:1006600023D0202804D00526F601002803D003E07B
:10067000374E002800D18826576F2F4037435767E1
:10068000976F2F4037439767566B26405663966B9C
:10069000264096630026566596658F26F6435F686A
:1006A00037405F609F6837409F608E7909682028D7
:1006B0000BD0002819D1491E5160D76E2F408821D8
:1006C0000F43D7661746703719E0491E5160D16E47
:1006D00029401F4F3943D166116F294039431167B3
:1006E000012149071B4D174609E049085160D76EA3
:1006F0002F400521C9010F43D766174670373C6864
:100700002C400C433C60D16A104C2140D162116BEB
:10071000214011630021D16411658F21C943D46F39
:100720000C40D4671C680C401C600643BD20304060
:100730001168094B0B40C018801C1060F0BDC0460A
:10074000041800008418000024493E008888FDFF3A
:1007500001040000FFFFFFCF4000FFCF10B50723CB
:100760009B04194092008018024A84589C436118E7
:10077000815010BD3018000010B5029CA400001973
:1007800011431943014A815010BDC0465018000062
:1007900092008018014A81507047C046101800002E
:1007A00010B50122120383180C789C604B7883509B
:1007B0008978014A815010BD0C110000F0B581B05C
:1007C000204801461039096801256C051E4B1A4660
:1007D000103A176827400022D643090203D4002F9D
:1007E0001AD101B0F0BDE90502680A4302607548FC
:1007F00000F0EAF800960646E906724800F0E4F8D0
:100800007040009E304600D1284610490A68801882
:1008100008600D4B002FE4D018682043186076481C
:10082000214600F0D1F804460125A905654800F0ED
:10083000CBF8604000D13546054801686918016071
:1008400001B0F0BD48300A4048100A40E8012020BD
:100850008402202010B5234A8120D06222490860FA
:10086000224BCB641060224C9466D4665465946528
:100870009463D464D465D4639364536653635364BC
:100880009060506008654865C86588654866086678
:10089000106608674867C863886316481649016090
:1008A000016303208102154A13680B431360012181
:1008B0004A05134B1C6A14431C621C6814431C60D9
:1008C000104A114B136013638003104A13680343EB
:1008D0001360C8050E490A6A02430A620A680243A5
:1008E0000A6010BD848042400480424081000E00B6
:1008F00081000C00A0120A40013C0000A0130A4035
:1009000028100A40A0320A40CC330504A0330A4024
:1009100028300A4009480021016009480146083989
:100920000A6803239A430A60016801229143016027
:10093000110202688A4302607047C04608030B40F8
:1009400008010B4080B500F005F8FFF783FFFFF7C3
:10095000E1FF80BD80B5064806494160064A516006
:100960000649016011601020FFF76BFE80BDC04694
:1009700000080A40030000B100280A4001000026D8
:1009800008480168491C016007480178072903D815
:100990000178491C0170704704480168491C0160D6
:1009A0007047C046840320206C022020680220206B
:1009B0001049002800D1103101208004014A8850DC
:1009C0007047C04600200A402722D20180580840C4
:1009D000411E884170470000064B002A00D11033A9
:1009E000C15070470349002800D11031024801224C
:1009F0000A5070479012000000000A4070B5064C83
:100A000001252560484E7D200002FFF71AFE761C66
:100A1000F9D3256170BDC04690120A400120400202
:100A200002490968014048424841704780130A4022
:100A30000020B249085E7047A5480068AD49884269
:100A400000DC0846AC49884200DB08467047C046D7
:100A50000020A749085E70479C480068A549884265
:100A600000DC0846A449884200DB08467047C046BF
:100A700010B584B0044601A800F054F9002803D151
:100A80000020C04304B010BD0298201A04B010BD6D
:100A900080B58C4900200870934908708A49087015
:100AA000904908708C4908708A490860904908800C
:100AB00087490860854908608C4908608F4908802B
:100AC0009349088001F060FE80BDC0467D480078F3
:100AD0007047C04680B50146844A00201060824AB3
:100AE0001170002903D18A49088001F057FE80BDAA
:100AF0007E4900220A600C49884200DC08467D21BC
:100B0000C900884200DB08467949088070490968B5
:100B1000401A7849884200DC08467749884200DB61
:100B2000084676490880704718FCFFFFF0B589B089
:100B30000C46054606A800F0F5F800285CD006A88B
:100B40008078012100263B28084600D83046079FC0
:100B5000EA1B652A00D3314608405A49087001282B
:100B60005CD10594584801780126002948D059489D
:100B7000006806A9CC78584909788C4201D187428F
:100B80004BD03A1A1423642A194600D811468742DA
:100B900000D00B4601934D48016802911846484326
:100BA0007D21CD00294601F055FF002106AA515EA6
:100BB000474A126880180490081A03904543019828
:100BC000C100284601F046FF029940184349884277
:100BD00000DC08464249884200DB08463B49086081
:100BE000032003994843C117890F401880100499C6
:100BF0004018374908600CE03248002606700DE0C6
:100C0000324900220A60067006A8815E304A1160EF
:100C1000C4783048076030480470059C3149087832
:100C2000401C0870C0B20A284AD3002008702E4920
:100C300009780E40012E3CD123490978002938D08B
:100C400000202B49085E22490968421A294882423D
:100C500000DC024626462848824200DB024627483E
:100C600002800A210B465343204804681B19244C78
:100C7000A34200DC2346234CA34200DB234603604F
:100C8000CD20504301F0E6FE0546104801684B2098
:100C900048430921C94301F0DDFEF1006918081835
:100CA0001949884200DC08461849884203DB084697
:100CB00001E00E4908601649088000B201F06EFD9F
:100CC00009B0F0BD9C002020A6002020BC00202000
:100CD000B8002020B0002020AC00202078ECFFFFDE
:100CE00088130000A800202098002020C0002020A9
:100CF000B40020200080FFFFFF7F0000A000202024
:100D0000C0F2FCFF400D0300A8E4FFFF581B0000E9
:100D1000A40020201748C0697047C0461548806964
:100D20007047C04610B5002815D0124A137AD9076B
:100D3000FCD151890180117B8170517BC170116997
:100D40004160117D0172147AA342EFD101231C404E
:100D5000ECD1084610BD002010BDC046054800215A
:100D60000172418101734173016101758161C1713A
:100D7000C16170479003202010B50024204600F088
:100D80009DFF01F045FA0448046384854485C481CD
:100D900084800621017010BD68012020F0B58BB061
:100DA00001460020002964D07F2293021F680F6053
:100DB0005D684D609A688A60DC680094CC601C694C
:100DC00001940C615C6902944C619E698E61DC69DE
:100DD0000394CC611C6A04940C625C6A05944C62B6
:100DE0009C6A06948C62DC6A0794CC621C6B089443
:100DF0000C635C6B09944C639C6B8C63DB6B0A9398
:100E0000CB631D49794001236B400B4307214C40C4
:100E10001C43631E9C4173427341234329D11748ED
:100E2000424017484243009B5A404243019B5A406C
:100E30004243029B5A40424372404243039B5A4002
:100E40004243049B5A404243059B5A404243069BFF
:100E50005A404243079B5A404243089B5A404243F0
:100E6000099B5A4042434A4042430A98811A4842E9
:100E700048410BB0F0BDC046314C4143A766714BB1
:100E800093010001F0B581B02A4D2846FFF786FF97
:100E9000294F387029490870DA4E30461030002446
:100EA000214600F0D1FE01F0FFF901F0D9FB00F07E
:100EB0004DFF01F087FC00F0DBFBD34802210170FD
:100EC000D24804803878002800D0A86800F0ECF9F7
:100ED00001F0BCFA2046FFF76BFDFFF78FFDF08BAA
:100EE000E0490880308CE04908802220305CE949E4
:100EF00008702320305CE8490870F07C10490870C5
:100F0000307D10490870706AB16A0F4A10600F484E
:100F10000160B08DD549088001F09AFBDF49087067
:100F200001F0B4FBDE49087001F096FBDD49087062
:100F300001B0F0BD4003202080032020400120208C
:100F4000E6012020E501202064012020600120200E
:100F5000F0B581B0FFF762FD064601F0B5FC07462B
:100F600001F072FC054600F019FA0446A14806702B
:100F7000A1480770A1480570284601F04DFCA04922
:100F80000870A048807900281CD127469E48047824
:100F900000F06AFB844203D09B48007800F092FB8B
:100FA00000F062FB06283C460CD198480488FFF705
:100FB0004FFD80B284423C4604D000209349085E35
:100FC00000F068FB002E15D08E4F38881D2803D8FE
:100FD000411C39801D2811D1387900280ED10120FB
:100FE0003871B879012836D100203881B87100F005
:100FF000F9FB03E00020834F3871388020462946F2
:1010000000F002FC00F02CFB0646C01F022802D2B2
:101010000020B87100E0B8797D49087001252840AA
:10102000FFF7C6FC072E3ED0082E10D100F004FBBF
:10103000002509281DD801267844007940008744FE
:101040003218181818181D041A1C022616E0FFF78B
:101050003DFD054627E001F037FC01F0F5FB0646B3
:1010600001F0F4F900F09AF9314600F04FFBB87145
:10107000C4E7052602E0032600E004266549204671
:10108000FFF7AEF988B28008634A4243500D8642AA
:1010900009D94B2292004243881A80B2962801D384
:1010A000002500E001252846FFF79CFC00F0DCFA53
:1010B0005A49087000F0D4FA5949087000F0BCFA97
:1010C00058490870204600F0A7FA5749086000F018
:1010D000BFFA5649086000F09BFA5549086000F0D5
:1010E000BBFA5449088000F08FFA53490860FFF7B3
:1010F000AFFC52490880FFF79FFC51490880FFF779
:10110000ABFC50490880FFF793FC4F49088001F081
:1011100035FB4E490880FFF7D9FC4D490870204641
:10112000FFF7A6FC4B490860FFF7F8FD4A49086045
:10113000FFF7F0FD4949086000F00CF948490860E4
:1011400000F082FA4749088047480024048000F0F4
:1011500077FA4649088000F0D9FD4549086000F05B
:10116000E5FD4449086000F0DDFD434D288000F0B6
:10117000E9FD424E3080285F00F0CAF8404908601F
:10118000305F00F0C5F83F49086000F0C7FD3E4DF4
:10119000288000F0D3FD3D4C208000F0B3FD3C4999
:1011A0000870288801B2C9134840401A81B2C8208B
:1011B000C82900D30146374A117021880AB2D213D8
:1011C0005140891A89B2C82900D3014632480170BA
:1011D00001F060FA01F074FA01F03AFA2F49087050
:1011E00001F054FA2E49087001F036FA2D490870C2
:1011F00001B0F0BD3C0320208E0320208903202075
:101200008803202068002020C8012020C60120205B
:10121000F0012020B80B00003B6D0000D50120201C
:10122000D4012020C4012020C0012020CC01202096
:10123000BC012020D2012020B0012020B8012020B4
:10124000B6012020BA012020B4012020D0012020A6
:10125000E4012020D8012020E0012020DC01202012
:101260008C0220208C0320208A0320205C01202077
:10127000440120205001202048012020540120203A
:101280004C01202058012020EE0120208A0220203D
:1012900064022020EC0120208802202081022020EE
:1012A0008202202083022020B0B50446074D284644
:1012B0003C304021FFF791F8601C686428461030EC
:1012C00000F0D0FC002068602880B0BDC400202061
:1012D000F0B581B00546C1171C4A00242346FEF72D
:1012E0006BFF1B4A1268D30FD318DF175E107342CF
:1012F000BC41002D00D43C46002D00D433461818C4
:101300004C41D3172146FEF76FFF01B0F0BDC04638
:10131000F0B581B00546C1170C4A00242346FEF7FC
:101320004BFF0B4A13680A225A43D31757107E42C9
:101330009C41002D00D41C46002D00D43E463018A0
:101340004C412146FEF750FF01B0F0BD40420F0076
:10135000000020200D4800687047C04610B51949AC
:10136000002008700F490860084908600849094AC8
:101370004A60FF221206084B1C689443032292071E
:10138000A2181A6088600720086010BD680220203B
:1013900010E000E0FF7C000020ED00E00148006864
:1013A0007047C04684032020EFF3108072B60549D1
:1013B0000878002802D00A78521E0A70411E88411F
:1013C00062B670476C022020EFF3108172B61849A4
:1013D0000968184A126806C062B67047EFF31080B9
:1013E00072B61348002101601248016062B6012004
:1013F000C105074A13680B431360400505490A6895
:1014000002430A6004480221016001607047C0463F
:1014100048300A4048100A4000E100E0EFF3108035
:1014200072B60348002101600248016062B670474D
:10143000E801202084022020B0B50446002528467B
:1014400000F03CFC01F002F8EE4805634470C581F1
:10145000858008210170B0BD70B500280CD00379DB
:10146000012B0ED10BB2DB130C465C40E31A1CB20D
:10147000012C0EDC00231EE00020014600F0CEFC13
:1014800070BD531E14469C4145882C2D03D8002363
:1014900002E05B1E0FE0012303290E4600DB03265A
:1014A00023402C2D00D80E469A4031B2C913334642
:1014B0004B405B1A3146008A801800B21AB2904243
:1014C00003DC5342984200DB0346C81A00B25918A5
:1014D00009B200F0A3FC70BD002809D00021C18032
:1014E000017141800170018141818181C18101824D
:1014F0007047002809D00021C1800171418001702E
:10150000018141818181C18101827047F0B581B043
:10151000002875D003785B1C0370DBB2052B6FD3FA
:1015200000260670374C002945D015460746084668
:1015300001F08BF90146384601223A717E800A2279
:10154000BB5E0AB29200E61FB6B2491F89B2B14231
:10155000114603D3D118CE0F89194910002B00D0A2
:101560000A46428111B2890F511809B28910C1800F
:101570008289818101818A1A12B20323DE43B24239
:1015800000DC3246042A00DB0422C281002D00D098
:10159000082359436B1E9D416A4352005218172A73
:1015A0001DDC1621C9438A4221461DDBD117490F94
:1015B0005118C90818E006714188E21E92B29142A2
:1015C00007D2C6814A1D42800289C280272903D8DA
:1015D00009E0C6810289C28011B2002901DD022121
:1015E00002E0214600D4018A1022825E09B29142B3
:1015F00001DD012102E0914202DA611C51180182F1
:1016000001B0F0BDFEFF00007E48006B7047C04691
:101610007C48406A7047C0467A4A9169002901D0E7
:10162000084670471178002903D05169411A0846CD
:10163000704700207047C046724840787047C046E7
:1016400044207049085E70473A206E49085E704732
:101650006C4880697047C0462A206A49085E704716
:10166000684800787047C046664880787047C04632
:1016700010B5644800240485022181700480343050
:10168000FFF72AFFFFF76AFBFFF702FA2046FFF792
:1016900021FA10BD10B57D21CA00821894B209014B
:1016A0008C4206D8574908858978062901D1FFF769
:1016B0001FFA0348844201D3002010BD012010BD51
:1016C000D1070000B0B5821E0021042A1CD84D4A63
:1016D0001378082B18D8012425469D40FF23823318
:1016E0001D4211D09070C11E032901D2002002E0DA
:1016F000062805D1108D00B2FFF7FAF9204600E068
:101700000020FFF7E7F921460846B0BDF0B581B0EB
:101710000C463C4EB578A91E05292AD20027B7856C
:10172000778577627061B7617770F01C0D21FEF7E5
:1017300052FE3763F474B474E1204000022D00902F
:1017400000D1B420308230463430FFF7D2FEB57875
:10175000032D10D1FFF7BAF9002819D00124204633
:10176000FFF7B8F900983230FFF7C2F9204602249B
:1017700014E001200FE0002C0CD0032D04D3FFF760
:10178000A5F9002804D0B578062D0DD038460CE018
:10179000032000E002207070002008240021F18165
:1017A000B180347001B0F0BD308DFE242C40042C8B
:1017B00000D0074638B2FFF79BF9201F4142414154
:1017C000AA1F504250410843FFF784F900F002FB82
:1017D0000124204600F072FA00F086FAF0613062CF
:1017E0002046DBE710B50024204600F067FA00F041
:1017F0002DFEFD48046384854485C4818480047083
:1018000010BDC04668012020F0B585B0F64F3A788B
:10181000082A0AD801239340FF248234234204D0AB
:101820000021FFF783F905B0F0BDBB885B1CBB80CE
:10183000931E032B33D2002405462146FFF776F989
:10184000FFF744F9002843D0BC813878042800D140
:10185000CBE0032800D1B2E0022829464CD1FFF7A3
:10186000E7F8294602B2D2135040801A80B23228DB
:1018700041D8FFF7F1F8294602B2D2135040801A3E
:1018800080B2C82837D8F889401CF88180B27828FF
:1018900032D3D648FFF72CF92946032629E0062A39
:1018A00040D1002405462146FFF740F9B888782842
:1018B00000D260E100F0CAFDB869002802D1786961
:1018C000281AB861FC81BC800720387005B0F0BDD3
:1018D000B889401CB88180B2962829460CD320468E
:1018E00000F0ECF900F0B2FD29463C63042078706A
:1018F0000826BC803E70FC817869081ABC49884281
:1019000000D238E13878072800D134E1204600F0D1
:10191000D5F900F09BFD3C63B6483880FC81BC8063
:1019200005B0F0BD04900C4600F0DEF9F9690290B4
:10193000401AC1174840401AFFF7CAFC05467D20EF
:10194000C1002846019101F085F821467862BC7CEF
:10195000B974FB7CFC74012600220392A64A9542CE
:10196000324600DC039AA54D4019A54DA84200D38C
:10197000039E32431846204023430B400343DDB20D
:101980003C46343420462946FFF7C0FD002D4ED09A
:101990000020F880BA78032A60D3FFF797F8002870
:1019A00052D00020B881FFF747F801B2C913484070
:1019B000401A80B2944988424FD905266BE0FFF760
:1019C00037F801B2C9134840401A80B2322829467C
:1019D00092D8FFF741F8294602B2D2135040801A3C
:1019E00080B2C92888D2042683E7FFF721F801B224
:1019F000C9134840401A80B20326322822D8FFF784
:101A00002BF801B2C9134840401A80B2C8282946B1
:101A100000D96EE7F889401CF88180B280084B2815
:101A200000D269E77869081AB861072661E7F88883
:101A300074494A1C062690422DD2421CFA808842E4
:101A4000A8D128E0294654E7B8890426952822D849
:101A5000411CB9819528A6D11DE0BA78796904980E
:101A6000411A921ED2B2022A03D8920068A39A5851
:101A700000E0664A91420DD23978082900D1CFE6BC
:101A8000052916D10222BA857B8D19B2914216DC46
:101A90003C2615E008260024204600F00FF900F04F
:101AA000D5FC3C637E70FC81BC80082038700498B3
:101AB000B6E6F98E89B22C290FD800210EE01E2639
:101AC000934203D100213963398242E03B8A9E422E
:101AD0000AD9591C3982396B3BE001213822BA5CA2
:101AE000914307D10A2206E00020388291421BDB95
:101AF000C0431AE003220029C5D1796A474B9942B5
:101B0000C1DC3E4BC9183E4B9942BCD3798F0AB217
:101B1000D2135140891A09B2042901DD0A22B2E721
:101B2000022958DC1222AEE70120401878850846C9
:101B3000FFF7EEFB03902A20385EFFF7E9FB0399DD
:101B4000411A01984843314600F084FF014638634A
:101B50000498FEF7EBFF2A20395E00262046324625
:101B6000FFF77AFC00F0A4F900F0CCF8002804D0CC
:101B70000720FFF761FC05B0F0BD387805280ED1CD
:101B8000386A0299081AC1174840401AFFF7A0FBAB
:101B900025498842EFDBFFF7EFF805B0F0BDB878D4
:101BA00004280FD1786A1E4988420BDB02983862FC
:101BB000FE81BE800520387079690498401AB861AA
:101BC00005B0F0BD284600F0C7FE002805D0B87863
:101BD0000228E0D0EAE70B2255E7786A11498842EB
:101BE000C9DB0920C5E7C046680120200CFEFFFFC5
:101BF00088130000080800004768400082FBFFFFD0
:101C000017080000570200004C040000B8880000CC
:101C1000C0D4010088130000102700007C100000D1
:101C2000DC050000911A0000A08601000448812113
:101C30000160012000020349086008647047C04643
:101C40004C80424090120A4000280AD000220171C4
:101C5000C170827002808260C260026142618261F2
:101C60008283704770B584B0002813D004215022BD
:101C70000823009301920291044608340025064689
:101C800020462A462B4600F087FC356075602046CA
:101C900000F09BFC04B070BDFEF754FEFFF7C6FFDA
:101CA000FFF7F0F8FFF75AFB00E030BFFFF77CFBCF
:101CB0000028FAD0FFF74CF9F8E7000010B57B4C8C
:101CC000207000280ED10020A0816081A08060805B
:101CD0002046283000F079FC4C34204600F075FC9A
:101CE00000F0B4FB10BDC04680B582B06846FFF777
:101CF0006BFB009801990818C10F4018401002B002
:101D000080BD000024206949085C704780B582B01E
:101D10006846FFF759FB009802B080BD0A2063496E
:101D2000085E704706206149085E704780B582B042
:101D30006846FFF749FB019802B080BD0C205B4963
:101D4000085E704708205949085E7047F0B589B0B1
:101D5000FFF744FB2D2105914B20000104900A243C
:101D6000009401900291514E30462830069012277F
:101D700003220392002539462B4600F00DFC009407
:101D8000049801900598029034464C342046394618
:101D9000039A2B4600F000FCFFF740FB07A8FFF773
:101DA00013FB35607560B560B5813046183005733A
:101DB0000898079931617061B561F56135620698DF
:101DC00000F003FC204600F000FC00F03FFB09B0EF
:101DD000F0BDC04610B582B0FFF720FB6846FFF7A4
:101DE000F3FA324C002020606060A060A0812146A0
:101DF000183108730199009A22616161A061E06164
:101E000020622046283000F0E0FB4C34204600F0F1
:101E1000DCFB00F01BFB02B010BDC04670B50D46E8
:101E20000446002812D001200022002C014600DCCC
:101E300011460223F34EF35E012B04DA414005D034
:101E4000002D09D116E010464140F9D1ED48283067
:101E500000F0BBFB002D0DD001200022002D01461B
:101E600000DC11460423E74EF35E012B00DB104635
:101E7000414003D1E3484C3000F0A7FB1320C0439E
:101E8000854200DC05461421142D00DB0D46DD4A99
:101E90009580844203DD142C04DA548070BD04461E
:101EA000142CFADB0C46548070BDC046F40120208F
:101EB000F0B58FB0D34C2078012805D16078401C54
:101EC0006070C0B20A2801D20FB0F0BD0026667063
:101ED0000DA8FFF779FA20690D99216162690E9BBF
:101EE0006361081A0B90E080991A0C9121810221FC
:101EF0000391655E002D33460AD061890AB2D21380
:101F00005140891A89B2132901D8002300E0012326
:101F100004210291615E069100290AD0A1890AB2CA
:101F2000D2135140891A89B2132901D8002600E042
:101F300001260B9801B20A910127012D019503DBBF
:101F40000A99002938460BD401212A460025002A87
:101F5000084600D428460A9A002A00DC2946084090
:101F600004900C990AB2069D012D099702DB002A04
:101F700007970AD401210027002D0D4600D43D46C5
:101F8000002A00DC39460D4007950B9881B24D427E
:101F90004D411D4000279C48012D3946059205D131
:101FA000218B9A4A9142099A06D20A3121838142B1
:101FB00001D83A4600E001220C9989B24D424D41C8
:101FC00035400021012D0F4606D1678B8F4DAF4262
:101FD000099D089505D20A376783874200D90121F8
:101FE0000891049803400021012B0B46099F05D15D
:101FF000A38B864DAB423D4606D20A33A383632BA7
:1020000001D80D4600E00125049507990E400021F6
:10201000012E0D461646059A05D1E58B7B4B9D4258
:102020003B4606D20A35E583632D01D80B4600E016
:1020300001230A99C9130B984840401A80B2002125
:102040001F280D4605D3258C70488542384606D298
:102050000A352584312D01D8084600E00120D1132E
:102060000C9D4D40691A89B200251F29294604D3C9
:10207000618C664A91422ED20A316184312900D99D
:102080000125002E394600D108990029394600D192
:10209000049900293A4600D11A46002A3A4600D14E
:1020A0000246002A384600D12846012824D02420A0
:1020B000205C002831D100260199002949D0204612
:1020C00028300A9A00F089FA0221615E012944DB76
:1020D0004A00163247E0002E394600D108990029FF
:1020E0003946049A00D1114600293A4600D11A46D1
:1020F000002A00D107463A46002B01D10520029064
:1021000008980028039B1AD0002E1BD100291CD050
:10211000002A00D10623242023540020A0816081BE
:10212000A080608020702046283000F04EFA4C34A9
:10213000204600F04AFA00F089F90FB0F0BD032301
:10214000002EE3D001230029E2D1029B002AE1D036
:10215000E1E731463546069B07E0002901D400221D
:1021600001E04A00163A1518A388180417D0082071
:10217000225E20464C3019B200F02FFA0421615E35
:10218000012902DB4A00163205E0002901D40022B1
:1021900001E04A00163A4F424F4116186188682301
:1021A000D843864200DC0646692E00DB6926002201
:1021B0000804104611D0D843854200DC0546692D3D
:1021C00000DB69250A20205EC31E9D42294600DCF3
:1021D0001946C01C854200DC08466081002F0AD1E8
:1021E0000C21625ED31E9E42314600DC1946D21C91
:1021F000964200DC0A46A28100B211B200F04CF90E
:102200000FB0F0BDF40120201F030000F6FF000016
:10221000F0B581B001246603DB4D284631462246E5
:10222000FEF7DAFB210328462246FEF7D5FBA10282
:1022300028462246FEF7D0FBE10228462246FEF75A
:10224000CBFBD24D402128462246FEF7C5FB61025A
:1022500028462246FEF7C0FB284631462246FEF7B6
:10226000BBFB082128462246FEF7B6FBC84F0026D6
:10227000384631463246FEF78BFA0222384631465E
:10228000FEF786FA032238463146FEF781FAC14846
:1022900031463246FEF77CFA802128462246FEF778
:1022A0009BFB01B0F0BDC046F0B58BB00AAF002477
:1022B000BC7008200590388001200790000209902A
:1022C0001920800101900890564884218162832161
:1022D0008163852104910160534854494160544908
:1022E000016010200390FEF7ACF9A94E3046394644
:1022F000FEF756FA08A93046FEF7A8F900943046D2
:102300003746214622462346FEF736FA0225009537
:1023100006953046214622462346FEF72DFA03262F
:1023200000963846214622462346FEF725FA3846CF
:1023300021462246FEF712FA384621462A46FEF783
:102340000DFA3846214632460296FEF707FA38461D
:10235000019D29462246FEF71BFA38462946069A71
:10236000FEF716FA384629463246FEF711FA31488A
:10237000079A82600D2101602F48016811430160B6
:102380000AAFBC7005983880099408952B480499C9
:1023900001602B4825494160254901600398FEF7FB
:1023A00050F97C4E30463946FEF7FAF908A9304616
:1023B000FEF74CF900943046214622462346FEF7AC
:1023C000DBF9304621462246FEF7C8F9304637464B
:1023D00029462246FEF7DCF91A48079A8260026015
:1023E00019480168114301602A480270684E30465E
:1023F00029462246FEF7CCF930462946069AFEF7D2
:10240000C7F930462946029AFEF7C2F938462946EE
:102410002246FEF7BDF9D24880212246FEF7DCFABB
:102420000BB0F0BD3C80424000088640030000B184
:10243000010000260011864004188640E4804240D6
:1024400000888640009186400498864070B5114807
:102450000078012817D1192084014D4E00253046FF
:1024600021462A46FEF794F9022230462146FEF71D
:102470008FF9032230462146FEF78AF94548214666
:102480002A46FEF785F9B64880210022FEF7A4FA15
:1024900070BDC04665022020F0B583B00C46012611
:1024A0000021019102900028354600DA019D710358
:1024B000354800912A46FEF78FFA3103029880B220
:1024C000C70B31483A46FEF787FAB1022E483A4622
:1024D000FEF782FAF1022C482A46FEF77DFA002C1C
:1024E000374600DA019F9E4840213A46FEF774FACB
:1024F0007102A0B2C50B9A4E30462A46FEF76CFA1E
:10250000304600992A46FEF767FA082130463A46D7
:10251000FEF762FA20B2C01321464140081A80B289
:10252000C825C82800D32846C00019218E01371AB3
:1025300017483946019AFEF72BF9029908B2C013E1
:102540004140081A80B2C82800D32846C000351A76
:1025500002220F4E30462946FEF71AF90322304672
:102560003946FEF715F90B482946019AFEF710F98E
:1025700002980443601E8441802179482246FEF778
:102580002BFA03B0F0BDC04600000A4000200A400C
:102590000000864000808640F0B581B0002812D04F
:1025A0000093089B079E069D20270024C4550661C2
:1025B00043618461C46106C0009901600838012D3F
:1025C00000D80125C56001B0F0BD002804D020214D
:1025D000002242548261C261704770B5002809D060
:1025E000891A2022825C03462033002A04D0C26963
:1025F0008A1A02E0002070BD0022C16101241C7013
:1026000083695C1803695E42B442254600DC3546A6
:102610009C4200DC2B46836144685C430368594359
:10262000611883685A438A18C1680446104600F04E
:1026300011FA01466069434299420A4602DD81422D
:1026400003DD70BD1A468142FBDC104670BD000000
:10265000424800787047C046474800787047C046F7
:10266000B0B54148002404603E4804603B48047013
:102670003F4804703F4D2C703F4804700120010416
:10268000B4482246FEF7A8F92C70B0BD394800784E
:102690007047C04610B534480024046031480460D7
:1026A0002E4804703248047033480470012001043D
:1026B000A8482246FEF790F92E48047010BDC04687
:1026C000F0B581B0254A157801242104A148002DD8
:1026D0000FD024480768244E33685B1EBB420AD2E1
:1026E000002434600460147021480470224804708F
:1026F00008E0002407E01D4B9F420BD31E480470E6
:102700000024147093482246FEF766F919480470B5
:1027100001B0F0BD0E46791C01600A21284600F088
:1027200077F9134909780027814201D33A4600E03E
:102730000122632D874800D8144631462246FEF711
:102740004BF90C4804700A4A1078401CC1B20929A0
:1027500000D80746177001B0F0BDC04678022020AF
:1027600000200A40700220207402202030750000F2
:102770007C0220207E0220208002202000201049A0
:10278000085E704770477047B0B50D4C0025258036
:10279000FFF7F8FF605FFFF7F6FFB0BD80B50649B1
:1027A000884200DC08460549884200DB08460449A7
:1027B0000880FFF7E8FF80BDA8E4FFFF581B00007A
:1027C00042012020F0B583B0114E30463830FFF77B
:1027D00049FA08217D2738010A22009201900291CE
:1027E0003046643000240C2522462B46FFF7D4FEE9
:1027F0000320029007480190F8000090304688308E
:10280000062122462B46FFF7C7FE347003B0F0BD09
:1028100090022020400D0300012101408207D20FC9
:1028200051184207D20F51180207D20F5118C20691
:10283000D20F51188206D20F51184206D20F5118EA
:10284000C0094018C0B270477047F0B581B002218E
:1028500001400122024053420624A343002900D034
:102860005B1F0424044000D0DB1E082505402E0712
:10287000F6179B1910260640360900969B1920274B
:10288000074000D0DB1C4026064000D05B1D4908F5
:102890005118A2088918EA088918009A89187A0933
:1028A0008918B209891840B2002804D4080604D156
:1028B000002001B0F0BDDB1D491C58B249B200F048
:1028C000C9F840B201B0F0BDF0B581B00125A9064C
:1028D0001F4E3046FEF778F80446E9063046FEF70C
:1028E00073F8002800D0A41C2E0619483146FEF7C4
:1028F0006BF8002800D0241D6F0615483946FEF7F6
:1029000063F8002800D0083412483146FEF75CF81E
:10291000002801D0102004430E4E30463946FEF701
:1029200053F8002801D020200443A9050848FEF7E9
:102930004BF8002801D04020044329053046FEF71B
:1029400043F8002801D080200443E0B201B0F0BD7C
:1029500000000A4000200A4070B5182101404C4296
:102960004C41FFF759FF032801D3002000E001206C
:10297000044323494A6AC878002815D08B88214E21
:1029800001200025B342034600D32B461E4E921968
:102990001E4EB242024600D32A4613432343DA07AF
:1029A00010D00020488170BD002C15D00B89272B3A
:1029B00015D8581C08817D2084000020A24214DB19
:1029C000024613E04A89062A03D2531C4B81052A8A
:1029D00009D10022CA7070BD0020088170BD7D2021
:1029E0008000824208DA002070BD0122273B5C1E75
:1029F000A341134300D070BD0120C870002070BDFA
:102A000068012020504600006FE5FFFFEBFAFFFF52
:102A100043088B421AD3002203098B4279D3030A5D
:102A20008B425ED3030B8B4242D3030C8B4227D3E2
:102A30000902FF2212BA030C8B4202D312120902BE
:102A400003D0030B8B4233D31AE0D3E0411A804109
:102A5000401C704703460B4371D443088B42F5D3A7
:102A6000002203098B4254D3030A8B4239D3030B50
:102A70008B421DD3030C8B4202D394466EE0090AAD
:102A8000C30B8B4201D3CB03C01A5241830B8B4241
:102A900001D38B03C01A5241430B8B4201D34B032A
:102AA000C01A5241030B8B4201D30B03C01A52418F
:102AB000C30A8B4201D3CB02C01A5241830A8B4214
:102AC00001D38B02C01A5241430A8B4201D34B02FD
:102AD000C01A5241030A8B4201D30B02C01A524161
:102AE000CDD2C3098B4201D3CB01C01A5241830915
:102AF0008B4201D38B01C01A524143098B4201D34F
:102B00004B01C01A524103098B4201D30B01C01A79
:102B10005241C3088B4201D3CB00C01A52418308F3
:102B20008B4201D38B00C01A524143088B4201D320
:102B30004B00C01A5241411A524110007047CA0F4F
:102B400000D04942031000D34042534000229C462B
:102B500003098B422DD3030A8B4212D38901FC2235
:102B600012BA030A8B420CD3890192118B4208D30B
:102B7000890192118B4204D3890137D0921100E070
:102B80008909C3098B4201D3CB01C01A5241830981
:102B90008B4201D38B01C01A524143098B4201D3AE
:102BA0004B01C01A524103098B4201D30B01C01AD9
:102BB0005241C3088B4201D3CB00C01A5241830853
:102BC0008B4201D38B00C01A5241D9D243088B42A9
:102BD00001D34B00C01A5241411A00D20146524162
:102BE000104663465B1000D34042704763465B105B
:102BF00000D3404201B50021004201D0C94308463C
:102C0000C046C04602BD0000282C00000000202065
:102C10000800000020010000302C000008002020E7
:102C2000A804000048010000C10D000000000000E1
:04000005000000C136
:00000001FF
