:020000040000FA
:10000000B80420208D010000910100009301000040
:1000100000000000000000000000000000000000E0
:10002000000000000000000000000000950100003A
:10003000000000000000000097010000810900009E
:100040009B010000BD0700009B0100009B01000018
:100050009B0100009B0100009B0100009B01000030
:10006000000000009B0100009B0100000000000058
:10007000000000009B0100009B0100009B010000AC
:100080009B0100009B0100009B0100009B01000000
:100090009B0100009B010000000000000000000028
:1000A0009B0100009B010000000000000000000018
:1000B0009B010000000000009B0100009B0100006C
:1000C00000F002F800F052F812A030C808382418E6
:1000D0002D18AC4201D100F049F80FCCA246AB4636
:1000E0000CA730CF2D1B083F3F197C427F1E544484
:1000F0002D090426F441641EAC4201D300F036F809
:100100000126334200D0FB1A3343984754465D46DC
:10011000DFE70000842B0000A42B0000000000009B
:10012000103A02D378C878C1FAD8520701D330C840
:1001300030C101D504680C60704700000000000069
:100140007047000000000000002300240025002666
:10015000103A01D378C1FBD8520700D330C100D583
:100160000B6070471FB51FBD10B510BD00F037FA0A
:100170001146FFF7F7FF01F0D5FD00F04FFA03B489
:10018000FFF7F2FF03BC00F055FA000006480047F5
:10019000FEE7FEE7FEE7FEE7FEE7FEE70348044969
:1001A000024A044B70470000C1000000B803202041
:1001B000B8042020B80320204343514330B55C18D5
:1001C000010C130C0D4692B25D4380B251432C19C1
:1001D000054655430A0C09044D1962415843010C68
:1001E00000044019514130BD70B5054610460C461B
:1001F00018430ED000210846891A984127DA0021B9
:100200000846491BA04118DA2846214600F03FF86D
:1002100070BD002C03DA01230022DB0707E0002178
:100220000846491BA04102DA0022D2435308104677
:100230001946C046C0462A4627E000216842A1412F
:1002400000F025F8002440428C4121461AE00021AC
:100250000846491BA0410CDA214600205242984131
:100260000346284600F013F8002440428C41214602
:1002700070BD002052429841002103466842A141CE
:1002800000F005F8002452429C41234670BDFEB5A3
:10029000044610460D46184373D0A6468C460020EF
:1002A000A41A01469D4167D36646002701243D46B6
:1002B000B61A9D4102D313463A4621246546764636
:1002C0002F04360C3E432D0CB61A9D4104D3150C59
:1002D0001B042B4312041034654676462F06360A5B
:1002E0003E432D0AB61A9D4104D3150E1B022B4323
:1002F00012020834654676462F0736093E432D091B
:10030000B61A9D4104D3150F1B012B431201241D66
:1003100065467646AF07B6083E43AD08B61A9D411E
:1003200004D3950F9B002B439200A41C6546764690
:10033000EF0776083E436D08B61A9D411AD392180E
:100340005B41641C16E00018764665464941B71AC1
:100350009D410191009009D36046B11A98418E46A3
:100360008446009801990025401C6941DD07520828
:100370002A435B08641EE6D57246634603B0F0BDAF
:10038000FFE72046284307D00020C0430146C0466F
:10039000C04622462B46F1E700200146F7E701E080
:1003A00004C0091F0429FBD28B0701D50280801CE1
:1003B000C90700D00270704700290BD0C30702D0D4
:1003C0000270401C491E022904D3830702D5028013
:1003D000801C891EE3E70022EEE70022DFE7000031
:1003E000002203098B4273D3030A8B4258D3030BB9
:1003F0008B423CD3030C8B4221D312E003460B43C8
:100400007FD4002243088B4274D303098B425FD30D
:10041000030A8B4244D3030B8B4228D3030C8B4239
:100420000DD30902FF2212BA030C8B4202D312121F
:10043000090265D0030B8B4219D300E0090AC30BF4
:100440008B4201D3CB03C01A5241830B8B4201D3A1
:100450008B03C01A5241430B8B4201D34B03C01A8A
:100460005241030B8B4201D30B03C01A5241C30A02
:100470008B4201D3CB02C01A5241830A8B4201D373
:100480008B02C01A5241430A8B4201D34B02C01A5D
:100490005241030A8B4201D30B02C01A5241CDD202
:1004A000C3098B4201D3CB01C01A524183098B424D
:1004B00001D38B01C01A524143098B4201D34B0136
:1004C000C01A524103098B4201D30B01C01A524199
:1004D000C3088B4201D3CB00C01A524183088B4220
:1004E00001D38B00C01A524143088B4201D34B0009
:1004F000C01A5241411A00D201465241104670477B
:100500005DE0CA0F00D04942031000D3404253407F
:100510009C46002203098B422DD3030A8B4212D33F
:100520008901FC2212BA030A8B420CD38901921171
:100530008B4208D3890192118B4204D389013AD0AE
:10054000921100E08909C3098B4201D3CB01C01A83
:10055000524183098B4201D38B01C01A5241430996
:100560008B4201D34B01C01A524103098B4201D384
:100570000B01C01A5241C3088B4201D3CB00C01AF1
:10058000524183088B4201D38B00C01A5241D9D209
:1005900043088B4201D34B00C01A5241411A00D28A
:1005A00001465241104663465B1001D34042002B86
:1005B00000D54942704763465B1000D3404201B505
:1005C0000449002802DC491C084000E00846C046F7
:1005D000C04602BDFFFFFF7F7047704770477546FA
:1005E00000F024F8AE46050069465346C008C00036
:1005F000854618B020B5FFF7D1FD60BCB646002691
:100600000027C0C5C0C5C0C5C0C5C0C5C0C5C0C520
:10061000C0C5403D490849008D46704710B50446A5
:10062000C046C0462046FFF7AAFD10BD00487047EF
:100630000800202001491820ABBEFEE7260002007A
:100640007047811E091F00BFFCD27047F0B53C4ABD
:1006500082183C4BC31808794E793B4D3B4C002E19
:1006600023D0202804D00526F601002803D003E07B
:10067000374E002800D18826576F2F4037435767E1
:10068000976F2F4037439767566B26405663966B9C
:10069000264096630026566596658F26F6435F686A
:1006A00037405F609F6837409F608E7909682028D7
:1006B0000BD0002819D1491E5160D76E2F408821D8
:1006C0000F43D7661746703719E0491E5160D16E47
:1006D00029401F4F3943D166116F294039431167B3
:1006E000012149071B4D174609E049085160D76EA3
:1006F0002F400521C9010F43D766174670373C6864
:100700002C400C433C60D16A104C2140D162116BEB
:10071000214011630021D16411658F21C943D46F39
:100720000C40D4671C680C401C600643BD20304060
:100730001168094B0B40C018801C1060F0BDC0460A
:10074000041800008418000024493E008888FDFF3A
:1007500001040000FFFFFFCF4000FFCF10B50723CB
:100760009B04194092008018024A84589C436118E7
:10077000815010BD3018000010B5029CA400001973
:1007800011431943014A815010BDC0465018000062
:1007900092008018014A81507047C046101800002E
:1007A00010B50122120383180C789C604B7883509B
:1007B0008978014A815010BD0C110000F0B581B05C
:1007C000204801461039096801256C051E4B1A4660
:1007D000103A176827400022D643090203D4002F9D
:1007E0001AD101B0F0BDE90502680A4302607548FC
:1007F00000F0EAF800960646E906724800F0E4F8D0
:100800007040009E304600D1284610490A68801882
:1008100008600D4B002FE4D018682043186076481C
:10082000214600F0D1F804460125A905654800F0ED
:10083000CBF8604000D13546054801686918016071
:1008400001B0F0BD48300A4048100A40F0012020B5
:100850008C02202010B5234A8120D06222490860F2
:10086000224BCB641060224C9466D4665465946528
:100870009463D464D465D4639364536653635364BC
:100880009060506008654865C86588654866086678
:10089000106608674867C863886316481649016090
:1008A000016303208102154A13680B431360012181
:1008B0004A05134B1C6A14431C621C6814431C60D9
:1008C000104A114B136013638003104A13680343EB
:1008D0001360C8050E490A6A02430A620A680243A5
:1008E0000A6010BD848042400480424081000E00B6
:1008F00081000C00A0120A40013C0000A0130A4035
:1009000028100A40A0320A40CC330504A0330A4024
:1009100028300A4009480021016009480146083989
:100920000A6803239A430A60016801229143016027
:10093000110202688A4302607047C04608030B40F8
:1009400008010B4080B500F005F8FFF783FFFFF7C3
:10095000E1FF80BD80B5064806494160064A516006
:100960000649016011601020FFF76BFE80BDC04694
:1009700000080A40030000B100280A4001000026D8
:1009800008480168491C016007480178072903D815
:100990000178491C0170704704480168491C0160D6
:1009A0007047C0468C032020740220207002202053
:1009B0001049002800D1103101208004014A8850DC
:1009C0007047C04600200A402722D20180580840C4
:1009D000411E884170470000064B002A00D11033A9
:1009E000C15070470349002800D11031024801224C
:1009F0000A5070479012000000000A4070B5064C83
:100A000001252560484E7D200002FFF71AFE761C66
:100A1000F9D3256170BDC04690120A400120400202
:100A200002490968014048424841704780130A4022
:100A30000020B249085E7047A5480068AD49884269
:100A400000DC0846AC49884200DB08467047C046D7
:100A50000020A749085E70479C480068A549884265
:100A600000DC0846A449884200DB08467047C046BF
:100A700010B584B0044601A800F054F9002803D151
:100A80000020C04304B010BD0298201A04B010BD6D
:100A900080B58C4900200870934908708A49087015
:100AA000904908708C4908708A490860904908800C
:100AB00087490860854908608C4908608F4908802B
:100AC0009349088001F0A6FE80BDC0467D480078AD
:100AD0007047C04680B50146844A00201060824AB3
:100AE0001170002903D18A49088001F09DFE80BD64
:100AF0007E4900220A600C49884200DC08467D21BC
:100B0000C900884200DB08467949088070490968B5
:100B1000401A7849884200DC08467749884200DB61
:100B2000084676490880704718FCFFFFF0B589B089
:100B30000C46054606A800F0F5F800285CD006A88B
:100B40008078012100263B28084600D83046079FC0
:100B5000EA1B652A00D3314608405A49087001282B
:100B60005CD10594584801780126002948D059489D
:100B7000006806A9CC78584909788C4201D187428F
:100B80004BD03A1A1423642A194600D811468742DA
:100B900000D00B4601934D48016802911846484326
:100BA0007D21CD00294601F09BFF002106AA515E60
:100BB000474A126880180490081A03904543019828
:100BC000C100284601F08CFF029940184349884231
:100BD00000DC08464249884200DB08463B49086081
:100BE000032003994843C117890F401880100499C6
:100BF0004018374908600CE03248002606700DE0C6
:100C0000324900220A60067006A8815E304A1160EF
:100C1000C4783048076030480470059C3149087832
:100C2000401C0870C0B20A284AD3002008702E4920
:100C300009780E40012E3CD123490978002938D08B
:100C400000202B49085E22490968421A294882423D
:100C500000DC024626462848824200DB024627483E
:100C600002800A210B465343204804681B19244C78
:100C7000A34200DC2346234CA34200DB234603604F
:100C8000CD20504301F02CFF0546104801684B2051
:100C900048430921C94301F023FFF10069180818EE
:100CA0001949884200DC08461849884203DB084697
:100CB00001E00E4908601649088000B201F0B4FD59
:100CC00009B0F0BD9C002020A6002020BC00202000
:100CD000B8002020B0002020AC00202078ECFFFFDE
:100CE00088130000A800202098002020C0002020A9
:100CF000B40020200080FFFFFF7F0000A000202024
:100D0000C0F2FCFF400D0300A8E4FFFF581B0000E9
:100D1000A40020201748C0697047C0461548806964
:100D20007047C04610B5002815D0124A137AD9076B
:100D3000FCD151890180117B8170517BC170116997
:100D40004160117D0172147AA342EFD101231C404E
:100D5000ECD1084610BD002010BDC046054800215A
:100D60000172418101734173016101758161C1713A
:100D7000C16170479803202010B50024204600F080
:100D8000E3FF01F08BFA0448846384864486C481BF
:100D900084800621017010BD68012020F0B58BB061
:100DA00001460020002964D07F2293021F680F6053
:100DB0005D684D609A688A60DC680094CC601C694C
:100DC00001940C615C6902944C619E698E61DC69DE
:100DD0000394CC611C6A04940C625C6A05944C62B6
:100DE0009C6A06948C62DC6A0794CC621C6B089443
:100DF0000C635C6B09944C639C6B8C63DB6B0A9398
:100E0000CB631D49794001236B400B4307214C40C4
:100E10001C43631E9C4173427341234329D11748ED
:100E2000424017484243009B5A404243019B5A406C
:100E30004243029B5A40424372404243039B5A4002
:100E40004243049B5A404243059B5A404243069BFF
:100E50005A404243079B5A404243089B5A404243F0
:100E6000099B5A4042434A4042430A98811A4842E9
:100E700048410BB0F0BDC046314C4143A766714BB1
:100E800093010001F0B581B02A4D2846FFF786FF97
:100E9000294F387029490870DA4E30461030002446
:100EA000214600F017FF01F045FA01F01FFC00F0A9
:100EB00093FF01F0CDFC00F0DDFBD348022101706F
:100EC000D24804803878002800D0A86800F0ECF9F7
:100ED00001F002FB2046FFF76BFDFFF78FFDF08B63
:100EE000E0490880308CE04908802220305CE949E4
:100EF00008702320305CE8490870F07C10490870C5
:100F0000307D10490870706AB16A0F4A10600F484E
:100F10000160B08DD549088001F0E0FBDF49087021
:100F200001F0FAFBDE49087001F0DCFBDD490870D6
:100F300001B0F0BD4803202088032020400120207C
:100F4000EE012020ED0120206401202060012020FE
:100F5000F0B581B0FFF762FD064601F0FBFC0746E5
:100F600001F0B8FC054600F019FA0446A1480670E5
:100F7000A1480770A1480570284601F093FCA049DC
:100F80000870A048807900281CD127469E48047824
:100F900000F06CFB844203D09B48007800F094FB87
:100FA00000F064FB06283C460CD198480488FFF703
:100FB0004FFD80B284423C4604D000209349085E35
:100FC00000F06AFB002E15D08E4F38881D2803D8FC
:100FD000411C39801D2811D1387900280ED10120FB
:100FE0003871B879012836D100203881B87100F005
:100FF00001FC03E00020834F3871388020462946E9
:1010000000F00AFC00F02EFB0646C01F022802D2A8
:101010000020B87100E0B8797D49087001252840AA
:10102000FFF7C6FC072E3ED0082E10D100F006FBBD
:10103000002509281DD801267844007940008744FE
:101040003218181818181D041A1C022616E0FFF78B
:101050003DFD054627E001F07DFC01F03BFC064626
:1010600001F03AFA00F09AF9314600F051FBB871FC
:10107000C4E7052602E0032600E004266549204671
:10108000FFF7AEF988B28008634A4243500D8642AA
:1010900009D94B2292004243881A80B2962801D384
:1010A000002500E001252846FFF79CFC00F0DEFA51
:1010B0005A49087000F0D6FA5949087000F0BEFA93
:1010C00058490870204600F0A9FA5749086000F016
:1010D000C1FA5649086000F09DFA5549086000F0D1
:1010E000BDFA5449088000F091FA53490860FFF7AF
:1010F000AFFC52490880FFF79FFC51490880FFF779
:10110000ABFC50490880FFF793FC4F49088001F081
:101110007BFB4E490880FFF7D9FC4D4908702046FB
:10112000FFF7A6FC4B490860FFF7F8FD4A49086045
:10113000FFF7F0FD4949086000F00CF948490860E4
:1011400000F084FA4749088047480024048000F0F2
:1011500079FA4649088000F01FFE4549086000F012
:101160002BFE4449086000F023FE434D288000F028
:101170002FFE424E3080285F00F0CAF840490860D8
:10118000305F00F0C5F83F49086000F00DFE3E4DAD
:10119000288000F019FE3D4C208000F0F9FD3C490C
:1011A0000870288801B2C9134840401A81B2C8208B
:1011B000C82900D30146374A117021880AB2D213D8
:1011C0005140891A89B2C82900D3014632480170BA
:1011D00001F0A6FA01F0BAFA01F080FA2F4908707E
:1011E00001F09AFA2E49087001F07CFA2D49087036
:1011F00001B0F0BD4403202096032020910320205D
:101200009003202068002020D0012020CE01202043
:10121000F8012020B80B00003B6D0000DD0120200C
:10122000DC012020CC012020C8012020D401202076
:10123000C4012020DA012020B8012020C001202094
:10124000BE012020C2012020BC012020D801202086
:10125000EC012020E0012020E8012020E4012020F2
:101260009402202094032020920320205C0120205F
:10127000440120205001202048012020540120203A
:101280004C01202058012020F6012020920220202D
:101290006C022020F40120209002202089022020CE
:1012A0008A0220208B022020B0B50446074D284634
:1012B0003C304021FFF791F8601C686428461030EC
:1012C00000F016FD002068602880B0BDC40020201A
:1012D000F0B581B00546C1171C4A00242346FEF72D
:1012E0006BFF1B4A1268D30FD318DF175E107342CF
:1012F000BC41002D00D43C46002D00D433461818C4
:101300004C41D3172146FEF76FFF01B0F0BDC04638
:10131000F0B581B00546C1170C4A00242346FEF7FC
:101320004BFF0B4A13680A225A43D31757107E42C9
:101330009C41002D00D41C46002D00D43E463018A0
:101340004C412146FEF750FF01B0F0BD40420F0076
:10135000000020200D4800687047C04610B51949AC
:10136000002008700F490860084908600849094AC8
:101370004A60FF221206084B1C689443032292071E
:10138000A2181A6088600720086010BD7002202033
:1013900010E000E0FF7C000020ED00E00148006864
:1013A0007047C0468C032020EFF3108072B60549C9
:1013B0000878002802D00A78521E0A70411E88411F
:1013C00062B6704774022020EFF3108172B618499C
:1013D0000968184A126806C062B67047EFF31080B9
:1013E00072B61348002101601248016062B6012004
:1013F000C105074A13680B431360400505490A6895
:1014000002430A6004480221016001607047C0463F
:1014100048300A4048100A4000E100E0EFF3108035
:1014200072B60348002101600248016062B670474D
:10143000F00120208C022020B0B50446002528466B
:1014400000F082FC01F048F8E94885634470C581EA
:10145000858008210170B0BD70B500280DD01346FD
:101460000479012C0ED10AB2D2130C465440A21AB0
:1014700014B2012C0BDC00241EE00020014600F019
:1014800013FD70BD44882C2C03D8002602E0541EA6
:1014900012E00126551EAB4103290D4600DB032552
:1014A0003340632C00D80D469A4029B2C9132B460D
:1014B0004B405C1A29461346008AC01800B222B27B
:1014C000904203DC5442A04200DB0446081B00B2F9
:1014D000611809B200F0E8FC70BD002809D00021B5
:1014E000C180017141800170018141818181C1818F
:1014F00001827047002809D00021C180017141801C
:101500000170018141818181C181018270470000A8
:10151000F0B581B0002875D003785B1C0370DBB296
:10152000052B6FD300260670374C002945D0154691
:101530000746084601F0CFF90146384601223A71C4
:101540007E800A22BB5E0AB29200E61FB6B2491F35
:1015500089B2B142114603D3D118CE0F891949106F
:10156000002B00D00A46428111B2890F511809B2EE
:101570008910C1808289818101818A1A12B2032374
:10158000DE43B24200DC3246042A00DB0422C28180
:10159000002D00D0082359436B1E9D416A43520021
:1015A0005218172A1DDC1621C9438A4221461DDB29
:1015B000D117490F5118C90818E006714188E21E79
:1015C00092B2914207D2C6814A1D42800289C280EE
:1015D000272903D809E0C6810289C28011B20029F7
:1015E00001DD022102E0214600D4018A1022825E40
:1015F00009B2914201DD012102E0914202DA611C4F
:101600005118018201B0F0BDFEFF00008148806BDF
:101610007047C0467F48C06A7047C0467D4A116A1D
:10162000002901D0084670471178002903D0D169FC
:10163000411A0846704700207047C04675484078F8
:101640007047C0464C207349085E7047422071497C
:10165000085E70476F48006A7047C04632206D4987
:10166000085E70476B4800787047C04669488078CC
:101670007047C04610B56748002404860221817077
:1016800004803C30FFF729FFFFF768FBFFF700FA03
:101690002046FFF71FFA10BD10B57D21CA00821841
:1016A00094B209018C4206D85A49088689780629DD
:1016B00001D1FFF71DFA0348844201D3002010BD79
:1016C000012010BDD1070000B0B5821E0021042A00
:1016D0001CD8504A1378082B18D8012425469D4061
:1016E000FF2382331D4211D09070C11E032901D205
:1016F000002002E0062805D1108E00B2FFF7F8F9AD
:10170000204600E00020FFF7E5F921460846B0BD7D
:10171000F0B581B00C463F4EB578A91E05292DD2F3
:101720000027B7867786F762F06137627770F01C22
:101730000D21FEF750FEB77677617782E1204000F9
:10174000022D009000D1B4203082B76374763476D5
:1017500030463C30FFF7CEFEB578032D10D1FFF7B1
:10176000B5F9002819D001242046FFF7B3F90098F5
:101770003230FFF7BDF92046022414E001200FE0CB
:10178000002C0CD0032D04D3FFF7A0F9002804D0BF
:10179000B578062D0DD038460CE0032000E002207D
:1017A0007070002008240021F181B180347001B0F4
:1017B000F0BD308EFE242C40042C00D0074638B2F9
:1017C000FFF796F9201F41424141AA1F5042504164
:1017D0000843FFF77FF900F043FB0124204600F0A7
:1017E000B3FA00F0C7FA7062B0622046DBE7C04689
:1017F0006801202010B50024204600F0A5FA00F072
:101800006BFE0448846384864486C48184800470AB
:1018100010BDC04668012020F0B587B0FA4F3A7875
:10182000082A0AD801239340FF248234234204D09B
:101830000021FFF77BF907B0F0BDBB885B1CBB80C4
:10184000931E032B33D2002405462146FFF76EF981
:10185000FFF73CF9002843D0BC813878042800D138
:10186000CBE0032800D1B2E0294602284CD1FFF793
:10187000DFF8294602B2D2135040801A80B23228D3
:1018800041D8FFF7E9F8294602B2D2135040801A36
:1018900080B2C82837D8F889401CF88180B27828EF
:1018A00032D3F548FFF724F92946032629E0062A12
:1018B00040D1002405462146FFF738F9B88878283A
:1018C00000D27AE100F008FE386A002802D1F869F7
:1018D000281A3862FC81BC800720387007B0F0BD40
:1018E000B889401CB88180B2962829460CD320467E
:1018F00000F02AFA00F0F0FD2946BC63042078705D
:101900000826BC803E70FC81F869081ADB498842D1
:1019100000D252E13878072800D14EE1204600F08D
:1019200013FA00F0D9FDBC63D5483880FC81BC8037
:1019300007B0F0BD06900C4600F01CFA796A0490DE
:10194000401AC1174840401AFFF7C2FC05467D20E7
:10195000C1002846039101F0C3F82146F8623C7E9D
:1019600039767B7E7C76012600220592C54A954217
:10197000324600DC059AC44D4019C44DA84200D33C
:10198000059E32431846204023430B400343DDB2FB
:101990003C463C3420462946FFF7BAFD002D4ED088
:1019A0000020F880BA78032A60D3FFF78FF8002868
:1019B00052D00020B881FFF73FF801B2C913484068
:1019C000401A80B2B34988424FD905267CE0FFF720
:1019D0002FF8294602B2D2135040801A80B2322822
:1019E00092D8FFF739F8294602B2D2135040801A34
:1019F00080B2C92888D2042683E7FFF719F801B21C
:101A0000C9134840401A80B20326322822D8FFF773
:101A100023F801B2C9134840401A80B2C8282946A9
:101A200000D96EE7F889401CF88180B280084B2805
:101A300000D269E7F869081A3862072661E7F88872
:101A400093494A1C062690423ED2421CFA808842A4
:101A5000A8D139E0294654E7B8890426952833D817
:101A6000411CB9819528A6D12EE0BA78F96906986B
:101A7000411A921ED2B2022A03D8920087A39A5822
:101A800000E0854A91421ED23A78082A00D1CFE67A
:101A90000295F96A01230026834DA942059300DCD3
:101AA00005960196784E8919784EB14200D3019B74
:101AB000052A029D16D10222BA867B8E19B2914266
:101AC0001FDC3C261EE008260024204600F03CF9DE
:101AD00000F002FDBC637E70FC81BC800820387081
:101AE0000698A5E6059919430B464021795C002923
:101AF00015D0002B21D00021B976796179820A2294
:101B0000DAE71E26934203D10021B963398242E00D
:101B10003B8A9E420BD9591C3982B96B3BE00021AC
:101B200079617982F98F63291BD90322C4E70020E8
:101B3000388291421ADBC04319E04221795A0AB235
:101B4000D2135140891A0AB20021052A67DBF982B3
:101B50007982B98A0E296CD84A1CBA820E2968D0BB
:101B600069E0B97EC9076BD112226AE001204018F2
:101B700078860846FFF7CCFB05903220385EFFF7E9
:101B8000C7FB0599411A03984843314600F0A8FF66
:101B90000146B8630698FEF7C9FF3220395E002679
:101BA00020463246FFF758FC00F0C8F900F0F0F884
:101BB000002804D00720FFF73FFC07B0F0BD3878BD
:101BC00005280ED1B86A0499081AC1174840401A6E
:101BD000FFF77EFB37498842EFDBFFF7CDF807B010
:101BE000F0BDB878042811D1F86A304988420DDB7D
:101BF0000498B862FE81BE8005203870F9690698A5
:101C0000401A386207B0F0BD68012020284600F075
:101C1000E9FE00281CD0B8780228DED0E8E7032AC5
:101C20001CDB7961798A272903D84A1C7A82272903
:101C300001D10121B976B97E002907D112223BE7F3
:101C40000B22002B00D137E70A2235E70B2233E7BE
:101C5000F86A17498842B0DB0920ACE7B98279827B
:101C6000022A01D1F982E6E7FA8A952AE2D8531CC2
:101C7000FB82952ADED0DEE70CFEFFFF8813000012
:101C8000080800004768400082FBFFFF17080000BB
:101C9000570200004C040000B8880000C0D40100C6
:101CA00088130000102700007C100000DC050000F5
:101CB000911A0000A08601000448812101600120E2
:101CC00000020349086008647047C0464C804240E7
:101CD00090120A4000280AD000220171C17082705F
:101CE00002808260C26002614261826182837047C9
:101CF00070B584B0002813D004215022082300932B
:101D000001920291044608340025064620462A46E0
:101D10002B4600F087FC35607560204600F09BFC88
:101D200004B070BDFEF70EFEFFF7C6FFFFF7AAF87E
:101D3000FFF714FB00E030BFFFF736FB0028FAD0B6
:101D4000FFF706F9F8E7000010B57B4C207000287B
:101D50000ED10020A0816081A080608020462830C4
:101D600000F079FC4C34204600F075FC00F0B4FB28
:101D700010BDC04680B582B06846FFF725FB0098CD
:101D800001990818C10F4018401002B080BD000032
:101D900024206949085C704780B582B06846FFF727
:101DA00013FB009802B080BD0A206349085E7047AB
:101DB00006206149085E704780B582B06846FFF72B
:101DC00003FB019802B080BD0C205B49085E7047A0
:101DD00008205949085E7047F0B589B0FFF7FEFA50
:101DE0002D2105914B20000104900A2400940190BC
:101DF0000291514E3046283006901227032203925A
:101E0000002539462B4600F00DFC00940498019003
:101E10000598029034464C3420463946039A2B46A6
:101E200000F000FCFFF7FAFA07A8FFF7CDFA3560DB
:101E30007560B560B581304618300573089807990C
:101E400031617061B561F5613562069800F003FC9F
:101E5000204600F000FC00F03FFB09B0F0BDC0469A
:101E600010B582B0FFF7DAFA6846FFF7ADFA324CE8
:101E7000002020606060A060A081214618310873B6
:101E80000199009A22616161A061E06120622046AF
:101E9000283000F0E0FB4C34204600F0DCFB00F082
:101EA0001BFB02B010BDC04670B50D4604460028AD
:101EB00012D001200022002C014600DC1146022332
:101EC000F34EF35E012B04DA414005D0002D09D119
:101ED00016E010464140F9D1ED48283000F0BBFB38
:101EE000002D0DD001200022002D014600DC1146FE
:101EF0000423E74EF35E012B00DB1046414003D183
:101F0000E3484C3000F0A7FB1320C043854200DCBF
:101F100005461421142D00DB0D46DD4A95808442D0
:101F200003DD142C04DA548070BD0446142CFADB53
:101F30000C46548070BDC046FC012020F0B58FB027
:101F4000D34C2078012805D16078401C6070C0B265
:101F50000A2801D20FB0F0BD002666700DA8FFF769
:101F600033FA20690D99216162690E9B6361081A39
:101F70000B90E080991A0C91218102210391655EFA
:101F8000002D33460AD061890AB2D2135140891A12
:101F900089B2132901D8002300E001230421029112
:101FA000615E069100290AD0A1890AB2D21351407C
:101FB000891A89B2132901D8002600E001260B985E
:101FC00001B20A910127012D019503DB0A9900292D
:101FD00038460BD401212A460025002A084600D4A1
:101FE00028460A9A002A00DC2946084004900C99E9
:101FF0000AB2069D012D099702DB002A07970AD431
:1020000001210027002D0D4600D43D46002A00DCAA
:1020100039460D4007950B9881B24D424D411D4008
:1020200000279C48012D3946059205D1218B9A4AFB
:102030009142099A06D20A312183814201D83A4657
:1020400000E001220C9989B24D424D4135400021FA
:10205000012D0F4606D1678B8F4DAF42099D089524
:1020600005D20A376783874200D901210891049875
:1020700003400021012B0B46099F05D1A38B864D00
:10208000AB423D4606D20A33A383632B01D80D46EB
:1020900000E00125049507990E400021012E0D4610
:1020A0001646059A05D1E58B7B4B9D423B4606D2F1
:1020B0000A35E583632D01D80B4600E001230A9918
:1020C000C9130B984840401A80B200211F280D46C2
:1020D00005D3258C70488542384606D20A352584BA
:1020E000312D01D8084600E00120D1130C9D4D4050
:1020F000691A89B200251F29294604D3618C664AD2
:1021000091422ED20A316184312900D90125002E55
:10211000394600D108990029394600D1049900298F
:102120003A4600D11A46002A3A4600D10246002A11
:10213000384600D12846012824D02420205C0028DD
:1021400031D100260199002949D0204628300A9A29
:1021500000F089FA0221615E012944DB4A0016324F
:1021600047E0002E394600D1089900293946049AE3
:1021700000D1114600293A4600D11A46002A00D162
:1021800007463A46002B01D1052002900898002806
:10219000039B1AD0002E1BD100291CD0002A00D18D
:1021A0000623242023540020A0816081A080608029
:1021B00020702046283000F04EFA4C34204600F0C3
:1021C0004AFA00F089F90FB0F0BD0323002EE3D0E6
:1021D00001230029E2D1029B002AE1D0E1E7314648
:1021E0003546069B07E0002901D4002201E04A00A1
:1021F000163A1518A388180417D00820225E204626
:102200004C3019B200F02FFA0421615E012902DB83
:102210004A00163205E0002901D4002201E04A00FC
:10222000163A4F424F41161861886823D8438642B8
:1022300000DC0646692E00DB6926002208041046F1
:1022400011D0D843854200DC0546692D00DB6925A5
:102250000A20205EC31E9D42294600DC1946C01C90
:10226000854200DC08466081002F0AD10C21625EA5
:10227000D31E9E42314600DC1946D21C964200DC39
:102280000A46A28100B211B200F04CF90FB0F0BDC5
:10229000FC0120201F030000F6FF0000F0B581B014
:1022A00001246603DB4D284631462246FEF794FBA7
:1022B000210328462246FEF78FFBA102284622462C
:1022C000FEF78AFBE10228462246FEF785FBD24D47
:1022D000402128462246FEF77FFB6102284622461F
:1022E000FEF77AFB284631462246FEF775FB0821A9
:1022F00028462246FEF770FBC84F00263846314676
:102300003246FEF745FA022238463146FEF740FAD9
:10231000032238463146FEF73BFAC1483146324681
:10232000FEF736FA802128462246FEF755FB01B01B
:10233000F0BDC046F0B58BB00AAF0024BC700820D9
:102340000590388001200790000209901920800133
:102350000190089056488421816283218163852100
:102360000491016053485449416054490160102070
:102370000390FEF766F9A94E30463946FEF710FA8B
:1023800008A93046FEF762F90094304637462146E8
:1023900022462346FEF7F0F90225009506953046C1
:1023A000214622462346FEF7E7F9032600963846E3
:1023B000214622462346FEF7DFF9384621462246CB
:1023C000FEF7CCF9384621462A46FEF7C7F93846CB
:1023D000214632460296FEF7C1F93846019D29464C
:1023E0002246FEF7D5F938462946069AFEF7D0F977
:1023F000384629463246FEF7CBF93148079A8260C3
:102400000D2101602F480168114301600AAFBC70C3
:1024100005983880099408952B48049901602B4849
:1024200025494160254901600398FEF70AF97C4E71
:1024300030463946FEF7B4F908A93046FEF706F9EA
:1024400000943046214622462346FEF795F9304651
:1024500021462246FEF782F9304637462946224673
:10246000FEF796F91A48079A8260026019480168D7
:10247000114301602A480270684E304629462246C0
:10248000FEF786F930462946069AFEF781F930466E
:102490002946029AFEF77CF9384629462246FEF77D
:1024A00077F9D24880212246FEF796FA0BB0F0BDAC
:1024B0003C80424000088640030000B10100002635
:1024C0000011864004188640E4804240008886401F
:1024D000009186400498864070B511480078012824
:1024E00017D1192084014D4E0025304621462A4639
:1024F000FEF74EF9022230462146FEF749F9032243
:1025000030462146FEF744F9454821462A46FEF763
:102510003FF9B64880210022FEF75EFA70BDC04642
:102520006D022020F0B583B00C46012600210191F8
:1025300002900028354600DA019D7103354800916C
:102540002A46FEF749FA3103029880B2C70B314898
:102550003A46FEF741FAB1022E483A46FEF73CFAF7
:10256000F1022C482A46FEF737FA002C374600DAEB
:10257000019F9E4840213A46FEF72EFA7102A0B212
:10258000C50B9A4E30462A46FEF726FA3046009989
:102590002A46FEF721FA082130463A46FEF71CFA91
:1025A00020B2C01321464140081A80B2C825C8286D
:1025B00000D32846C00019218E01371A1748394622
:1025C000019AFEF7E5F8029908B2C0134140081AD3
:1025D00080B2C82800D32846C000351A02220F4E08
:1025E00030462946FEF7D4F8032230463946FEF736
:1025F000CFF80B482946019AFEF7CAF8029804431F
:10260000601E8441802179482246FEF7E5F903B037
:10261000F0BDC04600000A4000200A40000086408D
:1026200000808640F0B581B0002812D00093089B4E
:10263000079E069D20270024C455066143618461DE
:10264000C46106C0009901600838012D00D8012539
:10265000C56001B0F0BD002804D020210022425402
:102660008261C261704770B5002809D0891A2022A2
:10267000825C03462033002A04D0C2698A1A02E031
:10268000002070BD0022C16101241C7083695C18A8
:1026900003695E42B442254600DC35469C4200DCBC
:1026A0002B46836144685C4303685943611883681F
:1026B0005A438A18C1680446104600F011FA0146D0
:1026C0006069434299420A4602DD814203DD70BDE2
:1026D0001A468142FBDC104670BD0000424800787B
:1026E0007047C046474800787047C046B0B541487B
:1026F000002404603E4804603B4804703F48047076
:102700003F4D2C703F48047001200104B44822461C
:10271000FEF762F92C70B0BD394800787047C046AA
:1027200010B5344800240460314804602E48047019
:10273000324804703348047001200104A84822463E
:10274000FEF74AF92E48047010BDC046F0B581B0BE
:10275000254A157801242104A148002D0FD02448D2
:102760000768244E33685B1EBB420AD200243460E3
:1027700004601470214804702248047008E00024AA
:1027800007E01D4B9F420BD31E48047000241470B9
:1027900093482246FEF720F91948047001B0F0BDB5
:1027A0000E46791C01600A21284600F077F913498A
:1027B00009780027814201D33A4600E00122632DC7
:1027C000874800D8144631462246FEF705F90C48E2
:1027D00004700A4A1078401CC1B2092900D8074683
:1027E000177001B0F0BDC0468002202000200A40D2
:1027F000780220207C0220203075000084022020F6
:10280000860220208802202000201049085E7047A0
:1028100070477047B0B50D4C00252580FFF7F8FFD5
:10282000605FFFF7F6FFB0BD80B50649884200DC67
:1028300008460549884200DB084604490880FFF73E
:10284000E8FF80BDA8E4FFFF581B000042012020E4
:10285000F0B583B0114E30463830FFF749FA082101
:102860007D2738010A22009201900291304664309F
:1028700000240C2522462B46FFF7D4FE03200290AD
:1028800007480190F8000090304688300621224623
:102890002B46FFF7C7FE347003B0F0BD980220202E
:1028A000400D0300012101408207D20F5118420759
:1028B000D20F51180207D20F5118C206D20F511869
:1028C0008206D20F51184206D20F5118C009401883
:1028D000C0B270477047F0B581B0022101400122BB
:1028E000024053420624A343002900D05B1F042466
:1028F000044000D0DB1E082505402E07F6179B1963
:1029000010260640360900969B192027074000D064
:10291000DB1C4026064000D05B1D49085118A20868
:102920008918EA088918009A89187A098918B20959
:10293000891840B2002804D4080604D1002001B050
:10294000F0BDDB1D491C58B249B200F0C9F840B2D5
:1029500001B0F0BDF0B581B00125A9061F4E30468B
:10296000FEF732F80446E9063046FEF72DF8002857
:1029700000D0A41C2E0619483146FEF725F8002881
:1029800000D0241D6F0615483946FEF71DF80028B3
:1029900000D0083412483146FEF716F8002801D05E
:1029A000102004430E4E30463946FEF70DF800283D
:1029B00001D020200443A9050848FEF705F80028A7
:1029C00001D04020044329053046FDF7FDFF0028D3
:1029D00001D080200443E0B201B0F0BD00000A4005
:1029E00000200A4070B5182101404C424C41FFF7CD
:1029F00059FF042801D3002000E0012004432349AB
:102A0000CA6AC878002815D08B88214E012000257D
:102A1000B342034600D32B461E4E92191E4EB242BD
:102A2000024600D32A4613432343DA0710D000207E
:102A3000488170BD002C15D00B89272B15D8581C48
:102A400008817D2084000020A24214DB024613E0AE
:102A50004A89062A03D2531C4B81052A09D1002238
:102A6000CA7070BD0020088170BD7D208000824248
:102A700008DA002070BD0122273B5C1EA3411343EE
:102A800000D070BD0120C870002070BD68012020FA
:102A9000504600006FE5FFFF17FCFFFF43088B4225
:102AA0001AD3002203098B4279D3030A8B425ED3E7
:102AB000030B8B4242D3030C8B4227D30902FF2224
:102AC00012BA030C8B4202D31212090203D0030B79
:102AD0008B4233D31AE0D3E0411A8041401C704747
:102AE00003460B4371D443088B42F5D300220309FC
:102AF0008B4254D3030A8B4239D3030B8B421DD331
:102B0000030C8B4202D394466EE0090AC30B8B423E
:102B100001D3CB03C01A5241830B8B4201D38B03E9
:102B2000C01A5241430B8B4201D34B03C01A52418E
:102B3000030B8B4201D30B03C01A5241C30A8B42D1
:102B400001D3CB02C01A5241830A8B4201D38B02BC
:102B5000C01A5241430A8B4201D34B02C01A524160
:102B6000030A8B4201D30B02C01A5241CDD2C309D2
:102B70008B4201D3CB01C01A524183098B4201D34E
:102B80008B01C01A524143098B4201D34B01C01A39
:102B9000524103098B4201D30B01C01A5241C308B1
:102BA0008B4201D3CB00C01A524183088B4201D320
:102BB0008B00C01A524143088B4201D34B00C01A0C
:102BC0005241411A524110007047CA0F00D0494289
:102BD000031000D34042534000229C4603098B421D
:102BE0002DD3030A8B4212D38901FC2212BA030AA5
:102BF0008B420CD3890192118B4208D38901921127
:102C00008B4204D3890137D0921100E08909C309AE
:102C10008B4201D3CB01C01A524183098B4201D3AD
:102C20008B01C01A524143098B4201D34B01C01A98
:102C3000524103098B4201D30B01C01A5241C30810
:102C40008B4201D3CB00C01A524183088B4201D37F
:102C50008B00C01A5241D9D243088B4201D34B009A
:102C6000C01A5241411A00D20146524110466346F1
:102C70005B1000D34042704763465B1000D3404274
:102C800001B50021004201D0C9430846C046C046F4
:102C900002BD000000000000B82C00000000202051
:102CA0000800000020010000C02C000008002020C7
:102CB000B004000048010000C10D00000000000049
:04000005000000C136
:00000001FF
