:020000040000FA
:10000000B80220208D010000910100009301000042
:1000100000000000000000000000000000000000E0
:10002000000000000000000000000000950100003A
:1000300000000000000000009701000055090000CA
:100040009B0100007D0700009B0100009B01000058
:100050009B0100009B0100009B0100009B01000030
:10006000000000009B0100009B0100000000000058
:10007000000000009B0100009B0100009B010000AC
:100080009B0100009B0100009B0100009B01000000
:100090009B0100009B010000000000000000000028
:1000A0009B0100009B010000000000000000000018
:1000B0009B010000000000009B0100009B0100006C
:1000C00000F002F800F052F812A030C808382418E6
:1000D0002D18AC4201D100F049F80FCCA246AB4636
:1000E0000CA730CF2D1B083F3F197C427F1E544484
:1000F0002D090426F441641EAC4201D300F036F809
:100100000126334200D0FB1A3343984754465D46DC
:10011000DFE7000084270000A427000000000000A3
:10012000103A02D378C878C1FAD8520701D330C840
:1001300030C101D504680C60704700000000000069
:100140007047000000000000002300240025002666
:10015000103A01D378C1FBD8520700D330C100D583
:100160000B6070471FB51FBD10B510BD00F017FA2A
:100170001146FFF7F7FF01F00BFA00F02FFA03B476
:10018000FFF7F2FF03BC00F035FA00000648004715
:10019000FEE7FEE7FEE7FEE7FEE7FEE70348044969
:1001A000024A044B70470000C1000000B801202043
:1001B000B8022020B80120204343514330B55C18D9
:1001C000010C130C0D4692B25D4380B251432C19C1
:1001D000054655430A0C09044D1962415843010C68
:1001E00000044019514130BD70B5054610460C461B
:1001F00018430ED000210846891A984127DA0021B9
:100200000846491BA04118DA2846214600F03FF86D
:1002100070BD002C03DA01230022DB0707E0002178
:100220000846491BA04102DA0022D2435308104677
:100230001946C046C0462A4627E000216842A1412F
:1002400000F025F8002440428C4121461AE00021AC
:100250000846491BA0410CDA214600205242984131
:100260000346284600F013F8002440428C41214602
:1002700070BD002052429841002103466842A141CE
:1002800000F005F8002452429C41234670BDFEB5A3
:10029000044610460D46184373D0A6468C460020EF
:1002A000A41A01469D4167D36646002701243D46B6
:1002B000B61A9D4102D313463A4621246546764636
:1002C0002F04360C3E432D0CB61A9D4104D3150C59
:1002D0001B042B4312041034654676462F06360A5B
:1002E0003E432D0AB61A9D4104D3150E1B022B4323
:1002F00012020834654676462F0736093E432D091B
:10030000B61A9D4104D3150F1B012B431201241D66
:1003100065467646AF07B6083E43AD08B61A9D411E
:1003200004D3950F9B002B439200A41C6546764690
:10033000EF0776083E436D08B61A9D411AD392180E
:100340005B41641C16E00018764665464941B71AC1
:100350009D410191009009D36046B11A98418E46A3
:100360008446009801990025401C6941DD07520828
:100370002A435B08641EE6D57246634603B0F0BDAF
:10038000FFE72046284307D00020C0430146C0466F
:10039000C04622462B46F1E700200146F7E7000061
:1003A000002203098B4273D3030A8B4258D3030BF9
:1003B0008B423CD3030C8B4221D312E003460B4308
:1003C0007FD4002243088B4274D303098B425FD34E
:1003D000030A8B4244D3030B8B4228D3030C8B427A
:1003E0000DD30902FF2212BA030C8B4202D3121260
:1003F000090265D0030B8B4219D300E0090AC30B35
:100400008B4201D3CB03C01A5241830B8B4201D3E1
:100410008B03C01A5241430B8B4201D34B03C01ACA
:100420005241030B8B4201D30B03C01A5241C30A42
:100430008B4201D3CB02C01A5241830A8B4201D3B3
:100440008B02C01A5241430A8B4201D34B02C01A9D
:100450005241030A8B4201D30B02C01A5241CDD242
:10046000C3098B4201D3CB01C01A524183098B428D
:1004700001D38B01C01A524143098B4201D34B0176
:10048000C01A524103098B4201D30B01C01A5241D9
:10049000C3088B4201D3CB00C01A524183088B4260
:1004A00001D38B00C01A524143088B4201D34B0049
:1004B000C01A5241411A00D20146524110467047BB
:1004C0005DE0CA0F00D04942031000D340425340C0
:1004D0009C46002203098B422DD3030A8B4212D380
:1004E0008901FC2212BA030A8B420CD389019211B2
:1004F0008B4208D3890192118B4204D389013AD0EF
:10050000921100E08909C3098B4201D3CB01C01AC3
:10051000524183098B4201D38B01C01A52414309D6
:100520008B4201D34B01C01A524103098B4201D3C4
:100530000B01C01A5241C3088B4201D3CB00C01A31
:10054000524183088B4201D38B00C01A5241D9D249
:1005500043088B4201D34B00C01A5241411A00D2CA
:1005600001465241104663465B1001D34042002BC6
:1005700000D54942704763465B1000D3404201B545
:100580000449002802DC491C084000E00846C04637
:10059000C04602BDFFFFFF7F70477047704775463A
:1005A00000F024F8AE46050069465346C008C00076
:1005B000854618B020B5FFF7F1FD60BCB6460026B1
:1005C0000027C0C5C0C5C0C5C0C5C0C5C0C5C0C561
:1005D000C0C5403D490849008D46704710B50446E6
:1005E000C046C0462046FFF7CAFD10BD0048704710
:1005F0000800202001491820ABBEFEE726000200BB
:100600007047811E091F00BFFCD27047F0B53C4AFD
:1006100082183C4BC31808794E793B4D3B4C002E59
:1006200023D0202804D00526F601002803D003E0BB
:10063000374E002800D18826576F2F403743576721
:10064000976F2F4037439767566B26405663966BDC
:10065000264096630026566596658F26F6435F68AA
:1006600037405F609F6837409F608E790968202817
:100670000BD0002819D1491E5160D76E2F40882118
:100680000F43D7661746703719E0491E5160D16E87
:1006900029401F4F3943D166116F294039431167F3
:1006A000012149071B4D174609E049085160D76EE3
:1006B0002F400521C9010F43D766174670373C68A4
:1006C0002C400C433C60D16A104C2140D162116B2C
:1006D000214011630021D16411658F21C943D46F7A
:1006E0000C40D4671C680C401C600643BD203040A1
:1006F0001168094B0B40C018801C1060F0BDC0464B
:10070000041800008418000024493E008888FDFF7A
:1007100001040000FFFFFFCF4000FFCF10B507230B
:100720009B04194092008018024A84589C43611827
:10073000815010BD3018000010B5029CA4000019B3
:1007400011431943014A815010BDC04650180000A2
:1007500092008018014A81507047C046101800006E
:1007600010B50122120383180C789C604B788350DB
:100770008978014A815010BD0C110000F0B581B09C
:10078000204801461039096801256C051E4B1A46A0
:10079000103A176827400022D643090203D4002FDD
:1007A0001AD101B0F0BDE90502680A4302607A4837
:1007B00000F0F4F800960646E906774800F0EEF8F7
:1007C0007040009E304600D1284610490A688018C3
:1007D00008600D4B002FE4D01868204318607B4858
:1007E000214600F0DBF804460125A9056A4800F01F
:1007F000D5F8604000D135460548016869180160A8
:1008000001B0F0BD48300A4048100A40980020204E
:100810003001202010B5284A8120D0622749086085
:10082000274BCB641060274C9466D466546594655E
:100830009463D464D465D46348608861906293649F
:100840005366536353649060506008654865C8659B
:10085000886548660866106608674867C8638863E5
:1008600062481949016106220260891D0164032062
:100870008102164A13680B43136001214A05144B89
:100880001C6A14431C621C6814431C60114A124BFE
:1008900013614B041360114B13648003104A1368F7
:1008A00003431360C8050F490A6A02430A620A68D3
:1008B00002430A6010BDC04684804240048042402A
:1008C00081000E0081000C00013C0000A0130A40D2
:1008D00028100A4090320A40CC330504CC33070478
:1008E000A0330A4028300A40094800210160094825
:1008F000014608390A6803239A430A600168012205
:1009000091430160110202688A4302607047C04649
:1009100008030B4008010B4080B500F005F8FFF715
:1009200079FFFFF7E1FF80BD80B5064806494160C9
:10093000064A51600649016011601020FFF761FE10
:1009400080BDC04600080A40030000B100280A40EC
:100950000100002608480168491C01600748017829
:10096000072903D80178491C0170704704480168C1
:10097000491C01607047C0464C012020180120200E
:10098000140120201049002800D1103101208004DA
:10099000014A88507047C04600200A402722D201F1
:1009A00080580840411E884170470000064B002ACD
:1009B00000D11033C15070470349002800D11031D5
:1009C000024801220A5070479012000000000A40BD
:1009D00070B5064C01252560054E7D200002FFF70D
:1009E00010FE761CF9D3256170BDC04690120A40F6
:1009F00018FCFFFF012040020249096801404842FB
:100A00004841704780130A4080B50E4900200870A5
:100A10001D4908700C4908700C4908700C49087091
:100A20000C4908600C4908800C4908600C490860B2
:100A3000144908600B4908801449088001F02EFB16
:100A400080BDC0466C002020760020207800202049
:100A50007C0020208000202084002020880020208E
:100A60008C0020207000202080B50146054A00201F
:100A70001060054A1170002903D10449088001F073
:100A800017FB80BD900020206800202074002020EB
:100A900005480021017241810173417301610175B3
:100AA0008161C171C16170479401202010B500249B
:100AB000204600F07FFD01F02DF8034884800321DB
:100AC0000170048510BDC04650012020F0B581B0F2
:100AD0000546C1170D4A00242346FFF76DFB0C4A5B
:100AE0001268D30FD318DF175E107342BC41002D7C
:100AF00000D43C46002D00D4334618184C41D3177F
:100B00002146FFF771FB01B0F0BDC04640420F0027
:100B10000000202080B5022802D101F0F9FA80BD42
:100B2000002080BD70B501F041F801F02BFA00F013
:100B300069FDFFF7ADFFFFF767FF00242046FFF7D1
:100B400093FF00F0BEF8544EB47274723472F471B4
:100B5000346000F0B7F80546FFF7DCFF002809D045
:100B6000F57130604068804700F098F8012200205D
:100B7000014602E00621032022463275F46034610A
:100B8000B1717071307100F09FF870BD70B500F0F8
:100B900049F9044601F0D0FC3F4E307201F08AFC66
:100BA000707201F06FFCB07200F0F8F83179002833
:100BB0000CD001290DD130680069804700F06EF833
:100BC0000020F0603061B071B0805DE0012921D07B
:100BD0003EE000F077F805463068002802D0F17951
:100BE0008D4209D02846FFF795FF002835D0F571D2
:100BF0003060406880473068717A8268204690474C
:100C000000282ED000203075F0603061B071FF20D8
:100C10000230B080717A3068C268204690473068F0
:100C200000281AD040698047054670713068806995
:100C30008047B0713068016A20468847F0603068AC
:100C4000C06980473061022D17D0032D13D0317950
:100C5000FE200840022812D018E00620B0710320C0
:100C60000CE0306840698047707130688069804767
:100C7000B07100203075032000E002203071307D1B
:100C8000002803D100F00AF80120307500F013F8B5
:100C9000301D00F02FF870BD3401202010B5002465
:100CA000204600F087FC01F053F82046FFF7DCFEF9
:100CB00001F07EF910BD80B501F07AF901F08EF9EE
:100CC00080BD70470220704710B54448002404706E
:100CD000414804804248012101702D48046000F021
:100CE0000DF9204600F060FA2046FFF74BFEFFF7B3
:100CF0006FFE10BD70B5002849D00446244D286809
:100D0000401C28602078411E48424841FFF73AFEC7
:100D1000207803280FD12868A178002505290ED84E
:100D20000126C0467944097949008F4421080D0203
:100D30000A0C022608E0801E4542454118E00526BF
:100D400002E0032600E004261249FFF729FB88B2DF
:100D50008008114A4243500D864209D94B22920025
:100D60004243881A80B2962801D3002500E001256D
:100D70002846FFF721FE2078022808D1184D287850
:100D8000002804D1E06800F00FFA0120287070BD3F
:100D900090012020B80B00003B6D000080B5FFF7EC
:100DA00029FE00280DD00C4A11881D2903D84B1CA0
:100DB00013801D2903D109490A78002A06D0002092
:100DC00080BD054900220A80044902E001220A7020
:100DD000034900220A7080BD880120208A0120205A
:100DE0008C01202010B51949002008700F490860B7
:100DF000084908600849094A4A60FF221206084B60
:100E00001C68944303229207A2181A608860072086
:100E1000086010BD1401202010E000E0FF7C0000FD
:100E200020ED00E0014800687047C0464C012020DA
:100E3000EFF3108072B605490878002802D00A78CE
:100E4000521E0A70411E884162B670471801202068
:100E5000EFF3108172B618490968184A126806C083
:100E600062B67047EFF3108072B61348002101603C
:100E70001248016062B60120C105074A13680B439E
:100E80001360400505490A6802430A6004480221CC
:100E9000016001607047C04648300A4048100A406F
:100EA00000E100E0EFF3108072B60348002101601A
:100EB0000248016062B6704798002020300120206F
:100EC000B0B504460025284600F074FB00F040FF52
:100ED000034844700585858005210170B0BDC0467A
:100EE0005001202004488121016001200002AC490A
:100EF000086008647047C0464C804240F0B58DB031
:100F0000A748022101610421016001204604A5488F
:100F100006607D200402C720C5432F462046FFF708
:100F200070FB7F1CFAD39F4F3E61012000F092FAC4
:100F30003E602F4632372046FFF763FB7F1CFAD313
:100F4000984F3E61112000F085FA3E6050352046F2
:100F5000FFF757FB6D1CFAD3924F3E61362000F02D
:100F600079FA3E60A02000F075FA3E613A2000F068
:100F700071FA3E600520099000F06CFA3E61B220E3
:100F800000F068FA3E600C25284600F063FA284617
:100F900000F060FA00200A9000F05CFA33250C950E
:100FA000284600F057FA284600F054FA3E61B72070
:100FB00000F050FA3E60352000F04CFA3E61BB2054
:100FC00000F048FA3E60322000F044FA3E61C22050
:100FD00000F040FA3E60012000F03CFA3E61C32080
:100FE00000F038FA3E6015200B9000F033FA3E61B5
:100FF000C42000F02FFA3E60202000F02BFA3E6162
:10100000C62000F027FA3E600F2000F023FA3E6170
:10101000D0252846089500F01DFA3E60A42000F077
:1010200019FAA12000F016FA3E61E02000F012FA51
:101030003E60284600F00EFA0820079000F00AFAF9
:101040000E20069000F006FA0927384600F002FA52
:10105000384600F0FFF9099800F0FCF931252846E0
:10106000029500F0F7F90C9800F0F4F94820099087
:1010700000F0F0F91720059000F0ECF9142004902E
:1010800000F0E8F90B9800F0E5F9284600F0E2F9E5
:101090003420039000F0DEF9ED4D2E61E12000F0E8
:1010A000D9F92E60089800F0D5F9079800F0D2F928
:1010B000069800F0CFF9384600F0CCF9384600F039
:1010C000C9F90B9F384600F0C5F9029D284600F08B
:1010D000C1F90C9800F0BEF9099800F0BBF9059829
:1010E00000F0B8F9049800F0B5F9384600F0B2F90C
:1010F000284600F0AFF9039800F0ACF9D44D2E610A
:10110000212000F0A7F92E602E61292000F0A2F91D
:101110002E602046FFF775FA2046FFF772FA204648
:10112000FFF76FFA2046FFF76CFA2046FFF769FADF
:101130002046FFF766FA2046FFF763FA2046FFF7DE
:1011400060FA2046FFF75DFA2046FFF75AFA20467C
:10115000FFF757FA2046FFF754FA2046FFF751FAF7
:101160002046FFF74EFA2046FFF74BFA2046FFF7DE
:1011700048FA2046FFF745FA2046FFF742FA204694
:10118000FFF73FFA2046FFF73CFA0A980090FF224B
:101190001832EF23014600F003F90DB0F0BDC04650
:1011A00090120A4090320A40F0B58BB00746714861
:1011B0008742089700D307466F49384601F04EFA38
:1011C00009AD28707D20C6003846314601F046FA48
:1011D000CD2102914143C90A0A246143411A697031
:1011E0004643B81B81B28A08644B53435A0CAA7019
:1011F000634A4A43D10C22464A43801A2871C8B236
:10120000029A5043C00A01946043081AE87000240F
:10121000009408204821ED22A32300F0C1F859488A
:101220000899814203D3584F00290BD103E03F2096
:101230004701002906D1554F04E0039C641C052C8E
:1012400000D18DE009A8005D02994143C90A019AC5
:101250005143401AC0B24EA10D5C039460004F4947
:101260000C5A20462130069020461C300590601D07
:10127000049020461B300890A01D0790012004E038
:1012800000F08EF87000212ED7D206462842F9D001
:10129000701E3F28F6D8C046784400794000874445
:1012A000344E33453333332A3333333333333357C5
:1012B0003333333333333333333333333333333DF4
:1012C00033333333333333333333333333333333EE
:1012D0003333333333333333333333333333331FF2
:1012E000B8B20090079880B208998AB275217A2323
:1012F00000F056F8A1E7B8B20090079880B20899BC
:101300008AB296219B23BBE7BCE7B8B2009007984E
:1013100080B208998AB254215923B1E7B8B200903B
:10132000049882B25A2177232046A9E7B8B20090E8
:10133000059880B206998AB278219523A0E7B8B2C1
:101340000090059880B206998AB25A21772397E7D0
:10135000B8B20090049882B27821952320468FE796
:10136000B8B20090632092216A22992300F018F805
:101370000BB0F0BD9F860100102700007B14000019
:10138000CDCC0000214E000000F8FFFF1084FFFFCD
:101390003F065B4F666D7D077F6F00008828000069
:1013A000F0B583B0904201D903B0F0BD0D46D1082D
:1013B0002229F9D8AB42F7D301214E04244C2661EF
:1013C0002A210746019008460092029300F042F855
:1013D00026601437B8B2000A00F03CF8F8B200F00A
:1013E00039F8009C27461437B8B2000A00F032F8EA
:1013F000F8B200F02FF8164F3E612B2000F02AF8CB
:101400003E60280A00F026F8E8B200F023F80298BF
:10141000000A00F01FF80298C0B200F01BF83E610D
:101420002C2000F017F802993E600198201A461C03
:10143000BAD2089F481B80B2401C46433C0A204653
:1014400000F008F8F8B200F005F8761EF7D1ABE727
:1014500090320A40F0B583B006464C4D02272F610A
:1014600008242046FFF7CDF8029670B22E461036BB
:101470000028304600DA2846042101910160204608
:10148000FFF7BFF82F602046FFF7BBF82F6120461B
:10149000FFF7B7F802984006304600D52846019974
:1014A00001602046FFF7ADF82F602046FFF7A9F84E
:1014B0002F612046FFF7A5F802988006304600D538
:1014C0002846019901602046FFF79BF82F602046CF
:1014D000FFF797F82F612046FFF793F80298C006B0
:1014E000304600D52846019901602046FFF789F86B
:1014F0002F602046FFF785F82F612046FFF781F81F
:1015000002980007304600D5284601990160204620
:10151000FFF777F82F602046FFF773F82F6120461A
:10152000FFF76FF802984007304600D5284601992A
:1015300001602046FFF765F82F602046FFF761F84D
:101540002F612046FFF75DF802988007304600D5EE
:101550002846019901602046FFF753F82F60204686
:10156000FFF74FF82F612046FFF74BF80298C007AE
:1015700000D02E46019830602046FFF742F82F60D9
:101580002046FFF73EF803B0F0BDC04690120A4077
:10159000FFF7C2F9FFF7A6FCFFF7C4FAFFF722FC3A
:1015A00000E030BFFFF744FC0028FAD0FFF7EEFA66
:1015B000F8E7000010B55D4C207000280ED1002027
:1015C0006060A0602061607020462C3000F07FFCDD
:1015D0005034204600F07BFC00F0BAFB10BDC04642
:1015E00080B582B06846FFF733FC0098019908186F
:1015F000C10F4018401002B080BD000028204B49A8
:10160000085C7047F0B589B0FFF72CFC2D210591DF
:101610004B20800104902824009401900291434EB5
:1016200030462C30069012270322039200253946BB
:101630002B4600F033FC009404980190059802902A
:101640003446503420463946039A2B4600F026FC97
:10165000FFF728FC07A8FFF7FBFBB5703580756224
:1016600030461C300573089807997560B560F560C1
:1016700035617161B061F5613562069800F027FC53
:10168000204600F024FC00F063FB09B0F0BDC0462A
:1016900010B582B0FFF706FC6846FFF7D9FB234C74
:1016A0000020A0702080606221461C3108730199DF
:1016B000009A6060A060E06020616261A161E06109
:1016C000206220462C3000F002FC5034204600F00E
:1016D000FEFB00F03DFB02B010BDC04670B50D46EC
:1016E0000446124E7078002807D130462C3000F0A6
:1016F000EEFB3046503000F0EAFB012070706820AD
:10170000C043854200DC05466921692D00DB0D469A
:101710007581844203DD692C04DA348170BD04468E
:10172000692CFADB0C46348170BDC0469C00202039
:10173000F0B58FB0F44C2078012805D1A078401C7A
:10174000A070C0B20A2801D20FB0F0BD0027A77068
:101750000DA8FFF77DFB60690D996161A2690E9B81
:10176000A361081A0C90A081981A0B90E0810A20BE
:10177000215E6378E288002B084600D11046029271
:1017800000910821665EA1880393002B324600D1A8
:101790000A46049100B211043D460AD0218A0BB2D8
:1017A000DB135940C91A89B2132901D8002500E07A
:1017B000012512B200280AD0618A0BB2DB1359400E
:1017C000C91A89B2132901D8002700E00127019620
:1017D0000C9909B209910123012A03DB0999002917
:1017E00019460CD40A9501260025002A314600D45A
:1017F0002946099A002A00DC2E4631400A9D0691AE
:101800000B9909B20A91012803DB0A9900291A46AB
:101810000AD4012600210028324600D40A460A983C
:10182000002800DC0E46324005920C9880B24142FE
:10183000414129400020B54A0129064605D1A68B21
:10184000B3498E42089306D20A36A683B1B29142BA
:1018500000D9012008900B9880B2414241413940A3
:1018600000200129064605D1E68BA9498E4207933F
:1018700006D20A36E683B1B2914200D90120079020
:10188000069805400020012D0146059A05D1218CBE
:101890009F4DA9421E4607D20A31218489B263298D
:1018A00001D8064600E0012617400020012F01461E
:1018B00005D1618C964A91421D4607D20A31618456
:1018C00089B2632901D8054600E001250998C013B3
:1018D0000C994140081A80B200221F28114605D3F6
:1018E000A18C8B488142184607D20A31A18488B264
:1018F000312801D8104600E0012037460A99C91363
:101900000B9A4A40511A89B200261F29314604D346
:10191000E18C7F4A91422FD20A31E18489B2312988
:1019200000D9012608990029194600D107990029F4
:10193000194600D1394600291A4600D12A46002A04
:101940001A4607D0002A08D0012B09D1002D26D134
:10195000052025E00246002AF6D13346012BF5D0BA
:101960002820205C00282BD10398002840D0029D1D
:10197000019E009B049985E008990029194600D131
:1019800007990029194600D1394600291A4600D185
:101990002A46002A00D103461A46002DD8D004203A
:1019A000079B002B01D1032300E00223089D002D9B
:1019B00017D1002918D0002A00D10623282023544B
:1019C00000206060A0602061208020462C3000F064
:1019D0007EFA5034204600F07AFA00F0B9F90FB0E0
:1019E000F0BD01230029E6D10346002AE5D0E5E752
:1019F00000250498002810D001B220462C300C9A03
:101A00001204921300F06BFA0421615E012908DBD5
:101A10000A4689B24908163110E029462E46029B33
:101A20000FE0002902D40A46002107E00A46494295
:101A300089B24908364B591A0C3909B20E18E38895
:101A40001146002B0FD00E20205E82002046503021
:101A500019B200F044FA0621655E012D05DBA9B23A
:101A6000490816310CE02B460CE0002D01D4002172
:101A700006E0694289B24908254A511A0C3909B26F
:101A80000B18A1886078002801D10F4600E0278953
:101A90006821CA43934200DC13463A04692B00DBF9
:101AA0006923002A14D0C9438E4200DC0E461F462B
:101AB000692E00DB69261021615ECB1E9E423246F4
:101AC00000DC1A46C91C8E423B4602DC114600E08F
:101AD00000212182002800D0658928040CD0122022
:101AE000225E1846D31E9842054600DC1846D21CDA
:101AF000954202DC024600E00022628208B211B286
:101B000000F04CF90FB0F0BD9C0020201F03000036
:101B1000F6FF0000F0B581B001246603DB4D2846D6
:101B200031462246FEF742FF210328462246FEF7B1
:101B30003DFFA10228462246FEF738FFE102284673
:101B40002246FEF733FFD24D402128462246FEF7BB
:101B50002DFF610228462246FEF728FF284631461F
:101B60002246FEF723FF082128462246FEF71EFFE5
:101B7000C84F0026384631463246FEF7E9FD0222BC
:101B800038463146FEF7E4FD032238463146FEF77B
:101B9000DFFDC14831463246FEF7DAFD8021284696
:101BA0002246FEF703FF01B0F0BDC046F0B58BB092
:101BB0000AAF0024BC7008200590388001200790EF
:101BC0000002099019208001019008905648842154
:101BD00081628321816385210491016053485449C6
:101BE00041605449016010200390FEF70AFDA94EA0
:101BF00030463946FEF7B4FD08A93046FEF706FD2B
:101C0000009430463746214622462346FEF794FD8F
:101C10000225009506953046214622462346FEF7CA
:101C20008BFD032600963846214622462346FEF7C2
:101C300083FD384621462246FEF770FD3846214690
:101C40002A46FEF76BFD3846214632460296FEF7DD
:101C500065FD3846019D29462246FEF779FD384646
:101C60002946069AFEF774FD384629463246FEF7A5
:101C70006FFD3148079A82600D2101602F4801688D
:101C8000114301600AAFBC7005983880099408952B
:101C90002B48049901602B48254941602549016082
:101CA0000398FEF7AEFC7C4E30463946FEF758FDF1
:101CB00008A93046FEF7AAFC009430462146224689
:101CC0002346FEF739FD304621462246FEF726FD23
:101CD0003046374629462246FEF73AFD1A48079A0B
:101CE0008260026019480168114301602A4802704D
:101CF000684E304629462246FEF72AFD30462946E0
:101D0000069AFEF725FD30462946029AFEF720FD89
:101D1000384629462246FEF71BFDD8488021224638
:101D2000FEF744FE0BB0F0BD3C8042400008864008
:101D3000030000B10100002600118640041886400F
:101D4000E4804240008886400091864004988640A6
:101D500070B511480078012817D1192084014D4E23
:101D60000025304621462A46FEF7F2FC0222304684
:101D70002146FEF7EDFC032230462146FEF7E8FC43
:101D8000454821462A46FEF7E3FCBC488021002254
:101D9000FEF70CFE70BDC04610012020F0B583B0E8
:101DA0000C4601260021019102900028354600DAF8
:101DB000019D7103354800912A46FEF7F7FD310376
:101DC000029880B2C70B31483A46FEF7EFFDB102E8
:101DD0002E483A46FEF7EAFDF1022C482A46FEF765
:101DE000E5FD002C374600DA019FA44840213A4621
:101DF000FEF7DCFD7102A0B2C50BA04E30462A46AC
:101E0000FEF7D4FD304600992A46FEF7CFFD0821A3
:101E100030463A46FEF7CAFD20B2C0132146414083
:101E2000081A80B2C825C82800D32846C000192146
:101E30008E01371A17483946019AFEF789FC029934
:101E400008B2C0134140081A80B2C82800D32846FF
:101E5000C000351A02220F4E30462946FEF778FCA4
:101E6000032230463946FEF773FC0B482946019A97
:101E7000FEF76EFC02980443601E844180217F4877
:101E80002246FEF793FD03B0F0BDC04600000A40B5
:101E900000200A400000864000808640F0B581B0F6
:101EA000002812D00093089B079E069D202700243F
:101EB000C455066143618461C46106C00099016034
:101EC0000838012D00D80125C56001B0F0BD0028FB
:101ED00004D02021002242548261C2617047F0B5D3
:101EE00085B000280AD004468F1A2020215C2046A5
:101EF0002030002904D0E169791A02E000253EE093
:101F00000021E7610122027023687B43A5684D43ED
:101F1000A0690290C1192669704281420A4600DC1C
:101F2000024604930395E818B14200DC1646626845
:101F30003146019251434018E168009100F0B0FB36
:101F400065696A42012F01DBA84203DC002F0ED530
:101F500090420CDA029901984143049808180399B9
:101F600040180099144600F09BFB224600E0A66151
:101F70009042014600DC1146A84200DC0D4628468E
:101F800005B0F0BDB0B53F48002404603C48046093
:101F9000394804703D4804703D4D2C703D48047034
:101FA0000120010435482246FEF700FD2C70B0BD2B
:101FB00010B5344800240460314804602E48047091
:101FC0003248047033480470012001042B48224633
:101FD000FEF7ECFC2E48047010BDC046F0B581B091
:101FE000254A1578012421042448002D0FD02448C7
:101FF0000768244E33685B1EBB420AD2002434605B
:1020000004601470214804702248047008E0002421
:1020100007E01D4B9F420BD31E4804700024147030
:1020200016482246FEF7C2FC1948047001B0F0BD04
:102030000E46791C01600A21284600F00FFB134967
:1020400009780027814201D33A4600E00122632D3E
:102050000A4800D8144631462246FEF7A7FC0C4831
:1020600004700A4A1078401CC1B2092900D80746FA
:10207000177001B0F0BDC0462401202000200A40A6
:102080001C01202020012020307500002801202084
:102090002A0120202C01202070477047B0B50D4C3C
:1020A00000252580FFF7F8FF605FFFF7F6FFB0BD62
:1020B00080B50649884200DC08460549884200DBB5
:1020C000084604490880FFF7E8FF80BDA8E4FFFF49
:1020D000581B000094002020E048406A7047C0462A
:1020E0000146DE4A5069002800D070471078002869
:1020F000FBD01069081A7047D84840787047C0462E
:102100003420D649085E70473020D449085E7047B5
:102110000048704754280000D04840697047C046C6
:102120002820CE49085E704704480078052802D868
:1021300003A1085C704701207047C0465001202071
:1021400000010101020300002A20C44900220A54B0
:102150000A854A624A610A80CA620A638A867047AF
:1021600070B50C460546FFF7F3FD002C1FD0BB4EA3
:1021700000207060B060F06235617061F473B47318
:102180005021B181B07070703063B086306270627F
:102190003085314620318872FFF77AFA01252846CA
:1021A000FFF708FAFFF71CFAB061F06103E0AB48F3
:1021B000012141700525A9480570601E8441204613
:1021C00070BDC04610B500242046FFF7F3F9FFF7B5
:1021D000BFFDA2480470048510BDC046F0B583B0B1
:1021E0009E4E3278052A06D801239340312423429B
:1021F00001D003B0F0BDB3885B1CB380032A0CD1BF
:1022000099B27829F5D30446FFF7A2FD0420307077
:102210003069201A706103B0F0BD02900F46FFF7DD
:10222000DFF9B1690190401AC1174840401AFEF722
:102230004DFC2A24315D4D1C35557D21C90000F02F
:102240002FFA02997062B07BB773F37BF0731A4672
:10225000024003433B401343E8B21D46052842D3E6
:1022600000273755280616D0E8B200F026F92F21AE
:10227000725C012A18D1021D92B2092A14D2728E00
:102280008000801A00B20128029913DBC01C80B2C2
:102290008008821815E02E2000223254B08D704A3A
:1022A000904233D8471D1DE001227254820072868D
:1022B000029907E0002804D50323181A80B2800889
:1022C000121A728610B2002803D4901C80B28008C3
:1022D00004E00220801A80B2800840422E220123AE
:1022E000B3543086B785280610D00020F0803069BE
:1022F000081A5D4988421CD300242046FFF75AF98A
:10230000FFF726FD3485B4805C486AE0F088554AC2
:10231000531C984203D2431CF3809042E7D100241F
:102320002046FFF747F9FFF713FD3485B480544882
:1023300057E03178022900D00D212820325E90B27A
:10234000914202D10021B18115E0914201DB50237D
:1023500000E03223B489A34202D9611CB1810AE0B2
:102360000023B381914203DC0421C943091D00E02D
:102370000121081830853221715E032251438B0FF1
:10238000C91889101423DB43994200DC194615292A
:1023900000DB1521B18603B2032B00DB1346B28D9F
:1023A00092B2642A024600D31A462E23F35C002B15
:1023B00000D1104642001632501A00B2511809B22C
:1023C000FFF78CF9FFF7B4F9FFF718F900280BD0E5
:1023D00000242046FFF7EEF8FFF7BAFC3485B480FE
:1023E0002248308003B0F0BD307802280DD1F0696A
:1023F000316A019A101AC2175040801A884200D2DE
:10240000F7E6FEF753FB03B0F0BDE8B200F0DCF8EE
:10241000002819D00199F1610025B58002203070A3
:10242000B069081AC1174840401AF02229462B46C5
:10243000FDF7C2FE0F4A801869410F4A2B46FDF78F
:1024400026FF306203B0F0BDB0880949884200D24F
:10245000CFE60520FEF734FD03B0F0BD500120208B
:10246000FAFF000057020000C0D40100050300007D
:1024700031750000FF0B0000FE170000050400008E
:1024800005020000012101408207D20F51184207C6
:10249000D20F51180207D20F5118C206D20F51188D
:1024A0008206D20F51184206D20F5118C0094018A7
:1024B000C0B27047FF2148407047F0B581B002219B
:1024C000014001220240544207232340002900D04A
:1024D0005B1D0424044000D0DB1C08250540ED08EA
:1024E00000955B1910260640F506ED175B192027AD
:1024F000074000D0DB1E4025054000D0FB334908D3
:102500005118A2088918009A8918320989187A097D
:102510008918AA09891840B2002804D4080604D1F1
:10252000002001B0F0BDDB1F491C58B249B200F0D9
:10253000B7F840B201B0F0BDF0B581B00125A906F1
:102540001F4E3046FEF72AFA0446E9063046FEF7EB
:1025500025FA002800D0A41C2E0619483146FEF7A3
:102560001DFA002800D0241D6F0615483946FEF7D5
:1025700015FA002800D0083412483146FEF70EFA4A
:10258000002801D0102004430E4E30463946FEF795
:1025900005FA002801D020200443A9050848FEF7C9
:1025A000FDF9002801D04020044329053046FEF7FC
:1025B000F5F9002801D080200443E0B201B0F0BD5D
:1025C00000000A4000200A4010B50446FFF75AFFF9
:1025D0000022032806D3E006800F03D0C322224046
:1025E000501E82411B498878002806D0888880B216
:1025F000194B984206D8002005E0002A11D000208F
:10260000088110BD01200240012A13D14889062803
:1026100003D2421C4A8105281AD10020887001206B
:1026200010BD0889272808D8421C0A812738424251
:10263000424103E00020488110BD01220020002A11
:10264000EED08A88D2087D2AEAD301228A7010BD92
:10265000002010BD50012020AF36000043088B42FF
:102660001AD3002203098B4279D3030A8B425ED32B
:10267000030B8B4242D3030C8B4227D30902FF2268
:1026800012BA030C8B4202D31212090203D0030BBD
:102690008B4233D31AE0D3E0411A8041401C70478B
:1026A00003460B4371D443088B42F5D30022030940
:1026B0008B4254D3030A8B4239D3030B8B421DD375
:1026C000030C8B4202D394466EE0090AC30B8B4283
:1026D00001D3CB03C01A5241830B8B4201D38B032E
:1026E000C01A5241430B8B4201D34B03C01A5241D3
:1026F000030B8B4201D30B03C01A5241C30A8B4216
:1027000001D3CB02C01A5241830A8B4201D38B0200
:10271000C01A5241430A8B4201D34B02C01A5241A4
:10272000030A8B4201D30B02C01A5241CDD2C30916
:102730008B4201D3CB01C01A524183098B4201D392
:102740008B01C01A524143098B4201D34B01C01A7D
:10275000524103098B4201D30B01C01A5241C308F5
:102760008B4201D3CB00C01A524183088B4201D364
:102770008B00C01A524143088B4201D34B00C01A50
:102780005241411A524110007047CA0F00D04942CD
:10279000031000D34042534000229C4603098B4261
:1027A0002DD3030A8B4212D38901FC2212BA030AE9
:1027B0008B420CD3890192118B4208D3890192116B
:1027C0008B4204D3890137D0921100E08909C309F3
:1027D0008B4201D3CB01C01A524183098B4201D3F2
:1027E0008B01C01A524143098B4201D34B01C01ADD
:1027F000524103098B4201D30B01C01A5241C30855
:102800008B4201D3CB00C01A524183088B4201D3C3
:102810008B00C01A5241D9D243088B4201D34B00DE
:10282000C01A5241411A00D2014652411046634635
:102830005B1000D34042704763465B1000D34042B8
:1028400001B50021004201D0C9430846C046C04638
:1028500002BD0000020000004921000061210000CB
:10286000DD210000C521000029210000F920000021
:1028700019210000E1200000D920000021210000E2
:10288000092100000121000012003C0070009A00A4
:10289000C400000000000000B82800000000202054
:1028A0000800000020010000C028000008002020CF
:1028B000B002000048010000C10D0000000000004F
:04000005000000C136
:00000001FF
