:020000040000FA
:10000000C00420208D010000910100009301000038
:1000100000000000000000000000000000000000E0
:10002000000000000000000000000000950100003A
:10003000000000000000000097010000950900008A
:100040009B010000BD0700009B0100009B01000018
:100050009B0100009B0100009B0100009B01000030
:10006000000000009B0100009B0100000000000058
:10007000000000009B0100009B0100009B010000AC
:100080009B0100009B0100009B0100009B01000000
:100090009B0100009B010000000000000000000028
:1000A0009B0100009B010000000000000000000018
:1000B0009B010000000000009B0100009B0100006C
:1000C00000F002F800F052F812A030C808382418E6
:1000D0002D18AC4201D100F049F80FCCA246AB4636
:1000E0000CA730CF2D1B083F3F197C427F1E544484
:1000F0002D090426F441641EAC4201D300F036F809
:100100000126334200D0FB1A3343984754465D46DC
:10011000DFE70000A4320000C4320000000000004D
:10012000103A02D378C878C1FAD8520701D330C840
:1001300030C101D504680C60704700000000000069
:100140007047000000000000002300240025002666
:10015000103A01D378C1FBD8520700D330C100D583
:100160000B6070471FB51FBD10B510BD00F037FA0A
:100170001146FFF7F7FF02F031F900F04FFA03B430
:10018000FFF7F2FF03BC00F055FA000006480047F5
:10019000FEE7FEE7FEE7FEE7FEE7FEE70348044969
:1001A000024A044B70470000C1000000C003202039
:1001B000C0042020C00320204343514330B55C18C5
:1001C000010C130C0D4692B25D4380B251432C19C1
:1001D000054655430A0C09044D1962415843010C68
:1001E00000044019514130BD70B5054610460C461B
:1001F00018430ED000210846891A984127DA0021B9
:100200000846491BA04118DA2846214600F03FF86D
:1002100070BD002C03DA01230022DB0707E0002178
:100220000846491BA04102DA0022D2435308104677
:100230001946C046C0462A4627E000216842A1412F
:1002400000F025F8002440428C4121461AE00021AC
:100250000846491BA0410CDA214600205242984131
:100260000346284600F013F8002440428C41214602
:1002700070BD002052429841002103466842A141CE
:1002800000F005F8002452429C41234670BDFEB5A3
:10029000044610460D46184373D0A6468C460020EF
:1002A000A41A01469D4167D36646002701243D46B6
:1002B000B61A9D4102D313463A4621246546764636
:1002C0002F04360C3E432D0CB61A9D4104D3150C59
:1002D0001B042B4312041034654676462F06360A5B
:1002E0003E432D0AB61A9D4104D3150E1B022B4323
:1002F00012020834654676462F0736093E432D091B
:10030000B61A9D4104D3150F1B012B431201241D66
:1003100065467646AF07B6083E43AD08B61A9D411E
:1003200004D3950F9B002B439200A41C6546764690
:10033000EF0776083E436D08B61A9D411AD392180E
:100340005B41641C16E00018764665464941B71AC1
:100350009D410191009009D36046B11A98418E46A3
:100360008446009801990025401C6941DD07520828
:100370002A435B08641EE6D57246634603B0F0BDAF
:10038000FFE72046284307D00020C0430146C0466F
:10039000C04622462B46F1E700200146F7E701E080
:1003A00004C0091F0429FBD28B0701D50280801CE1
:1003B000C90700D00270704700290BD0C30702D0D4
:1003C0000270401C491E022904D3830702D5028013
:1003D000801C891EE3E70022EEE70022DFE7000031
:1003E000002203098B4273D3030A8B4258D3030BB9
:1003F0008B423CD3030C8B4221D312E003460B43C8
:100400007FD4002243088B4274D303098B425FD30D
:10041000030A8B4244D3030B8B4228D3030C8B4239
:100420000DD30902FF2212BA030C8B4202D312121F
:10043000090265D0030B8B4219D300E0090AC30BF4
:100440008B4201D3CB03C01A5241830B8B4201D3A1
:100450008B03C01A5241430B8B4201D34B03C01A8A
:100460005241030B8B4201D30B03C01A5241C30A02
:100470008B4201D3CB02C01A5241830A8B4201D373
:100480008B02C01A5241430A8B4201D34B02C01A5D
:100490005241030A8B4201D30B02C01A5241CDD202
:1004A000C3098B4201D3CB01C01A524183098B424D
:1004B00001D38B01C01A524143098B4201D34B0136
:1004C000C01A524103098B4201D30B01C01A524199
:1004D000C3088B4201D3CB00C01A524183088B4220
:1004E00001D38B00C01A524143088B4201D34B0009
:1004F000C01A5241411A00D201465241104670477B
:100500005DE0CA0F00D04942031000D3404253407F
:100510009C46002203098B422DD3030A8B4212D33F
:100520008901FC2212BA030A8B420CD38901921171
:100530008B4208D3890192118B4204D389013AD0AE
:10054000921100E08909C3098B4201D3CB01C01A83
:10055000524183098B4201D38B01C01A5241430996
:100560008B4201D34B01C01A524103098B4201D384
:100570000B01C01A5241C3088B4201D3CB00C01AF1
:10058000524183088B4201D38B00C01A5241D9D209
:1005900043088B4201D34B00C01A5241411A00D28A
:1005A00001465241104663465B1001D34042002B86
:1005B00000D54942704763465B1000D3404201B505
:1005C0000449002802DC491C084000E00846C046F7
:1005D000C04602BDFFFFFF7F7047704770477546FA
:1005E00000F024F8AE46050069465346C008C00036
:1005F000854618B020B5FFF7D1FD60BCB646002691
:100600000027C0C5C0C5C0C5C0C5C0C5C0C5C0C520
:10061000C0C5403D490849008D46704710B50446A5
:10062000C046C0462046FFF7AAFD10BD00487047EF
:100630000800202001491820ABBEFEE7260002007A
:100640007047811E091F00BFFCD27047F0B53C4ABD
:1006500082183C4BC31808794E793B4D3B4C002E19
:1006600023D0202804D00526F601002803D003E07B
:10067000374E002800D18826576F2F4037435767E1
:10068000976F2F4037439767566B26405663966B9C
:10069000264096630026566596658F26F6435F686A
:1006A00037405F609F6837409F608E7909682028D7
:1006B0000BD0002819D1491E5160D76E2F408821D8
:1006C0000F43D7661746703719E0491E5160D16E47
:1006D00029401F4F3943D166116F294039431167B3
:1006E000012149071B4D174609E049085160D76EA3
:1006F0002F400521C9010F43D766174670373C6864
:100700002C400C433C60D16A104C2140D162116BEB
:10071000214011630021D16411658F21C943D46F39
:100720000C40D4671C680C401C600643BD20304060
:100730001168094B0B40C018801C1060F0BDC0460A
:10074000041800008418000024493E008888FDFF3A
:1007500001040000FFFFFFCF4000FFCF10B50723CB
:100760009B04194092008018024A84589C436118E7
:10077000815010BD3018000010B5029CA400001973
:1007800011431943014A815010BDC0465018000062
:1007900092008018014A81507047C046101800002E
:1007A00010B50122120383180C789C604B7883509B
:1007B0008978014A815010BD0C110000F0B581B05C
:1007C000204801461039096801256C051E4B1A4660
:1007D000103A176827400022D643090203D4002F9D
:1007E0001AD101B0F0BDE90502680A4302607A48F7
:1007F00000F0F4F800960646E906774800F0EEF8B7
:100800007040009E304600D1284610490A68801882
:1008100008600D4B002FE4D01868204318607B4817
:10082000214600F0DBF804460125A9056A4800F0DE
:10083000D5F8604000D13546054801686918016067
:1008400001B0F0BD48300A4048100A40F4012020B1
:100850009402202010B5284A8120D06227490860E0
:10086000274BCB641060274C9466D466546594651E
:100870009463D464D465D46348608861906293645F
:100880005366536353649060506008654865C8655B
:10089000886548660866106608674867C8638863A5
:1008A00062481949016106220260891D0164032022
:1008B0008102164A13680B43136001214A05144B49
:1008C0001C6A14431C621C6814431C60114A124BBE
:1008D00013614B041360114B13648003104A1368B7
:1008E00003431360C8050F490A6A02430A620A6893
:1008F00002430A6010BDC0468480424004804240EA
:1009000081000E0081000C00013C0000A0130A4091
:1009100028100A4090320A40CC330504CC33070437
:10092000A0330A4028300A400948002101600948E4
:10093000014608390A6803239A430A6001680122C4
:1009400091430160110202688A4302607047C04609
:1009500008030B4008010B4080B500F005F8FFF7D5
:1009600079FFFFF7E1FF80BD80B506480649416089
:10097000064A51600649016011601020FFF761FED0
:1009800080BDC04600080A40030000B100280A40AC
:100990000100002608480168491C016007480178E9
:1009A000072903D80178491C017070470448016881
:1009B000491C01607047C046940320207C0220201F
:1009C000780220201049002800D110310120800435
:1009D000014A88507047C04600200A402722D201B1
:1009E00080580840411E884170470000064B002A8D
:1009F00000D11033C15070470349002800D1103195
:100A0000024801220A5070479012000000000A407C
:100A100070B5064C01252560484E7D200002FFF789
:100A200010FE761CF9D3256170BDC04690120A40B5
:100A3000012040020249096801404842484170478C
:100A400080130A400020B249085E7047A54800683C
:100A5000AD49884200DC0846AC49884200DB0846C4
:100A60007047C0460020A749085E70479C48006850
:100A7000A549884200DC0846A449884200DB0846B4
:100A80007047C04610B584B0044601A800F054F980
:100A9000002803D10020C04304B010BD0298201AE2
:100AA00004B010BD80B58C490020087093490870CF
:100AB0008A490870904908708C4908708A49086012
:100AC0009049088087490860854908608C4908601A
:100AD0008F4908809349088002F036FA80BDC046ED
:100AE0007D4800787047C04680B50146844A0020A2
:100AF0001060824A1170002903D18A49088002F0EF
:100B00002DFA80BD7E4900220A600C49884200DC33
:100B100008467D21C900884200DB084679490880E3
:100B200070490968401A7849884200DC08467749CC
:100B3000884200DB084676490880704718FCFFFFB2
:100B4000F0B589B00C46054606A800F0F5F8002877
:100B50005CD006A88078012100263B28084600D8F2
:100B60003046079FEA1B652A00D3314608405A49A0
:100B7000087001285CD105945848017801260029A5
:100B800048D05948006806A9CC78584909788C4261
:100B900001D187424BD03A1A1423642A194600D84F
:100BA0001146874200D00B4601934D4801680291DF
:100BB000184648437D21CD00294602F01FFB002145
:100BC00006AA515E474A126880180490081A0390DA
:100BD00045430198C100284602F010FB02994018D5
:100BE0004349884200DC08464249884200DB084607
:100BF0003B490860032003994843C117890F4018F7
:100C0000801004994018374908600CE032480026EB
:100C100006700DE0324900220A60067006A8815E67
:100C2000304A1160C4783048076030480470059C31
:100C300031490878401C0870C0B20A284AD3002005
:100C400008702E4909780E40012E3CD123490978BD
:100C5000002938D000202B49085E22490968421A31
:100C60002948824200DC024626462848824200DBB0
:100C70000246274802800A210B4653432048046855
:100C80001B19244CA34200DC2346234CA34200DB67
:100C900023460360CD20504302F0B0FA05461048C9
:100CA00001684B2048430921C94302F0A7FAF1002B
:100CB000691808181949884200DC08461849884212
:100CC00003DB084601E00E4908601649088000B2BF
:100CD00002F044F909B0F0BDA0002020AA002020B5
:100CE000C0002020BC002020B4002020B000202024
:100CF00078ECFFFF88130000AC0020209C0020202F
:100D0000C4002020B80020200080FFFFFF7F0000EB
:100D1000A4002020C0F2FCFF400D0300A8E4FFFF68
:100D2000581B0000A80020201748C0697047C04623
:100D3000154880697047C04610B5002815D0124A82
:100D4000137AD907FCD151890180117B8170517BC5
:100D5000C17011694160117D0172147AA342EFD113
:100D600001231C40ECD1084610BD002010BDC04638
:100D700005480021017241810173417301610175D0
:100D80008161C171C1617047A003202010B50024AA
:100D9000204601F035FB01F003FE0448446304865D
:100DA000C485C48184800621017010BD6C0120209F
:100DB000F0B58BB001460020002964D07F22930259
:100DC0001F680F605D684D609A688A60DC680094F7
:100DD000CC601C6901940C615C6902944C619E6951
:100DE0008E61DC690394CC611C6A04940C625C6AB9
:100DF00005944C629C6A06948C62DC6A0794CC620F
:100E00001C6B08940C635C6B09944C639C6B8C6347
:100E1000DB6B0A93CB631D49794001236B400B4385
:100E200007214C401C43631E9C4173427341234382
:100E300029D11748424017484243009B5A40424339
:100E4000019B5A404243029B5A40424372404243F4
:100E5000039B5A404243049B5A404243059B5A40DD
:100E60004243069B5A404243079B5A404243089BD9
:100E70005A404243099B5A4042434A4042430A98DF
:100E8000811A484248410BB0F0BDC046314C414345
:100E9000A766714B93010001F0B581B02E4D284635
:100EA000FFF786FF2D4F38702D490870E84E304609
:100EB00014300024214601F069FA01F0BDFD01F073
:100EC000AFFF01F0E5FA02F05DF800F02FFC00F052
:100ED00013FF204601F066F8DE4802210170012070
:100EE0003074DD4804803878002800D0A86800F00D
:100EF00001FA01F073FE2046FFF764FDFFF788FD5D
:100F0000708CEB490880B08CEA4908802620305C60
:100F1000F34908702720305CF2490870F07D1149D0
:100F20000870307E10490870B06AF16A0F4A10608C
:100F30000F480160308EE049088001F069FFEA49FE
:100F4000087001F083FFE949087001F065FFE84986
:100F5000087001B0F0BDC04650032020900320204F
:100F600044012020F2012020F101202068012020EE
:100F700064012020F0B581B0FFF75AFD064602F06B
:100F800085F8074602F040F8054600F047FA0446A7
:100F9000AB480670AB480770AB480570284602F0B6
:100FA0001BF8AA490870AA48807900281CD1274656
:100FB000A848047800F0B6FB844203D0A548007826
:100FC00000F0DEFB00F0AEFB06283C460CD1A24848
:100FD0000488FFF747FD80B284423C4604D00020DD
:100FE0009D49085E00F0B4FB002E15D0984F38885C
:100FF0001D2803D8411C39801D2811D138790028BB
:101000000ED101203871B879012848D100203881EB
:10101000B87100F047FC03E000208D4F3871388034
:101020002046294600F050FC00F078FBC11F012942
:1010300008D80025BD7107280DD1387C002820D0A4
:10104000002025E0B87985490870FFF7BBFCFFF761
:1010500047FD05464DE0814805702846FFF7B2FC84
:1010600000F048FB09282AD80126C04678440079B8
:10107000400087443E2424242424290426280226D0
:1010800022E000F043FB00F08DFF01203874B879B6
:101090007249087001252840FFF794FC29E001F00F
:1010A000F5FF01F0B1FF064601F098FD002038740D
:1010B00000F0B4F9314600F089FBB871B0E70526BD
:1010C00002E0032600E0042665492046FFF788F980
:1010D00088B28008634A4243500D864209D94B22A8
:1010E00092004243881A80B2962801D3002500E07E
:1010F00001252846FFF780FC00F014FB5A490870D0
:1011000000F00CFB5949087000F0F4FA58490870D7
:10111000204600F0DFFA5749086000F0F7FA564918
:10112000086000F0D3FA5549086000F0F3FA54491A
:10113000088000F0C7FA53490860FFF793FC524952
:101140000880FFF783FC51490880FFF78FFC504966
:101150000880FFF777FC4F49088001F0EFFE4E4909
:101160000880FFF7BDFC4D4908702046FFF78AFC58
:101170004B490860FFF7DCFD4A490860FFF7D4FDE2
:101180004949086000F026F94849086000F0BAFAB9
:101190004749088047480024048000F0AFFA4649D8
:1011A000088001F055F94549086001F061F94449AA
:1011B000086001F059F9434D288001F065F9424E6D
:1011C0003080285F00F0E4F840490860305F00F0AC
:1011D000DFF83F49086001F043F93E4D288001F0F7
:1011E0004FF93D4C208001F02FF93C4908702888C8
:1011F00001B2C9134840401A81B2C820C82900D39F
:101200000146374A117021880AB2D2135140891A17
:1012100089B2C82900D301463248017001F01AFE94
:1012200001F02EFE01F0F4FD2F49087001F00EFED2
:101230002E49087001F0F0FD2D49087001B0F0BD95
:101240004C0320209E032020990320209803202077
:1012500068002020D4012020D2012020FC01202081
:10126000B80B00003B6D0000E1012020E0012020D0
:10127000D0012020CC012020D8012020C80120202E
:10128000DE012020BC012020C4012020C20120203A
:10129000C6012020C0012020DC012020F0012020F8
:1012A000E4012020EC012020E80120209C022020E5
:1012B0009C0320209A032020600120204801202048
:1012C000540120204C0120205801202050012020D2
:1012D0005C012020FA0120209A02202074022020A4
:1012E000F801202098022020910220209202202044
:1012F00093022020B0B50446074D28463C304021DB
:10130000FFF76BF8601C68642846103001F04CF859
:10131000002068602880B0BDC8002020F0B581B0F2
:101320000546C117294A00242346FEF745FF284AEF
:101330001268D30FD318DF175E107342BC41002D23
:1013400000D43C46002D00D4334618184C41D31726
:101350002146FEF749FF01B0F0BDC046B0B50246D8
:101360001B480068D31700242146FEF725FF0A46D4
:10137000C9177D23002A01D49D0000E0034D2818E1
:101380005141DA002346FEF72FFFB0BD0CFEFFFFF0
:10139000F0B581B00546C1170C4A00242346FEF77C
:1013A0000BFF0B4A13680A225A43D31757107E4289
:1013B0009C41002D00D41C46002D00D43E46301820
:1013C0004C412146FEF710FF01B0F0BD40420F0036
:1013D000000020200D4800687047C04610B519492C
:1013E000002008700F490860084908600849094A48
:1013F0004A60FF221206084B1C689443032292079E
:10140000A2181A6088600720086010BD78022020AA
:1014100010E000E0FF7C000020ED00E001480068E3
:101420007047C04694032020EFF3108072B6054940
:101430000878002802D00A78521E0A70411E88419E
:1014400062B670477C022020EFF3108172B6184913
:101450000968184A126806C062B67047EFF3108038
:1014600072B61348002101601248016062B6012083
:10147000C105074A13680B431360400505490A6814
:1014800002430A6004480221016001607047C046BF
:1014900048300A4048100A4000E100E0EFF31080B5
:1014A00072B60348002101600248016062B67047CD
:1014B000F401202094022020B0B5044600252846DF
:1014C00000F09EFF01F08AFBBF4845634470C58170
:1014D000858008210170B0BD80B500281AD0002990
:1014E00018DD0279002A06D103290A4600D3032217
:1014F0004388632B00D80A460A21405E1C21C94359
:1015000088420CDB032141438B0FC91889081D2831
:1015100008DC08E00020014601F026F880BD083113
:101520001D2800DD152152001632501A00B289180C
:1015300009B201F019F880BD80B5002805D000215E
:101540000170801C1421FEF746FF80BD80B5002885
:1015500005D000210170801C1421FEF73CFF80BDE6
:10156000F0B581B0002800D1AAE003785B1C0370BD
:10157000DBB2052B00D2A3E0002505700F23DC436E
:10158000002919D016460746084601F040FD0146DD
:1015900038467A79012A1FD10A1D92B2092A1BD234
:1015A00042898B009B1A1FB2012F334625DBFE1C9C
:1015B000B6B2B608B21827E00571418822460B3250
:1015C00092B291420ED20582C5814A1D42800289A3
:1015D000C28027290AD80EE0012242718A00428186
:1015E000334612E00582C5810289C28011B200290A
:1015F00041DC002949D4428A49E0002F04D5032662
:10160000F61BB6B2B608921B428116B2002E03D466
:10161000971CBFB2BF0804E00227BF1ABFB2BF08C1
:101620007F42C7808789D71B3FB2112F02DB10276B
:10163000C78107E0A74202DAC481274606E0C781D6
:10164000002F03D4BF1CBFB2BF0806E000930223E3
:10165000DB1B9BB29B085F42009B8281078201815A
:10166000012101714580002B01D1022100E00621FA
:101670004E43472E01DD082209E04621C9438E4230
:1016800003DB710F7118CA0801E0224608321221EB
:10169000415E12B28A4201DD012402E08A4202DA8E
:1016A0000F34091941820AB2002A03D4891C89B275
:1016B000890804E00222511A89B2890849428182CC
:1016C00001B0F0BD7F48406B7047C0467D48806ADE
:1016D0007047C0467B4A9169002901D0084670478F
:1016E0001178002903D05169411A0846704700203B
:1016F0007047C046734840787047C0464C207149D7
:10170000085E70473E206F49085E70476D488069EB
:101710007047C0462E206B49085E704769480078C4
:101720007047C046674880787047C04610B5654826
:10173000002484850221817004803830FFF7FCFE8C
:10174000FFF716FBFFF7AEF92046FFF7CDF910BD06
:1017500010B57D21CA00821894B209018C4206D8C6
:10176000584988858978062901D1FFF7CBF90348C4
:10177000844201D3002010BD012010BDD10700001C
:10178000B0B5821E0021042A1CD84E4A1378082BBB
:1017900018D8012425469D40FF2382331D4211D0D5
:1017A0009070C11E032901D2002002E0062805D155
:1017B000908D00B2FFF7A6F9204600E00020FFF769
:1017C00093F921460846B0BD6C012020F0B581B0E8
:1017D0000C463C4DAF78B91E052912D2002668612F
:1017E000AE616E702E86EE856E62AE62E81C0D21D3
:1017F000FEF7F1FD6E63EC74AC74022F03D0782019
:1018000002E0012027E05020288228463830FFF7E8
:101810009DFEAF78032F0ED1FFF762F9002817D095
:1018200001242046FFF760F97D208000FFF76AF968
:101830002046022412E0002C0CD0032F04D3FFF723
:101840004FF9002804D0AF78062F0DD030460CE0B9
:10185000032000E002206870002008240021E981B4
:10186000A9802C7001B0F0BDA88DFE243C40042C52
:1018700000D0064630B2FFF745F9201F41424141F2
:10188000BA1F504250410843FFF72EF900F046FEC0
:101890000124204600F0B4FD00F0C8FDE861286294
:1018A0002046DBE710B50024204600F0A9FD01F03A
:1018B00095F9FD4844630486C485C481848004701E
:1018C00010BDC0466C012020F0B587B0F64F3A78C5
:1018D000082A0AD801239340FF248234234204D0EB
:1018E0000021FFF72DF907B0F0BDBB885B1CBB8062
:1018F000931E032B33D2002405462146FFF720F91F
:10190000FFF7EEF8002843D0BC813878042800D1D6
:10191000BBE0032800D1A2E0022829464CD1FFF702
:1019200091F8294602B2D2135040801A80B2322870
:1019300041D8FFF79BF8294602B2D2135040801AD3
:1019400080B2C82837D8F889401CF88180B278283E
:1019500032D3D648FFF7D6F82946032629E0062ACF
:1019600040D1002405462146FFF7EAF8B8887828D8
:1019700000D240E101F032F9B869002802D178695B
:10198000281AB861FC81BC800720387007B0F0BD10
:10199000B889401CB88180B2962829460CD32046CD
:1019A00000F02EFD01F01AF929467C6304207870BE
:1019B0000826BC803E70FC817869081ABC498842C0
:1019C00000D218E13878072800D114E1204600F051
:1019D00017FD01F003F97C63B6483880FC81BC80B8
:1019E00007B0F0BD06900C4600F020FDF9690490A8
:1019F000401AC1174840401AFFF790FC7D21C900EA
:101A0000039101F0FBFBB862B87CBC74F97CF874FC
:101A10000A460240014321401143CEB23C463834CD
:101A20000025204631462A46FFF79AFD002E0595EF
:101A30004DD0FD80BA78032A60D3FFF751F8002813
:101A400052D00020B881FFF701F801B2C913484015
:101A5000401A80B2994988424FD9052567E0FEF7C0
:101A6000F1FF01B2C9134840401A80B2322829461A
:101A7000A2D8FEF7FBFF294602B2D2135040801ACB
:101A800080B2C92898D2042693E7FEF7DBFF01B2A3
:101A9000C9134840401A80B20326322822D8FEF7E4
:101AA000E5FF01B2C9134840401A80B2C828294650
:101AB00000D97EE7F889401CF88180B280084B2865
:101AC00000D279E77869081AB861072671E7F888C3
:101AD00079494A1C0625904229D2421CFA80884244
:101AE000A8D124E0294664E7B889042595281ED8A2
:101AF000411CB9819528A6D119E0BA787969069870
:101B0000411A931EDBB2022B03D89B006DA5EB5844
:101B100000E06B4B994209D23978052915D0082984
:101B200000D1DDE6022A12D0092311E008250024A5
:101B3000204600F065FC01F051F87C637D70FC816B
:101B4000BC80082038700698CAE602230BE00D23FB
:101B5000798F89B26429194600D303213C257D5D24
:101B6000002D00D10B463B862E210291795E8DB26D
:101B70009D4204D1059D7D633D8229462BE0022ACA
:101B800001D0782200E05022994200DD32223D8AC5
:101B90000192954204D2691C3982796B059D1AE045
:101BA000059D3D82994201DBE84300E00120401899
:101BB000F8850846FFF7ECFB00900298385EFFF7C7
:101BC000E7FB0099411A03984843019901F016FB7D
:101BD000014678630698FEF7B3FF0298395E204607
:101BE000FFF77AFC00F0EAFC00F02EFC002804D09D
:101BF0000720FFF761FC07B0F0BD387805280FD14A
:101C0000386A0499081AC1174840441AB978022959
:101C100002D1786A00283BD1042936D0F02035E083
:101C2000B87804280FD1B86A294988420BDB049898
:101C30003862FD81BD800520387079690698401AA8
:101C4000B86107B0F0BD304601F068FA002825D031
:101C5000B8780228EBD104993962FD81BD80052056
:101C60003870F869081AC1174840401AF02229460E
:101C70002B46FEF7A1FA184A80186941174A2B46ED
:101C8000FEF705FB786207B0F0BD6420FFF766FB46
:101C90008442B0D3FFF77AF807B0F0BDB8880D4999
:101CA0008842A8D30920A4E76C0120200CFEFFFF86
:101CB0008813000008080000570200004C040000D0
:101CC000B8880000C0D4010088130000102700006D
:101CD000DC05000031750000FF0B0000FE1700005E
:101CE00004488121016001200002AC4908600864B9
:101CF0007047C0464C804240F0B58DB0A7480221E5
:101D000001610421016001204604A54806607D2090
:101D10000402C720C5432F462046FEF792FC7F1CD5
:101D2000FAD39F4F3E61012000F092FA3E602F46A9
:101D300032372046FEF785FC7F1CFAD3984F3E6170
:101D4000112000F085FA3E6050352046FEF779FC00
:101D50006D1CFAD3924F3E61362000F079FA3E6056
:101D6000A02000F075FA3E613A2000F071FA3E6062
:101D70000520099000F06CFA3E61B22000F068FA8C
:101D80003E600C25284600F063FA284600F060FA11
:101D900000200A9000F05CFA33250C95284600F0EC
:101DA00057FA284600F054FA3E61B72000F050FA86
:101DB0003E60352000F04CFA3E61BB2000F048FA4E
:101DC0003E60322000F044FA3E61C22000F040FA4A
:101DD0003E60012000F03CFA3E61C32000F038FA7A
:101DE0003E6015200B9000F033FA3E61C42000F0F5
:101DF0002FFA3E60202000F02BFA3E61C62000F052
:101E000027FA3E600F2000F023FA3E61D0252846D5
:101E1000089500F01DFA3E60A42000F019FAA120F8
:101E200000F016FA3E61E02000F012FA3E6028460B
:101E300000F00EFA0820079000F00AFA0E20069033
:101E400000F006FA0927384600F002FA384600F09A
:101E5000FFF9099800F0FCF931252846029500F0B9
:101E6000F7F90C9800F0F4F94820099000F0F0F927
:101E70001720059000F0ECF91420049000F0E8F928
:101E80000B9800F0E5F9284600F0E2F934200390C1
:101E900000F0DEF9ED4D2E61E12000F0D9F92E6061
:101EA000089800F0D5F9079800F0D2F9069800F0EC
:101EB000CFF9384600F0CCF9384600F0C9F90B9F4D
:101EC000384600F0C5F9029D284600F0C1F90C988B
:101ED00000F0BEF9099800F0BBF9059800F0B8F9D8
:101EE000049800F0B5F9384600F0B2F9284600F041
:101EF000AFF9039800F0ACF9D44D2E61212000F029
:101F0000A7F92E602E61292000F0A2F92E6020464C
:101F1000FEF797FB2046FEF794FB2046FEF791FB69
:101F20002046FEF78EFB2046FEF78BFB2046FEF791
:101F300088FB2046FEF785FB2046FEF782FB204605
:101F4000FEF77FFB2046FEF77CFB2046FEF779FB81
:101F50002046FEF776FB2046FEF773FB2046FEF791
:101F600070FB2046FEF76DFB2046FEF76AFB20461D
:101F7000FEF767FB2046FEF764FB2046FEF761FB99
:101F80002046FEF75EFB0A980090FF221832EF23EE
:101F9000014600F003F90DB0F0BDC04690120A40B2
:101FA00090320A40F0B58BB00746714887420897D7
:101FB00000D307466F49384601F0FEF809AD287096
:101FC0007D20C6003846314601F0F6F8CD21029159
:101FD0004143C90A0A246143411A69704643B81B48
:101FE00081B28A08644B53435A0CAA70634A4A432D
:101FF000D10C22464A43801A2871C8B2029A504333
:10200000C00A01946043081AE87000240094082074
:102010004821ED22A32300F0C1F8594808998142D4
:1020200003D3584F00290BD103E03F20470100297B
:1020300006D1554F04E0039C641C052C00D18DE0B3
:1020400009A8005D02994143C90A019A5143401A07
:10205000C0B24EA10D5C039460004F490C5A20465B
:102060002130069020461C300590601D04902046CB
:102070001B300890A01D0790012004E000F08EF8AE
:102080007000212ED7D206462842F9D0701E3F2874
:10209000F6D8C0467844007940008744344E334532
:1020A0003333332A333333333333335733333333E5
:1020B00033333333333333333333333D33333333E6
:1020C00033333333333333333333333333333333E0
:1020D00033333333333333333333331FB8B20090B6
:1020E000079880B208998AB275217A2300F056F8D1
:1020F000A1E7B8B20090079880B208998AB29621F9
:102100009B23BBE7BCE7B8B20090079880B2089960
:102110008AB254215923B1E7B8B20090049882B230
:102120005A2177232046A9E7B8B20090059880B2DB
:1021300006998AB278219523A0E7B8B20090059855
:1021400080B206998AB25A21772397E7B8B20090F5
:10215000049882B27821952320468FE7B8B2009088
:10216000632092216A22992300F018F80BB0F0BD89
:102170009F860100102700007B140000CDCC0000DA
:10218000214E000000F8FFFF1084FFFF3F065B4F69
:10219000666D7D077F6F0000AE330000F0B583B041
:1021A000904201D903B0F0BD0D46D1082229F9D8DB
:1021B000AB42F7D301214E04244C26612A21074665
:1021C000019008460092029300F042F8266014370E
:1021D000B8B2000A00F03CF8F8B200F039F8009C00
:1021E00027461437B8B2000A00F032F8F8B200F00F
:1021F0002FF8164F3E612B2000F02AF83E60280A87
:1022000000F026F8E8B200F023F80298000A00F087
:102210001FF80298C0B200F01BF83E612C2000F0BD
:1022200017F802993E600198201A461CBAD2089FFE
:10223000481B80B2401C46433C0A204600F008F888
:10224000F8B200F005F8761EF7D1ABE790320A40FD
:10225000F0B583B006464C4D02272F610824204676
:10226000FEF7EFF9029670B22E461036002830467F
:1022700000DA28460421019101602046FEF7E1F9C9
:102280002F602046FEF7DDF92F612046FEF7D9F9D1
:1022900002984006304600D5284601990160204644
:1022A000FEF7CFF92F602046FEF7CBF92F612046CD
:1022B000FEF7C7F902988006304600D528460199F6
:1022C00001602046FEF7BDF92F602046FEF7B9F900
:1022D0002F612046FEF7B5F90298C006304600D5BA
:1022E0002846019901602046FEF7ABF92F60204691
:1022F000FEF7A7F92F612046FEF7A3F90298000721
:10230000304600D52846019901602046FEF799F92C
:102310002F602046FEF795F92F612046FEF791F9D0
:1023200002984007304600D52846019901602046B2
:10233000FEF787F92F602046FEF783F92F612046CC
:10234000FEF77FF902988007304600D528460199AC
:1023500001602046FEF775F92F602046FEF771F9FF
:102360002F612046FEF76DF90298C00700D02E4677
:10237000019830602046FEF764F92F602046FEF792
:1023800060F903B0F0BDC04690120A4000280AD0A0
:1023900000220171C170827002808260C26002619D
:1023A000426182618283704770B584B0002813D087
:1023B000042150220823009301920291044608341C
:1023C0000025064620462A462B4600F0ADFC356027
:1023D0007560204600F0C1FC04B070BDFEF7BCFA89
:1023E000FFF77EFCFEF758FDFEF7F8FF00E030BF78
:1023F000FFF71AF80028FAD0FEF7BCFDF8E7000056
:1024000010B56D4C207000280ED100206060A060D7
:102410002061607020462C3000F09FFC5034204634
:1024200000F09BFC00F0DAFB10BDC04680B582B026
:102430006846FFF709F8009801990818C10F40187D
:10244000401002B080BD000028205B49085C704746
:1024500080B582B06846FEF7F7FF009802B080BDF5
:1024600010205549085E70470C205349085E70479C
:1024700080B582B06846FEF7E7FF019802B080BDE4
:1024800012204D49085E70470E204B49085E704788
:10249000F0B589B0FEF7E2FF2D2105914B208001B8
:1024A00004902824009401900291434E30462C3031
:1024B0000690122703220392002539462B4600F08E
:1024C00033FC0094049801900598029034465034EF
:1024D00020463946039A2B4600F026FCFEF7DEFF25
:1024E00007A8FEF7B1FFB5703580756230461C3025
:1024F0000573089807997560B560F560356171617D
:10250000B061F5613562069800F027FC204600F0C6
:1025100024FC00F063FB09B0F0BDC04610B582B0EA
:10252000FEF7BCFF6846FEF78FFF234C0020A0702B
:102530002080606221461C3108730199009A606016
:10254000A060E06020616261A161E06120622046DC
:102550002C3000F002FC5034204600F0FEFB00F06E
:102560003DFB02B010BDC04670B50D460446124E8C
:102570007078002807D130462C3000F0EEFB304652
:10258000503000F0EAFB012070706820C0438542A3
:1025900000DC05466921692D00DB0D46758184420A
:1025A00003DD692C04DA348170BD0446692CFADB42
:1025B0000C46348170BDC04600022020F0B58FB0BB
:1025C000F44C2078012805D1A078401CA070C0B23E
:1025D0000A2801D20FB0F0BD0027A7700DA8FEF7A2
:1025E00033FF60690D996161A2690E9BA361081AAE
:1025F0000C90A081981A0B90E0810A20215E6378EC
:10260000E288002B084600D1104602920091082172
:10261000665EA1880393002B324600D10A460491DE
:1026200000B211043D460AD0218A0BB2DB13594097
:10263000C91A89B2132901D8002500E0012512B278
:1026400000280AD0618A0BB2DB135940C91A89B23B
:10265000132901D8002700E0012701960C9909B23F
:1026600009910123012A03DB0999002919460CD499
:102670000A9501260025002A314600D42946099AE8
:10268000002A00DC2E4631400A9D06910B9909B2C2
:102690000A91012803DB0A9900291A460AD4012667
:1026A00000210028324600D40A460A98002800DC9F
:1026B0000E46324005920C9880B241424141294079
:1026C0000020B54A0129064605D1A68BB3498E42A2
:1026D000089306D20A36A683B1B2914200D90120EE
:1026E00008900B9880B241424141394000200129B5
:1026F000064605D1E68BA9498E42079306D20A36D3
:10270000E683B1B2914200D90120079006980540B6
:102710000020012D0146059A05D1218C9F4DA9422B
:102720001E4607D20A31218489B2632901D80646A0
:1027300000E0012617400020012F014605D1618CE1
:10274000964A91421D4607D20A31618489B26329B3
:1027500001D8054600E001250998C0130C994140B5
:10276000081A80B200221F28114605D3A18C8B487D
:102770008142184607D20A31A18488B2312801D893
:10278000104600E0012037460A99C9130B9A4A40C7
:10279000511A89B200261F29314604D3E18C7F4AA1
:1027A00091422FD20A31E18489B2312900D9012620
:1027B00008990029194600D107990029194600D126
:1027C000394600291A4600D12A46002A1A4607D05F
:1027D000002A08D0012B09D1002D26D1052025E0A3
:1027E0000246002AF6D13346012BF5D02820205C82
:1027F00000282BD10398002840D0029D019E009B09
:10280000049985E008990029194600D10799002903
:10281000194600D1394600291A4600D12A46002A15
:1028200000D103461A46002DD8D00420079B002B68
:1028300001D1032300E00223089D002D17D10029B8
:1028400018D0002A00D106232820235400206060DD
:10285000A0602061208020462C3000F07EFA5034A9
:10286000204600F07AFA00F0B9F90FB0F0BD01236C
:102870000029E6D10346002AE5D0E5E700250498C3
:10288000002810D001B220462C300C9A120492136A
:1028900000F06BFA0421615E012908DB0A4689B267
:1028A0004908163110E029462E46029B0FE0002908
:1028B00002D40A46002107E00A46494289B2490883
:1028C000364B591A0C3909B20E18E3881146002B01
:1028D0000FD00E20205E82002046503019B200F04A
:1028E00044FA0621655E012D05DBA9B249081631BF
:1028F0000CE02B460CE0002D01D4002106E06942DB
:1029000089B24908254A511A0C3909B20B18A18815
:102910006078002801D10F4600E027896821CA436A
:10292000934200DC13463A04692B00DB6923002A3A
:1029300014D0C9438E4200DC0E461F46692E00DBD0
:1029400069261021615ECB1E9E42324600DC1A468B
:10295000C91C8E423B4602DC114600E00021218268
:10296000002800D0658928040CD01220225E184669
:10297000D31E9842054600DC1846D21C954202DC64
:10298000024600E00022628208B211B200F04CF967
:102990000FB0F0BD000220201F030000F6FF000072
:1029A000F0B581B001246603DB4D2846314622464E
:1029B000FEF71CF8210328462246FEF717F8A1026D
:1029C00028462246FEF712F8E10228462246FEF784
:1029D0000DF8D24D402128462246FEF707F8610245
:1029E00028462246FEF702F8284631462246FDF7E1
:1029F000FDFF082128462246FDF7F8FFC84F0026B4
:102A0000384631463246FDF7C3FE0222384631468B
:102A1000FDF7BEFE032238463146FDF7B9FEC14838
:102A200031463246FDF7B4FE802128462246FDF7A6
:102A3000DDFF01B0F0BDC046F0B58BB00AAF002499
:102A4000BC70082005903880012007900002099092
:102A500019208001019008905648842181628321C9
:102A60008163852104910160534854494160544970
:102A7000016010200390FDF7E4FDA94E3046394671
:102A8000FDF78EFE08A93046FDF7E0FD00943046C4
:102A90003746214622462346FDF76EFE0225009565
:102AA00006953046214622462346FDF765FE03265D
:102AB00000963846214622462346FDF75DFE3846FD
:102AC00021462246FDF74AFE384621462A46FDF7B2
:102AD00045FE3846214632460296FDF73FFE38460F
:102AE000019D29462246FDF753FE38462946069A9F
:102AF000FDF74EFE384629463246FDF749FE31487D
:102B0000079A82600D2101602F480168114301601E
:102B10000AAFBC7005983880099408952B48049931
:102B200001602B4825494160254901600398FDF764
:102B300088FD7C4E30463946FDF732FE08A9304606
:102B4000FDF784FD00943046214622462346FDF7DA
:102B500013FE304621462246FDF700FE304637463A
:102B600029462246FDF714FE1A48079A8260026041
:102B700019480168114301602A480270684E3046C6
:102B800029462246FDF704FE30462946069AFDF7FF
:102B9000FFFD30462946029AFDF7FAFD38462946E0
:102BA0002246FDF7F5FDDE4880212246FDF71EFF97
:102BB0000BB0F0BD3C80424000088640030000B1ED
:102BC000010000260011864004188640E48042403F
:102BD00000888640009186400498864070B5114870
:102BE0000078012817D1192084014D4E0025304668
:102BF00021462A46FDF7CCFD022230462146FDF74C
:102C0000C7FD032230462146FDF7C2FD4548214657
:102C10002A46FDF7BDFDC24880210022FDF7E6FEF1
:102C200070BDC04675022020F0B583B00C46012669
:102C30000021019102900028354600DA019D7103C0
:102C4000354800912A46FDF7D1FE3103029880B243
:102C5000C70B31483A46FDF7C9FEB1022E483A4645
:102C6000FDF7C4FEF1022C482A46FDF7BFFE002CFA
:102C7000374600DA019FAA4840213A46FDF7B6FEE2
:102C80007102A0B2C50BA64E30462A46FDF7AEFE35
:102C9000304600992A46FDF7A9FE082130463A46FB
:102CA000FDF7A4FE20B2C01321464140081A80B2AD
:102CB000C825C82800D32846C00019218E01371A1C
:102CC00017483946019AFDF763FD029908B2C0130F
:102CD0004140081A80B2C82800D32846C000351ADF
:102CE00002220F4E30462946FDF752FD03223046A0
:102CF0003946FDF74DFD0B482946019AFDF748FD81
:102D000002980443601E8441802185482246FDF7D5
:102D10006DFE03B0F0BDC04600000A4000200A402E
:102D20000000864000808640F0B581B0002812D0B7
:102D30000093089B079E069D20270024C45506612A
:102D400043618461C46106C0009901600838012DA7
:102D500000D80125C56001B0F0BD002804D02021B5
:102D6000002242548261C2617047F0B585B00028EC
:102D70000AD004468F1A2020215C204620300029EA
:102D800004D0E169791A02E000253EE00021E76104
:102D90000122027023687B43A5684D43A06902901D
:102DA000C1192669704281420A4600DC024604933A
:102DB0000395E818B14200DC16466268314601927C
:102DC00051434018E168009100F018FA65696A42C1
:102DD000012F01DBA84203DC002F0ED590420CDA54
:102DE00002990198414304980818039940180099E2
:102DF000144600F003FA224600E0A6619042014624
:102E000000DC1146A84200DC0D46284605B0F0BDA6
:102E1000424800787047C046474800787047C0462F
:102E2000B0B54148002404603E4804603B4804704B
:102E30003F4804703F4D2C703F480470012001044E
:102E4000B5482246FDF7D2FD2C70B0BD3948007858
:102E50007047C04610B5344800240460314804600F
:102E60002E48047032480470334804700120010475
:102E7000A9482246FDF7BAFD2E48047010BDC04691
:102E8000F0B581B0254A157801242104A248002D0F
:102E90000FD024480768244E33685B1EBB420AD219
:102EA00000243460046014702148047022480470C7
:102EB00008E0002407E01D4B9F420BD31E4804701E
:102EC0000024147094482246FDF790FD19480470C0
:102ED00001B0F0BD0E46791C01600A21284600F0C1
:102EE0006BF9134909780027814201D33A4600E083
:102EF0000122632D884800D8144631462246FDF74A
:102F000075FD0C4804700A4A1078401CC1B20929AA
:102F100000D80746177001B0F0BDC04688022020D7
:102F200000200A408002202084022020307500000A
:102F30008C0220208E0220209002202000201049A8
:102F4000085E704770477047B0B50D4C002525806E
:102F5000FFF7F8FF605FFFF7F6FFB0BD80B50649E9
:102F6000884200DC08460549884200DB08460449DF
:102F70000880FFF7E8FF80BDA8E4FFFF581B0000B2
:102F800046012020F0B583B0114E30463830FFF7AF
:102F90000BFA08217D2738010A2200920190029144
:102FA0003046643000240C2522462B46FFF7BCFE39
:102FB0000320029007480190F800009030468830C6
:102FC000062122462B46FFF7AFFE347003B0F0BD5A
:102FD000A0022020400D0300012101408207D20FF2
:102FE00051184207D20F51180207D20F5118C206CA
:102FF000D20F51188206D20F51184206D20F511823
:10300000C0094018C0B27047FF2148407047F0B572
:1030100081B0022101400122024054420723234093
:10302000002900D05B1D0424044000D0DB1C0825CF
:103030000540ED0800955B1910260640F506ED17D2
:103040005B192027074000D0DB1E4025054000D03B
:10305000FB3349085118A2088918009A89183209C7
:1030600089187A098918AA09891840B2002804D455
:10307000080604D1002001B0F0BDDB1F491C58B286
:1030800049B200F0BBF840B201B0F0BDF0B581B07C
:103090000125A9061F4E3046FDF7A0FC0446E906AF
:1030A0003046FDF79BFC002800D0A41C2E061948D2
:1030B0003146FDF793FC002800D0241D6F0615480B
:1030C0003946FDF78BFC002800D008341248314601
:1030D000FDF784FC002801D0102004430E4E30463A
:1030E0003946FDF77BFC002801D020200443A905C8
:1030F0000848FDF773FC002801D04020044329054F
:103100003046FDF76BFC002801D080200443E0B27C
:1031100001B0F0BD00000A4000200A4010B504468E
:10312000FFF75AFF0022032806D3E006800F03D0E2
:10313000C3222240501E82411D498888CB78002B33
:1031400013D01C4C0123A042184600D300205A4043
:1031500002430FD14889062803D2421C4A81052820
:1031600019D10020C870012010BD002A05D0002010
:10317000088110BD0020488110BD0A89272A07D880
:10318000531C0B81C30800207D2B06D3034605E0AA
:10319000C0087D2808D2002010BD0123273A541E04
:1031A000A2411A4300D010BD0120C870002010BDFC
:1031B0006C012020B036000043088B421AD3002255
:1031C00003098B4279D3030A8B425ED3030B8B42F4
:1031D00042D3030C8B4227D30902FF2212BA030CFD
:1031E0008B4202D31212090203D0030B8B4233D35A
:1031F0001AE0D3E0411A8041401C704703460B435C
:1032000071D443088B42F5D3002203098B4254D377
:10321000030A8B4239D3030B8B421DD3030C8B4221
:1032200002D394466EE0090AC30B8B4201D3CB0351
:10323000C01A5241830B8B4201D38B03C01A5241F7
:10324000430B8B4201D34B03C01A5241030B8B42F9
:1032500001D30B03C01A5241C30A8B4201D3CB02E4
:10326000C01A5241830A8B4201D38B02C01A5241C9
:10327000430A8B4201D34B02C01A5241030A8B42CC
:1032800001D30B02C01A5241CDD2C3098B4201D3E4
:10329000CB01C01A524183098B4201D38B01C01A62
:1032A000524143098B4201D34B01C01A52410309D9
:1032B0008B4201D30B01C01A5241C3088B4201D388
:1032C000CB00C01A524183088B4201D38B00C01A35
:1032D000524143088B4201D34B00C01A5241411A5C
:1032E000524110007047CA0F00D04942031000D36A
:1032F0004042534000229C4603098B422DD3030ACF
:103300008B4212D38901FC2212BA030A8B420CD3DE
:10331000890192118B4208D3890192118B4204D307
:10332000890137D0921100E08909C3098B4201D38A
:10333000CB01C01A524183098B4201D38B01C01AC1
:10334000524143098B4201D34B01C01A5241030938
:103350008B4201D30B01C01A5241C3088B4201D3E7
:10336000CB00C01A524183088B4201D38B00C01A94
:103370005241D9D243088B4201D34B00C01A52416B
:10338000411A00D201465241104663465B1000D3F9
:103390004042704763465B1000D3404201B50021B4
:1033A000004201D0C9430846C046C04602BD1200D3
:1033B0003C0070009A00C400D833000000002020B8
:1033C0000800000020010000E03300000800202079
:1033D000B804000048010000C10D0000000000001A
:04000005000000C136
:00000001FF
