:020000040000FA
:10000000C00420208D010000910100009301000038
:1000100000000000000000000000000000000000E0
:10002000000000000000000000000000950100003A
:10003000000000000000000097010000950900008A
:100040009B010000BD0700009B0100009B01000018
:100050009B0100009B0100009B0100009B01000030
:10006000000000009B0100009B0100000000000058
:10007000000000009B0100009B0100009B010000AC
:100080009B0100009B0100009B0100009B01000000
:100090009B0100009B010000000000000000000028
:1000A0009B0100009B010000000000000000000018
:1000B0009B010000000000009B0100009B0100006C
:1000C00000F002F800F052F812A030C808382418E6
:1000D0002D18AC4201D100F049F80FCCA246AB4636
:1000E0000CA730CF2D1B083F3F197C427F1E544484
:1000F0002D090426F441641EAC4201D300F036F809
:100100000126334200D0FB1A3343984754465D46DC
:10011000DFE700004432000064320000000000000D
:10012000103A02D378C878C1FAD8520701D330C840
:1001300030C101D504680C60704700000000000069
:100140007047000000000000002300240025002666
:10015000103A01D378C1FBD8520700D330C100D583
:100160000B6070471FB51FBD10B510BD00F037FA0A
:100170001146FFF7F7FF02F031F900F04FFA03B430
:10018000FFF7F2FF03BC00F055FA000006480047F5
:10019000FEE7FEE7FEE7FEE7FEE7FEE70348044969
:1001A000024A044B70470000C1000000C003202039
:1001B000C0042020C00320204343514330B55C18C5
:1001C000010C130C0D4692B25D4380B251432C19C1
:1001D000054655430A0C09044D1962415843010C68
:1001E00000044019514130BD70B5054610460C461B
:1001F00018430ED000210846891A984127DA0021B9
:100200000846491BA04118DA2846214600F03FF86D
:1002100070BD002C03DA01230022DB0707E0002178
:100220000846491BA04102DA0022D2435308104677
:100230001946C046C0462A4627E000216842A1412F
:1002400000F025F8002440428C4121461AE00021AC
:100250000846491BA0410CDA214600205242984131
:100260000346284600F013F8002440428C41214602
:1002700070BD002052429841002103466842A141CE
:1002800000F005F8002452429C41234670BDFEB5A3
:10029000044610460D46184373D0A6468C460020EF
:1002A000A41A01469D4167D36646002701243D46B6
:1002B000B61A9D4102D313463A4621246546764636
:1002C0002F04360C3E432D0CB61A9D4104D3150C59
:1002D0001B042B4312041034654676462F06360A5B
:1002E0003E432D0AB61A9D4104D3150E1B022B4323
:1002F00012020834654676462F0736093E432D091B
:10030000B61A9D4104D3150F1B012B431201241D66
:1003100065467646AF07B6083E43AD08B61A9D411E
:1003200004D3950F9B002B439200A41C6546764690
:10033000EF0776083E436D08B61A9D411AD392180E
:100340005B41641C16E00018764665464941B71AC1
:100350009D410191009009D36046B11A98418E46A3
:100360008446009801990025401C6941DD07520828
:100370002A435B08641EE6D57246634603B0F0BDAF
:10038000FFE72046284307D00020C0430146C0466F
:10039000C04622462B46F1E700200146F7E701E080
:1003A00004C0091F0429FBD28B0701D50280801CE1
:1003B000C90700D00270704700290BD0C30702D0D4
:1003C0000270401C491E022904D3830702D5028013
:1003D000801C891EE3E70022EEE70022DFE7000031
:1003E000002203098B4273D3030A8B4258D3030BB9
:1003F0008B423CD3030C8B4221D312E003460B43C8
:100400007FD4002243088B4274D303098B425FD30D
:10041000030A8B4244D3030B8B4228D3030C8B4239
:100420000DD30902FF2212BA030C8B4202D312121F
:10043000090265D0030B8B4219D300E0090AC30BF4
:100440008B4201D3CB03C01A5241830B8B4201D3A1
:100450008B03C01A5241430B8B4201D34B03C01A8A
:100460005241030B8B4201D30B03C01A5241C30A02
:100470008B4201D3CB02C01A5241830A8B4201D373
:100480008B02C01A5241430A8B4201D34B02C01A5D
:100490005241030A8B4201D30B02C01A5241CDD202
:1004A000C3098B4201D3CB01C01A524183098B424D
:1004B00001D38B01C01A524143098B4201D34B0136
:1004C000C01A524103098B4201D30B01C01A524199
:1004D000C3088B4201D3CB00C01A524183088B4220
:1004E00001D38B00C01A524143088B4201D34B0009
:1004F000C01A5241411A00D201465241104670477B
:100500005DE0CA0F00D04942031000D3404253407F
:100510009C46002203098B422DD3030A8B4212D33F
:100520008901FC2212BA030A8B420CD38901921171
:100530008B4208D3890192118B4204D389013AD0AE
:10054000921100E08909C3098B4201D3CB01C01A83
:10055000524183098B4201D38B01C01A5241430996
:100560008B4201D34B01C01A524103098B4201D384
:100570000B01C01A5241C3088B4201D3CB00C01AF1
:10058000524183088B4201D38B00C01A5241D9D209
:1005900043088B4201D34B00C01A5241411A00D28A
:1005A00001465241104663465B1001D34042002B86
:1005B00000D54942704763465B1000D3404201B505
:1005C0000449002802DC491C084000E00846C046F7
:1005D000C04602BDFFFFFF7F7047704770477546FA
:1005E00000F024F8AE46050069465346C008C00036
:1005F000854618B020B5FFF7D1FD60BCB646002691
:100600000027C0C5C0C5C0C5C0C5C0C5C0C5C0C520
:10061000C0C5403D490849008D46704710B50446A5
:10062000C046C0462046FFF7AAFD10BD00487047EF
:100630000800202001491820ABBEFEE7260002007A
:100640007047811E091F00BFFCD27047F0B53C4ABD
:1006500082183C4BC31808794E793B4D3B4C002E19
:1006600023D0202804D00526F601002803D003E07B
:10067000374E002800D18826576F2F4037435767E1
:10068000976F2F4037439767566B26405663966B9C
:10069000264096630026566596658F26F6435F686A
:1006A00037405F609F6837409F608E7909682028D7
:1006B0000BD0002819D1491E5160D76E2F408821D8
:1006C0000F43D7661746703719E0491E5160D16E47
:1006D00029401F4F3943D166116F294039431167B3
:1006E000012149071B4D174609E049085160D76EA3
:1006F0002F400521C9010F43D766174670373C6864
:100700002C400C433C60D16A104C2140D162116BEB
:10071000214011630021D16411658F21C943D46F39
:100720000C40D4671C680C401C600643BD20304060
:100730001168094B0B40C018801C1060F0BDC0460A
:10074000041800008418000024493E008888FDFF3A
:1007500001040000FFFFFFCF4000FFCF10B50723CB
:100760009B04194092008018024A84589C436118E7
:10077000815010BD3018000010B5029CA400001973
:1007800011431943014A815010BDC0465018000062
:1007900092008018014A81507047C046101800002E
:1007A00010B50122120383180C789C604B7883509B
:1007B0008978014A815010BD0C110000F0B581B05C
:1007C000204801461039096801256C051E4B1A4660
:1007D000103A176827400022D643090203D4002F9D
:1007E0001AD101B0F0BDE90502680A4302607A48F7
:1007F00000F0F4F800960646E906774800F0EEF8B7
:100800007040009E304600D1284610490A68801882
:1008100008600D4B002FE4D01868204318607B4817
:10082000214600F0DBF804460125A9056A4800F0DE
:10083000D5F8604000D13546054801686918016067
:1008400001B0F0BD48300A4048100A40F8012020AD
:100850009402202010B5284A8120D06227490860E0
:10086000274BCB641060274C9466D466546594651E
:100870009463D464D465D46348608861906293645F
:100880005366536353649060506008654865C8655B
:10089000886548660866106608674867C8638863A5
:1008A00062481949016106220260891D0164032022
:1008B0008102164A13680B43136001214A05144B49
:1008C0001C6A14431C621C6814431C60114A124BBE
:1008D00013614B041360114B13648003104A1368B7
:1008E00003431360C8050F490A6A02430A620A6893
:1008F00002430A6010BDC0468480424004804240EA
:1009000081000E0081000C00013C0000A0130A4091
:1009100028100A4090320A40CC330504CC33070437
:10092000A0330A4028300A400948002101600948E4
:10093000014608390A6803239A430A6001680122C4
:1009400091430160110202688A4302607047C04609
:1009500008030B4008010B4080B500F005F8FFF7D5
:1009600079FFFFF7E1FF80BD80B506480649416089
:10097000064A51600649016011601020FFF761FED0
:1009800080BDC04600080A40030000B100280A40AC
:100990000100002608480168491C016007480178E9
:1009A000072903D80178491C017070470448016881
:1009B000491C01607047C046940320207C0220201F
:1009C000780220201049002800D110310120800435
:1009D000014A88507047C04600200A402722D201B1
:1009E00080580840411E884170470000064B002A8D
:1009F00000D11033C15070470349002800D1103195
:100A0000024801220A5070479012000000000A407C
:100A100070B5064C01252560484E7D200002FFF789
:100A200010FE761CF9D3256170BDC04690120A40B5
:100A3000012040020249096801404842484170478C
:100A400080130A400020B249085E7047A54800683C
:100A5000AD49884200DC0846AC49884200DB0846C4
:100A60007047C0460020A749085E70479C48006850
:100A7000A549884200DC0846A449884200DB0846B4
:100A80007047C04610B584B0044601A800F054F980
:100A9000002803D10020C04304B010BD0298201AE2
:100AA00004B010BD80B58C490020087093490870CF
:100AB0008A490870904908708C4908708A49086012
:100AC0009049088087490860854908608C4908601A
:100AD0008F4908809349088002F0F8F980BDC0462C
:100AE0007D4800787047C04680B50146844A0020A2
:100AF0001060824A1170002903D18A49088002F0EF
:100B0000EFF980BD7E4900220A600C49884200DC72
:100B100008467D21C900884200DB084679490880E3
:100B200070490968401A7849884200DC08467749CC
:100B3000884200DB084676490880704718FCFFFFB2
:100B4000F0B589B00C46054606A800F0F5F8002877
:100B50005CD006A88078012100263B28084600D8F2
:100B60003046079FEA1B652A00D3314608405A49A0
:100B7000087001285CD105945848017801260029A5
:100B800048D05948006806A9CC78584909788C4261
:100B900001D187424BD03A1A1423642A194600D84F
:100BA0001146874200D00B4601934D4801680291DF
:100BB000184648437D21CD00294602F0EFFA002176
:100BC00006AA515E474A126880180490081A0390DA
:100BD00045430198C100284602F0E0FA0299401806
:100BE0004349884200DC08464249884200DB084607
:100BF0003B490860032003994843C117890F4018F7
:100C0000801004994018374908600CE032480026EB
:100C100006700DE0324900220A60067006A8815E67
:100C2000304A1160C4783048076030480470059C31
:100C300031490878401C0870C0B20A284AD3002005
:100C400008702E4909780E40012E3CD123490978BD
:100C5000002938D000202B49085E22490968421A31
:100C60002948824200DC024626462848824200DBB0
:100C70000246274802800A210B4653432048046855
:100C80001B19244CA34200DC2346234CA34200DB67
:100C900023460360CD20504302F080FA05461048F9
:100CA00001684B2048430921C94302F077FAF1005B
:100CB000691808181949884200DC08461849884212
:100CC00003DB084601E00E4908601649088000B2BF
:100CD00002F006F909B0F0BDA0002020AA002020F3
:100CE000C0002020BC002020B4002020B000202024
:100CF00078ECFFFF88130000AC0020209C0020202F
:100D0000C4002020B80020200080FFFFFF7F0000EB
:100D1000A4002020C0F2FCFF400D0300A8E4FFFF68
:100D2000581B0000A80020201748C0697047C04623
:100D3000154880697047C04610B5002815D0124A82
:100D4000137AD907FCD151890180117B8170517BC5
:100D5000C17011694160117D0172147AA342EFD113
:100D600001231C40ECD1084610BD002010BDC04638
:100D700005480021017241810173417301610175D0
:100D80008161C171C1617047A003202010B50024AA
:100D9000204601F035FB01F0DDFD044884638486C4
:100DA0004486C48184800621017010BD6C0120201E
:100DB000F0B58BB001460020002964D07F22930259
:100DC0001F680F605D684D609A688A60DC680094F7
:100DD000CC601C6901940C615C6902944C619E6951
:100DE0008E61DC690394CC611C6A04940C625C6AB9
:100DF00005944C629C6A06948C62DC6A0794CC620F
:100E00001C6B08940C635C6B09944C639C6B8C6347
:100E1000DB6B0A93CB631D49794001236B400B4385
:100E200007214C401C43631E9C4173427341234382
:100E300029D11748424017484243009B5A40424339
:100E4000019B5A404243029B5A40424372404243F4
:100E5000039B5A404243049B5A404243059B5A40DD
:100E60004243069B5A404243079B5A404243089BD9
:100E70005A404243099B5A4042434A4042430A98DF
:100E8000811A484248410BB0F0BDC046314C414345
:100E9000A766714B93010001F0B581B02E4D284635
:100EA000FFF786FF2D4F38702D490870E84E304609
:100EB00014300024214601F069FA01F097FD01F099
:100EC00071FF01F0E5FA02F01FF800F031FC00F0CC
:100ED00013FF204601F066F8DE4802210170012070
:100EE0003074DD4804803878002800D0A86800F00D
:100EF00001FA01F04DFE2046FFF764FDFFF788FD83
:100F0000708CEB490880B08CEA4908802620305C60
:100F1000F34908702720305CF2490870F07D1149D0
:100F20000870307E10490870B06AF16A0F4A10608C
:100F30000F480160308EE049088001F02BFFEA493C
:100F4000087001F045FFE949087001F027FFE84902
:100F5000087001B0F0BDC04650032020900320204F
:100F600044012020F6012020F501202068012020E6
:100F700064012020F0B581B0FFF75AFD064602F06B
:100F800045F8074602F002F8054600F02DFA04463F
:100F9000AB480670AB480770AB480570284601F0B7
:100FA000DDFFAA490870AA48807900281CD127468D
:100FB000A848047800F0B8FB844203D0A548007824
:100FC00000F0E0FB00F0B0FB06283C460CD1A24844
:100FD0000488FFF747FD80B284423C4604D00020DD
:100FE0009D49085E00F0B6FB002E15D0984F38885A
:100FF0001D2803D8411C39801D2811D138790028BB
:101000000ED101203871B879012848D100203881EB
:10101000B87100F04DFC03E000208D4F387138802E
:101020002046294600F056FC00F07AFBC11F01293A
:1010300008D80025BD7107280DD1387C002820D0A4
:10104000002025E0B87985490870FFF7BBFCFFF761
:1010500047FD05464DE0814805702846FFF7B2FC84
:1010600000F04AFB09282AD80126C04678440079B6
:10107000400087443E2424242424290426280226D0
:1010800022E000F045FB00F08DFF01203874B879B4
:101090007249087001252840FFF794FC29E001F00F
:1010A000B5FF01F073FF064601F072FD00203874B1
:1010B00000F09AF9314600F08BFBB871B0E70526D5
:1010C00002E0032600E0042665492046FFF788F980
:1010D00088B28008634A4243500D864209D94B22A8
:1010E00092004243881A80B2962801D3002500E07E
:1010F00001252846FFF780FC00F016FB5A490870CE
:1011000000F00EFB5949087000F0F6FA58490870D3
:10111000204600F0E1FA5749086000F0F9FA564914
:10112000086000F0D5FA5549086000F0F5FA544916
:10113000088000F0C9FA53490860FFF793FC524950
:101140000880FFF783FC51490880FFF78FFC504966
:101150000880FFF777FC4F49088001F0B1FE4E4947
:101160000880FFF7BDFC4D4908702046FFF78AFC58
:101170004B490860FFF7DCFD4A490860FFF7D4FDE2
:101180004949086000F00CF94849086000F0BCFAD1
:101190004749088047480024048000F0B1FA4649D6
:1011A000088001F055F94549086001F061F94449AA
:1011B000086001F059F9434D288001F065F9424E6D
:1011C0003080285F00F0CAF840490860305F00F0C6
:1011D000C5F83F49086001F043F93E4D288001F011
:1011E0004FF93D4C208001F02FF93C4908702888C8
:1011F00001B2C9134840401A81B2C820C82900D39F
:101200000146374A117021880AB2D2135140891A17
:1012100089B2C82900D301463248017001F0DCFDD3
:1012200001F0F0FD01F0B6FD2F49087001F0D0FD8E
:101230002E49087001F0B2FD2D49087001B0F0BDD3
:101240004C0320209E032020990320209803202077
:1012500068002020D8012020D60120200002202074
:10126000B80B00003B6D0000E5012020E4012020C8
:10127000D4012020D0012020DC012020CC0120201E
:10128000E2012020C0012020C8012020C60120202A
:10129000CA012020C4012020E0012020F4012020E8
:1012A000E8012020F0012020EC0120209C022020D9
:1012B0009C0320209A032020600120204801202048
:1012C000540120204C0120205801202050012020D2
:1012D0005C012020FE0120209A02202074022020A0
:1012E000FC01202098022020910220209202202040
:1012F00093022020B0B50446074D28463C304021DB
:10130000FFF76BF8601C68642846103001F04CF859
:10131000002068602880B0BDC8002020F0B581B0F2
:101320000546C1171C4A00242346FEF745FF1B4A09
:101330001268D30FD318DF175E107342BC41002D23
:1013400000D43C46002D00D4334618184C41D31726
:101350002146FEF749FF01B0F0BDC046F0B581B0AF
:101360000546C1170C4A00242346FEF725FF0B4A09
:1013700013680A225A43D31757107E429C41002D0E
:1013800000D41C46002D00D43E4630184C41214666
:10139000FEF72AFF01B0F0BD40420F000000202000
:1013A0000D4800687047C04610B519490020087004
:1013B0000F490860084908600849094A4A60FF2245
:1013C0001206084B1C68944303229207A2181A6065
:1013D00088600720086010BD7802202010E000E03F
:1013E000FF7C000020ED00E0014800687047C04627
:1013F00094032020EFF3108072B605490878002886
:1014000002D00A78521E0A70411E884162B67047A7
:101410007C022020EFF3108172B618490968184A3F
:10142000126806C062B67047EFF3108072B61348B8
:10143000002101601248016062B60120C105074A1F
:1014400013680B431360400505490A6802430A60AC
:1014500004480221016001607047C04648300A40DC
:1014600048100A4000E100E0EFF3108072B6034834
:10147000002101600248016062B67047F801202037
:1014800094022020B0B504460025284600F0B8FF9D
:1014900001F07EFBCD4885634470C58185800821BD
:1014A0000170B0BD70B500280DD013460479012C31
:1014B0000ED10AB2D2130C465440A21A14B2012C17
:1014C0000BDC00241EE00020014601F049F870BD4D
:1014D00044882C2C03D8002602E0541E12E001267A
:1014E000551EAB4103290D4600DB03253340632C19
:1014F00000D80D469A4029B2C9132B464B405C1ABE
:1015000029461346008AC01800B222B2904203DC7A
:101510005442A04200DB0446081B00B2611809B225
:1015200001F01EF870BD00280BD00021C1800171B0
:1015300041800170018141818181C18101824182AB
:101540000175704700280BD00021C18001714180D6
:101550000170018141818181C181018241820175D6
:1015600070470000F0B581B0002800D198E0037802
:101570005B1C0370DBB2052B00D291E000260670E5
:10158000012300934F4C002918D017460546084602
:1015900001F0FDFC0146E01F80B24A1F92B2824278
:1015A00000D2012628460A22AB5E002B009D3A4657
:1015B00000D03546012D14D189001AE000210171B7
:1015C0004388E51EADB2AB4242D20026C6815D1D06
:1015D00045800589C580272B3DD8048A002A34D14F
:1015E0004AE003255D43890069188B0FC9188910EB
:1015F0000026418101230371002343800BB29B0F1E
:10160000C91809B28910C180838981810181CB1AEF
:101610001BB20327FD43AB4200DC2B46042B00DB4F
:101620000423C381002A00D008277943002A00D070
:10163000C918172903DD0224002A06D11CE016234D
:10164000DB4399420CDA002A16D0002E17D01AE09C
:10165000C1810589C5802BB2002B08DD022412E070
:10166000CB175B0FC918CC08002AEED104E00AD4CE
:10167000048A0E46002AE8D1009E002E03D1028A79
:10168000A1B291420ED10021017544821021415E28
:1016900022B28A4201DD491C01E001DA491E0182C1
:1016A00001B0F0BD428A914207D1017D0E29EAD8EE
:1016B0004A1D02750A29E6D2F2E705210175448226
:1016C00001B0F0BDFEFF00008148806B7047C0464E
:1016D0007F48C06A7047C0467D4A116A002901D020
:1016E000084670471178002903D0D169411A08468D
:1016F000704700207047C046754840787047C04624
:101700004C207349085E704742207149085E70475B
:101710006F48006A7047C04632206D49085E7047C6
:101720006B4800787047C046694880787047C0466B
:1017300010B56748002404860221817004803C3083
:10174000FFF7F1FEFFF714FBFFF7ACF92046FFF7B8
:10175000CBF910BD10B57D21CA00821894B20901E1
:101760008C4206D85A4908868978062901D1FFF7A4
:10177000C9F90348844201D3002010BD012010BDE7
:10178000D1070000B0B5821E0021042A1CD8504A9F
:101790001378082B18D8012425469D40FF23823357
:1017A0001D4211D09070C11E032901D2002002E019
:1017B000062805D1108E00B2FFF7A4F9204600E0FC
:1017C0000020FFF791F921460846B0BD6C012020AA
:1017D000F0B581B00C463E4EB578A91E05292DD234
:1017E0000027B7867786F762F06137627770F01C62
:1017F0000D21FEF7F0FDB77677617782E12040009A
:10180000022D009000D1B4203082B7637476347614
:1018100030463C30FFF796FEB578032D10D1FFF728
:101820005FF9002819D001242046FFF75DF90098E0
:101830003230FFF767F92046022414E001200FE060
:10184000002C0CD0032D04D3FFF74AF9002804D054
:10185000B578062D0DD038460CE0032000E00220BC
:101860007070002008240021F181B180347001B033
:10187000F0BD308EFE242C40042C00D0074638B238
:10188000FFF740F9201F41424141AA1F50425041F9
:101890000843FFF729F900F03FFE0124204600F03D
:1018A000AFFD00F0C3FD7062B0622046DBE7C046CA
:1018B00010B50024204600F0A3FD01F069F9F848B6
:1018C000846384864486C4818480047010BDC046CD
:1018D0006C012020F0B585B0F14F3A78082A0AD87B
:1018E00001239340FF248234234204D00021FFF7D8
:1018F00027F905B0F0BDBB885B1CBB80931E032B92
:1019000033D2002405462146FFF71AF9FFF7E8F81D
:10191000002843D0BC813878042800D1CBE00328CC
:1019200000D1B2E0022829464CD1FFF78BF82946B6
:1019300002B2D2135040801A80B2322841D8FFF749
:1019400095F8294602B2D2135040801A80B2C828B6
:1019500037D8F889401CF88180B2782832D3D14832
:10196000FFF7D0F82946032629E0062A40D10024B3
:1019700005462146FFF7E4F8B888782800D258E1F8
:1019800001F006F9386A002802D1F869281A38628D
:10199000FC81BC800720387005B0F0BDB889401CC0
:1019A000B88180B2962829460CD3204600F028FD45
:1019B00001F0EEF82946BC63042078700826BC804C
:1019C0003E70FC81F869081AB749884200D230E1BC
:1019D0003878072800D12CE1204600F011FD01F0F5
:1019E000D7F8BC63B1483880FC81BC8005B0F0BD3D
:1019F00004900C4600F01AFD796A0290401AC11753
:101A00004840401AFFF78AFC05467D20C100284661
:101A1000019101F0C3FB2146F8623C7E39767B7E62
:101A20007C76012600220392A14A9542324600DCD0
:101A3000039AA04D4019A04DA84200D3039E324303
:101A40001846204023430B400343DEB23C463C345F
:101A500020463146FFF786FD002E4ED00020F8804C
:101A6000BA78032A60D3FFF73BF8002852D0002051
:101A7000B881FEF7EBFF01B2C9134840401A80B2AB
:101A80008F4988424FD905257FE0FEF7DBFF01B281
:101A9000C9134840401A80B23228294692D8FEF72E
:101AA000E5FF294602B2D2135040801A80B2C928FD
:101AB00088D2042683E7FEF7C5FF01B2C913484068
:101AC000401A80B20326322822D8FEF7CFFF01B297
:101AD000C9134840401A80B2C828294600D96EE789
:101AE000F889401CF88180B280084B2800D269E751
:101AF000F869081A3862072661E7F8886F494A1CB6
:101B00000625904241D2421CFA808842A8D13CE08E
:101B1000294654E7B8890425952836D8411CB9814F
:101B20009528A6D131E0BA78F9690498411A921E35
:101B3000D2B2022A03D8920063A39A5800E0614A05
:101B4000914221D2397805292DD0082900D1CDE63E
:101B5000F96A584A53186433574D96350A22AB42F6
:101B6000134600D3142387256D01A94200DC1A46D1
:101B7000F98F89B26429114600D303214023FB5C0D
:101B8000002B11D10A460FE008250024204600F062
:101B900037FC00F0FDFFBC637D70FC81BC80082039
:101BA00038700498A2E60222BA867B8E19B291425E
:101BB00001DC3C2500E02D25934204D1354600216F
:101BC000B963398223E03B8A9D4204D93546591CCA
:101BD0003982B96B1BE0002038829142039501DB0A
:101BE000C04300E001203546401878860846FFF7DC
:101BF000B5FB06463220385EFFF7B0FB811B01982B
:101C00004843039901F0CAFA0146B8630498FEF705
:101C100097FF3220395E002620463246FFF742FC0D
:101C200000F0E8FC00F010FC002804D00720FFF7CB
:101C300029FC05B0F0BD387805280ED1B86A0299A4
:101C4000081AC1174840401AFFF768FB2349884229
:101C5000EFDBFFF79BF805B0F0BDB87804280FD193
:101C6000F86A1C4988420BDB0298B862FE81BE808C
:101C700005203870F9690498401A386205B0F0BD43
:101C8000284601F00BFA002803D0B8780228E0D0EB
:101C9000EAE7F86A10498842CBDB0920C7E7C0466B
:101CA0006C0120200CFEFFFF8813000008080000D4
:101CB00087754300BAFAFFFF1D07000057020000B6
:101CC0004C040000B8880000C0D401008813000054
:101CD00010270000DC050000911A0000A08601001A
:101CE00004488121016001200002AC4908600864B9
:101CF0007047C0464C804240F0B58DB0A7480221E5
:101D000001610421016001204604A54806607D2090
:101D10000402C720C5432F462046FEF792FC7F1CD5
:101D2000FAD39F4F3E61012000F092FA3E602F46A9
:101D300032372046FEF785FC7F1CFAD3984F3E6170
:101D4000112000F085FA3E6050352046FEF779FC00
:101D50006D1CFAD3924F3E61362000F079FA3E6056
:101D6000A02000F075FA3E613A2000F071FA3E6062
:101D70000520099000F06CFA3E61B22000F068FA8C
:101D80003E600C25284600F063FA284600F060FA11
:101D900000200A9000F05CFA33250C95284600F0EC
:101DA00057FA284600F054FA3E61B72000F050FA86
:101DB0003E60352000F04CFA3E61BB2000F048FA4E
:101DC0003E60322000F044FA3E61C22000F040FA4A
:101DD0003E60012000F03CFA3E61C32000F038FA7A
:101DE0003E6015200B9000F033FA3E61C42000F0F5
:101DF0002FFA3E60202000F02BFA3E61C62000F052
:101E000027FA3E600F2000F023FA3E61D0252846D5
:101E1000089500F01DFA3E60A42000F019FAA120F8
:101E200000F016FA3E61E02000F012FA3E6028460B
:101E300000F00EFA0820079000F00AFA0E20069033
:101E400000F006FA0927384600F002FA384600F09A
:101E5000FFF9099800F0FCF931252846029500F0B9
:101E6000F7F90C9800F0F4F94820099000F0F0F927
:101E70001720059000F0ECF91420049000F0E8F928
:101E80000B9800F0E5F9284600F0E2F934200390C1
:101E900000F0DEF9ED4D2E61E12000F0D9F92E6061
:101EA000089800F0D5F9079800F0D2F9069800F0EC
:101EB000CFF9384600F0CCF9384600F0C9F90B9F4D
:101EC000384600F0C5F9029D284600F0C1F90C988B
:101ED00000F0BEF9099800F0BBF9059800F0B8F9D8
:101EE000049800F0B5F9384600F0B2F9284600F041
:101EF000AFF9039800F0ACF9D44D2E61212000F029
:101F0000A7F92E602E61292000F0A2F92E6020464C
:101F1000FEF797FB2046FEF794FB2046FEF791FB69
:101F20002046FEF78EFB2046FEF78BFB2046FEF791
:101F300088FB2046FEF785FB2046FEF782FB204605
:101F4000FEF77FFB2046FEF77CFB2046FEF779FB81
:101F50002046FEF776FB2046FEF773FB2046FEF791
:101F600070FB2046FEF76DFB2046FEF76AFB20461D
:101F7000FEF767FB2046FEF764FB2046FEF761FB99
:101F80002046FEF75EFB0A980090FF221832EF23EE
:101F9000014600F003F90DB0F0BDC04690120A40B2
:101FA00090320A40F0B58BB00746714887420897D7
:101FB00000D307466F49384601F0CEF809AD2870C6
:101FC0007D20C6003846314601F0C6F8CD21029189
:101FD0004143C90A0A246143411A69704643B81B48
:101FE00081B28A08644B53435A0CAA70634A4A432D
:101FF000D10C22464A43801A2871C8B2029A504333
:10200000C00A01946043081AE87000240094082074
:102010004821ED22A32300F0C1F8594808998142D4
:1020200003D3584F00290BD103E03F20470100297B
:1020300006D1554F04E0039C641C052C00D18DE0B3
:1020400009A8005D02994143C90A019A5143401A07
:10205000C0B24EA10D5C039460004F490C5A20465B
:102060002130069020461C300590601D04902046CB
:102070001B300890A01D0790012004E000F08EF8AE
:102080007000212ED7D206462842F9D0701E3F2874
:10209000F6D8C0467844007940008744344E334532
:1020A0003333332A333333333333335733333333E5
:1020B00033333333333333333333333D33333333E6
:1020C00033333333333333333333333333333333E0
:1020D00033333333333333333333331FB8B20090B6
:1020E000079880B208998AB275217A2300F056F8D1
:1020F000A1E7B8B20090079880B208998AB29621F9
:102100009B23BBE7BCE7B8B20090079880B2089960
:102110008AB254215923B1E7B8B20090049882B230
:102120005A2177232046A9E7B8B20090059880B2DB
:1021300006998AB278219523A0E7B8B20090059855
:1021400080B206998AB25A21772397E7B8B20090F5
:10215000049882B27821952320468FE7B8B2009088
:10216000632092216A22992300F018F80BB0F0BD89
:102170009F860100102700007B140000CDCC0000DA
:10218000214E000000F8FFFF1084FFFF3F065B4F69
:10219000666D7D077F6F00004E330000F0B583B0A1
:1021A000904201D903B0F0BD0D46D1082229F9D8DB
:1021B000AB42F7D301214E04244C26612A21074665
:1021C000019008460092029300F042F8266014370E
:1021D000B8B2000A00F03CF8F8B200F039F8009C00
:1021E00027461437B8B2000A00F032F8F8B200F00F
:1021F0002FF8164F3E612B2000F02AF83E60280A87
:1022000000F026F8E8B200F023F80298000A00F087
:102210001FF80298C0B200F01BF83E612C2000F0BD
:1022200017F802993E600198201A461CBAD2089FFE
:10223000481B80B2401C46433C0A204600F008F888
:10224000F8B200F005F8761EF7D1ABE790320A40FD
:10225000F0B583B006464C4D02272F610824204676
:10226000FEF7EFF9029670B22E461036002830467F
:1022700000DA28460421019101602046FEF7E1F9C9
:102280002F602046FEF7DDF92F612046FEF7D9F9D1
:1022900002984006304600D5284601990160204644
:1022A000FEF7CFF92F602046FEF7CBF92F612046CD
:1022B000FEF7C7F902988006304600D528460199F6
:1022C00001602046FEF7BDF92F602046FEF7B9F900
:1022D0002F612046FEF7B5F90298C006304600D5BA
:1022E0002846019901602046FEF7ABF92F60204691
:1022F000FEF7A7F92F612046FEF7A3F90298000721
:10230000304600D52846019901602046FEF799F92C
:102310002F602046FEF795F92F612046FEF791F9D0
:1023200002984007304600D52846019901602046B2
:10233000FEF787F92F602046FEF783F92F612046CC
:10234000FEF77FF902988007304600D528460199AC
:1023500001602046FEF775F92F602046FEF771F9FF
:102360002F612046FEF76DF90298C00700D02E4677
:10237000019830602046FEF764F92F602046FEF792
:1023800060F903B0F0BDC04690120A4000280AD0A0
:1023900000220171C170827002808260C26002619D
:1023A000426182618283704770B584B0002813D087
:1023B000042150220823009301920291044608341C
:1023C0000025064620462A462B4600F087FC35604D
:1023D0007560204600F09BFC04B070BDFEF7BCFAAF
:1023E000FFF77EFCFEF758FDFEF7DEFF00E030BF92
:1023F000FFF700F80028FAD0FEF7BCFDF8E7000070
:1024000010B57B4C207000280ED10020A081608187
:10241000A08060802046283000F079FC4C342046B3
:1024200000F075FC00F0B4FB10BDC04680B582B072
:102430006846FEF7EFFF009801990818C10F401891
:10244000401002B080BD000024206949085C70473C
:1024500080B582B06846FEF7DDFF009802B080BD0F
:102460000A206349085E704706206149085E70478C
:1024700080B582B06846FEF7CDFF019802B080BDFE
:102480000C205B49085E704708205949085E704778
:10249000F0B589B0FEF7C8FF2D2105914B20000152
:1024A00004900A24009401900291514E3046283045
:1024B0000690122703220392002539462B4600F08E
:1024C0000DFC0094049801900598029034464C3419
:1024D00020463946039A2B4600F000FCFEF7C4FF65
:1024E00007A8FEF797FF35607560B560B581304687
:1024F000183005730898079931617061B561F5610D
:102500003562069800F003FC204600F000FC00F065
:102510003FFB09B0F0BDC04610B582B0FEF7A4FF86
:102520006846FEF777FF324C002020606060A060B4
:10253000A0812146183108730199009A22616161D6
:10254000A061E06120622046283000F0E0FB4C34BE
:10255000204600F0DCFB00F01BFB02B010BDC046C3
:1025600070B50D460446002812D001200022002C30
:10257000014600DC11460223F34EF35E012B04DA20
:10258000414005D0002D09D116E010464140F9D157
:10259000ED48283000F0BBFB002D0DD001200022BB
:1025A000002D014600DC11460423E74EF35E012BAB
:1025B00000DB1046414003D1E3484C3000F0A7FB5C
:1025C0001320C043854200DC05461421142D00DB96
:1025D0000D46DD4A9580844203DD142C04DA5480D4
:1025E00070BD0446142CFADB0C46548070BDC04606
:1025F00004022020F0B58FB0D34C2078012805D1FB
:102600006078401C6070C0B20A2801D20FB0F0BDE3
:10261000002666700DA8FEF7FDFE20690D99216168
:1026200062690E9B6361081A0B90E080991A0C9105
:10263000218102210391655E002D33460AD0618914
:102640000AB2D2135140891A89B2132901D8002342
:1026500000E0012304210291615E069100290AD065
:10266000A1890AB2D2135140891A89B2132901D81B
:10267000002600E001260B9801B20A910127012DE6
:10268000019503DB0A99002938460BD401212A461B
:102690000025002A084600D428460A9A002A00DCB1
:1026A0002946084004900C990AB2069D012D09970D
:1026B00002DB002A07970AD401210027002D0D46CE
:1026C00000D43D46002A00DC39460D4007950B98A2
:1026D00081B24D424D411D4000279C48012D394695
:1026E000059205D1218B9A4A9142099A06D20A3164
:1026F0002183814201D83A4600E001220C9989B237
:102700004D424D4135400021012D0F4606D1678BCA
:102710008F4DAF42099D089505D20A3767838742DE
:1027200000D901210891049803400021012B0B4698
:10273000099F05D1A38B864DAB423D4606D20A3395
:10274000A383632B01D80D4600E00125049507996A
:102750000E400021012E0D461646059A05D1E58B47
:102760007B4B9D423B4606D20A35E583632D01D85B
:102770000B4600E001230A99C9130B984840401A00
:1027800080B200211F280D4605D3258C7048854254
:10279000384606D20A352584312D01D8084600E096
:1027A0000120D1130C9D4D40691A89B200251F29C3
:1027B000294604D3618C664A91422ED20A31618443
:1027C000312900D90125002E394600D10899002968
:1027D000394600D1049900293A4600D11A46002A08
:1027E0003A4600D10246002A384600D12846012840
:1027F00024D02420205C002831D100260199002912
:1028000049D0204628300A9A00F089FA0221615EF8
:10281000012944DB4A00163247E0002E394600D138
:10282000089900293946049A00D1114600293A46F0
:1028300000D11A46002A00D107463A46002B01D1A2
:102840000520029008980028039B1AD0002E1BD167
:1028500000291CD0002A00D1062324202354002064
:10286000A0816081A080608020702046283000F028
:102870004EFA4C34204600F04AFA00F089F90FB0C5
:10288000F0BD0323002EE3D001230029E2D1029BF7
:10289000002AE1D0E1E731463546069B07E00029F2
:1028A00001D4002201E04A00163A1518A388180442
:1028B00017D00820225E20464C3019B200F02FFAC3
:1028C0000421615E012902DB4A00163205E000297D
:1028D00001D4002201E04A00163A4F424F41161837
:1028E00061886823D843864200DC0646692E00DBF7
:1028F000692600220804104611D0D843854200DC26
:102900000546692D00DB69250A20205EC31E9D4215
:10291000294600DC1946C01C854200DC084660815F
:10292000002F0AD10C21625ED31E9E42314600DC8C
:102930001946D21C964200DC0A46A28100B211B2AE
:1029400000F04CF90FB0F0BD040220201F0300007E
:10295000F6FF0000F0B581B001246603DB4D284688
:1029600031462246FEF742F8210328462246FEF76A
:102970003DF8A10228462246FEF738F8E102284633
:102980002246FEF733F8D24D402128462246FEF774
:102990002DF8610228462246FEF728F828463146DF
:1029A0002246FEF723F8082128462246FEF71EF8A5
:1029B000C84F0026384631463246FDF7E9FE02226E
:1029C00038463146FDF7E4FE032238463146FDF72E
:1029D000DFFEC14831463246FDF7DAFE8021284647
:1029E0002246FEF703F801B0F0BDC046F0B58BB04B
:1029F0000AAF0024BC7008200590388001200790A1
:102A00000002099019208001019008905648842105
:102A10008162832181638521049101605348544977
:102A200041605449016010200390FDF70AFEA94E51
:102A300030463946FDF7B4FE08A93046FDF706FEDC
:102A4000009430463746214622462346FDF794FE41
:102A50000225009506953046214622462346FDF77D
:102A60008BFE032600963846214622462346FDF774
:102A700083FE384621462246FDF770FE3846214641
:102A80002A46FDF76BFE3846214632460296FDF790
:102A900065FE3846019D29462246FDF779FE3846F7
:102AA0002946069AFDF774FE384629463246FDF758
:102AB0006FFE3148079A82600D2101602F4801683E
:102AC000114301600AAFBC700598388009940895DD
:102AD0002B48049901602B48254941602549016034
:102AE0000398FDF7AEFD7C4E30463946FDF758FEA3
:102AF00008A93046FDF7AAFD00943046214622463B
:102B00002346FDF739FE304621462246FDF726FED4
:102B10003046374629462246FDF73AFE1A48079ABC
:102B20008260026019480168114301602A480270FE
:102B3000684E304629462246FDF72AFE3046294691
:102B4000069AFDF725FE30462946029AFDF720FE3B
:102B5000384629462246FDF71BFED24880212246F0
:102B6000FDF744FF0BB0F0BD3C80424000088640BA
:102B7000030000B1010000260011864004188640C1
:102B8000E480424000888640009186400498864058
:102B900070B511480078012817D1192084014D4ED5
:102BA0000025304621462A46FDF7F2FD0222304636
:102BB0002146FDF7EDFD032230462146FDF7E8FDF5
:102BC000454821462A46FDF7E3FDB648802100220C
:102BD000FDF70CFF70BDC04675022020F0B583B034
:102BE0000C4601260021019102900028354600DAAA
:102BF000019D7103354800912A46FDF7F7FE310328
:102C0000029880B2C70B31483A46FDF7EFFEB10299
:102C10002E483A46FDF7EAFEF1022C482A46FDF717
:102C2000E5FE002C374600DA019F9E4840213A46D7
:102C3000FDF7DCFE7102A0B2C50B9A4E30462A4663
:102C4000FDF7D4FE304600992A46FDF7CFFE082155
:102C500030463A46FDF7CAFE20B2C0132146414035
:102C6000081A80B2C825C82800D32846C0001921F8
:102C70008E01371A17483946019AFDF789FD0299E6
:102C800008B2C0134140081A80B2C82800D32846B1
:102C9000C000351A02220F4E30462946FDF778FD56
:102CA000032230463946FDF773FD0B482946019A49
:102CB000FDF76EFD02980443601E8441802179482F
:102CC0002246FDF793FE03B0F0BDC04600000A4067
:102CD00000200A400000864000808640F0B581B0A8
:102CE000002812D00093089B079E069D20270024F1
:102CF000C455066143618461C46106C000990160E6
:102D00000838012D00D80125C56001B0F0BD0028AC
:102D100004D02021002242548261C261704770B504
:102D2000002809D0891A2022825C03462033002A19
:102D300004D0C2698A1A02E0002070BD0022C1617D
:102D400001241C7083695C1803695E42B442254605
:102D500000DC35469C4200DC2B46836144685C43C2
:102D600003685943611883685A438A18C168044646
:102D7000104600F013FA01466069434299420A4640
:102D800002DD814203DD70BD1A468142FBDC104644
:102D900070BD0000424800787047C0464748007840
:102DA0007047C046B0B54148002404603E48046006
:102DB0003B4804703F4804703F4D2C703F480470FE
:102DC00001200104B4482246FDF710FE2C70B0BD6E
:102DD000394800787047C04610B534480024046074
:102DE000314804602E48047032480470334804703F
:102DF00001200104A8482246FDF7F8FD2E48047082
:102E000010BDC046F0B581B0254A157801242104D3
:102E1000A148002D0FD024480768244E33685B1E5C
:102E2000BB420AD20024346004601470214804704C
:102E30002248047008E0002407E01D4B9F420BD39A
:102E40001E4804700024147093482246FDF7CEFDFE
:102E50001948047001B0F0BD0E46791C01600A21CA
:102E6000284600F079F9134909780027814201D3F7
:102E70003A4600E00122632D874800D814463146C7
:102E80002246FDF7B3FD0C4804700A4A1078401C36
:102E9000C1B2092900D80746177001B0F0BDC0467D
:102EA0008802202000200A40800220208402202066
:102EB000307500008C0220208E02202090022020FD
:102EC00000201049085E704770477047B0B50D4C40
:102ED00000252580FFF7F8FF605FFFF7F6FFB0BD24
:102EE00080B50649884200DC08460549884200DB77
:102EF000084604490880FFF7E8FF80BDA8E4FFFF0B
:102F0000581B000046012020F0B583B0114E30461A
:102F10003830FFF749FA08217D2738010A2200924C
:102F2000019002913046643000240C2522462B4645
:102F3000FFF7D4FE0320029007480190F8000090AC
:102F400030468830062122462B46FFF7C7FE3470F4
:102F500003B0F0BDA0022020400D0300012101407C
:102F60008207D20F51184207D20F51180207D20F11
:102F70005118C206D20F51188206D20F51184206BC
:102F8000D20F5118C0094018C0B270477047F0B551
:102F900081B0022101400122024053420624A34392
:102FA000002900D05B1F0424044000D0DB1E08254C
:102FB00005402E07F6179B19102606403609009685
:102FC0009B192027074000D0DB1C4026064000D07C
:102FD0005B1D49085118A2088918EA088918009A47
:102FE00089187A098918B209891840B2002804D4CE
:102FF000080604D1002001B0F0BDDB1D491C58B209
:1030000049B200F0CBF840B201B0F0BDF0B581B0EC
:103010000125A9061F4E3046FDF7E0FC0446E906EF
:103020003046FDF7DBFC002800D0A41C2E06194812
:103030003146FDF7D3FC002800D0241D6F0615484B
:103040003946FDF7CBFC002800D008341248314641
:10305000FDF7C4FC002801D0102004430E4E30467A
:103060003946FDF7BBFC002801D020200443A90508
:103070000848FDF7B3FC002801D04020044329058F
:103080003046FDF7ABFC002801D080200443E0B2BD
:1030900001B0F0BD00000A4000200A4070B50446AF
:1030A000FFF75CFF0022032806D3E006800F03D061
:1030B000C3222240501E82412349CB6AC87800288F
:1030C0001CD08C88214E01200025B442044600D833
:1030D0002C461F4E9B191F4EB34200D32846044076
:1030E0002240012A0FD14889042803D2421C4A8178
:1030F00003281BD10020C870012070BD002A05D014
:103100000020088170BD0020488170BD0A89272AEF
:1031100008D8501C08817D2084000020A34207DBD2
:10312000034606E07D208000834208DA002070BD5F
:103130000123273A541EA2411A4300D070BD01203A
:10314000C870002070BDC0466C012020DF2E00003A
:10315000B0EBFFFF4106000043088B421AD3002268
:1031600003098B4279D3030A8B425ED3030B8B4254
:1031700042D3030C8B4227D30902FF2212BA030C5D
:103180008B4202D31212090203D0030B8B4233D3BA
:103190001AE0D3E0411A8041401C704703460B43BC
:1031A00071D443088B42F5D3002203098B4254D3D8
:1031B000030A8B4239D3030B8B421DD3030C8B4282
:1031C00002D394466EE0090AC30B8B4201D3CB03B2
:1031D000C01A5241830B8B4201D38B03C01A524158
:1031E000430B8B4201D34B03C01A5241030B8B425A
:1031F00001D30B03C01A5241C30A8B4201D3CB0245
:10320000C01A5241830A8B4201D38B02C01A524129
:10321000430A8B4201D34B02C01A5241030A8B422C
:1032200001D30B02C01A5241CDD2C3098B4201D344
:10323000CB01C01A524183098B4201D38B01C01AC2
:10324000524143098B4201D34B01C01A5241030939
:103250008B4201D30B01C01A5241C3088B4201D3E8
:10326000CB00C01A524183088B4201D38B00C01A95
:10327000524143088B4201D34B00C01A5241411ABC
:10328000524110007047CA0F00D04942031000D3CA
:103290004042534000229C4603098B422DD3030A2F
:1032A0008B4212D38901FC2212BA030A8B420CD33F
:1032B000890192118B4208D3890192118B4204D368
:1032C000890137D0921100E08909C3098B4201D3EB
:1032D000CB01C01A524183098B4201D38B01C01A22
:1032E000524143098B4201D34B01C01A5241030999
:1032F0008B4201D30B01C01A5241C3088B4201D348
:10330000CB00C01A524183088B4201D38B00C01AF4
:103310005241D9D243088B4201D34B00C01A5241CB
:10332000411A00D201465241104663465B1000D359
:103330004042704763465B1000D3404201B5002114
:10334000004201D0C9430846C046C04602BD120033
:103350003C0070009A00C400783300000000202078
:103360000800000020010000803300000800202039
:10337000B804000048010000C10D0000000000007A
:04000005000000C136
:00000001FF
