:020000040000FA
:10000000B00420208D010000910100009301000048
:1000100000000000000000000000000000000000E0
:10002000000000000000000000000000950100003A
:10003000000000000000000097010000810900009E
:100040009B010000BD0700009B0100009B01000018
:100050009B0100009B0100009B0100009B01000030
:10006000000000009B0100009B0100000000000058
:10007000000000009B0100009B0100009B010000AC
:100080009B0100009B0100009B0100009B01000000
:100090009B0100009B010000000000000000000028
:1000A0009B0100009B010000000000000000000018
:1000B0009B010000000000009B0100009B0100006C
:1000C00000F002F800F052F812A030C808382418E6
:1000D0002D18AC4201D100F049F80FCCA246AB4636
:1000E0000CA730CF2D1B083F3F197C427F1E544484
:1000F0002D090426F441641EAC4201D300F036F809
:100100000126334200D0FB1A3343984754465D46DC
:10011000DFE70000FC2900001C2A000000000000AE
:10012000103A02D378C878C1FAD8520701D330C840
:1001300030C101D504680C60704700000000000069
:100140007047000000000000002300240025002666
:10015000103A01D378C1FBD8520700D330C100D583
:100160000B6070471FB51FBD10B510BD00F037FA0A
:100170001146FFF7F7FF01F05BFD00F04FFA03B403
:10018000FFF7F2FF03BC00F055FA000006480047F5
:10019000FEE7FEE7FEE7FEE7FEE7FEE70348044969
:1001A000024A044B70470000C1000000B003202049
:1001B000B0042020B00320204343514330B55C18E5
:1001C000010C130C0D4692B25D4380B251432C19C1
:1001D000054655430A0C09044D1962415843010C68
:1001E00000044019514130BD70B5054610460C461B
:1001F00018430ED000210846891A984127DA0021B9
:100200000846491BA04118DA2846214600F03FF86D
:1002100070BD002C03DA01230022DB0707E0002178
:100220000846491BA04102DA0022D2435308104677
:100230001946C046C0462A4627E000216842A1412F
:1002400000F025F8002440428C4121461AE00021AC
:100250000846491BA0410CDA214600205242984131
:100260000346284600F013F8002440428C41214602
:1002700070BD002052429841002103466842A141CE
:1002800000F005F8002452429C41234670BDFEB5A3
:10029000044610460D46184373D0A6468C460020EF
:1002A000A41A01469D4167D36646002701243D46B6
:1002B000B61A9D4102D313463A4621246546764636
:1002C0002F04360C3E432D0CB61A9D4104D3150C59
:1002D0001B042B4312041034654676462F06360A5B
:1002E0003E432D0AB61A9D4104D3150E1B022B4323
:1002F00012020834654676462F0736093E432D091B
:10030000B61A9D4104D3150F1B012B431201241D66
:1003100065467646AF07B6083E43AD08B61A9D411E
:1003200004D3950F9B002B439200A41C6546764690
:10033000EF0776083E436D08B61A9D411AD392180E
:100340005B41641C16E00018764665464941B71AC1
:100350009D410191009009D36046B11A98418E46A3
:100360008446009801990025401C6941DD07520828
:100370002A435B08641EE6D57246634603B0F0BDAF
:10038000FFE72046284307D00020C0430146C0466F
:10039000C04622462B46F1E700200146F7E701E080
:1003A00004C0091F0429FBD28B0701D50280801CE1
:1003B000C90700D00270704700290BD0C30702D0D4
:1003C0000270401C491E022904D3830702D5028013
:1003D000801C891EE3E70022EEE70022DFE7000031
:1003E000002203098B4273D3030A8B4258D3030BB9
:1003F0008B423CD3030C8B4221D312E003460B43C8
:100400007FD4002243088B4274D303098B425FD30D
:10041000030A8B4244D3030B8B4228D3030C8B4239
:100420000DD30902FF2212BA030C8B4202D312121F
:10043000090265D0030B8B4219D300E0090AC30BF4
:100440008B4201D3CB03C01A5241830B8B4201D3A1
:100450008B03C01A5241430B8B4201D34B03C01A8A
:100460005241030B8B4201D30B03C01A5241C30A02
:100470008B4201D3CB02C01A5241830A8B4201D373
:100480008B02C01A5241430A8B4201D34B02C01A5D
:100490005241030A8B4201D30B02C01A5241CDD202
:1004A000C3098B4201D3CB01C01A524183098B424D
:1004B00001D38B01C01A524143098B4201D34B0136
:1004C000C01A524103098B4201D30B01C01A524199
:1004D000C3088B4201D3CB00C01A524183088B4220
:1004E00001D38B00C01A524143088B4201D34B0009
:1004F000C01A5241411A00D201465241104670477B
:100500005DE0CA0F00D04942031000D3404253407F
:100510009C46002203098B422DD3030A8B4212D33F
:100520008901FC2212BA030A8B420CD38901921171
:100530008B4208D3890192118B4204D389013AD0AE
:10054000921100E08909C3098B4201D3CB01C01A83
:10055000524183098B4201D38B01C01A5241430996
:100560008B4201D34B01C01A524103098B4201D384
:100570000B01C01A5241C3088B4201D3CB00C01AF1
:10058000524183088B4201D38B00C01A5241D9D209
:1005900043088B4201D34B00C01A5241411A00D28A
:1005A00001465241104663465B1001D34042002B86
:1005B00000D54942704763465B1000D3404201B505
:1005C0000449002802DC491C084000E00846C046F7
:1005D000C04602BDFFFFFF7F7047704770477546FA
:1005E00000F024F8AE46050069465346C008C00036
:1005F000854618B020B5FFF7D1FD60BCB646002691
:100600000027C0C5C0C5C0C5C0C5C0C5C0C5C0C520
:10061000C0C5403D490849008D46704710B50446A5
:10062000C046C0462046FFF7AAFD10BD00487047EF
:100630000800202001491820ABBEFEE7260002007A
:100640007047811E091F00BFFCD27047F0B53C4ABD
:1006500082183C4BC31808794E793B4D3B4C002E19
:1006600023D0202804D00526F601002803D003E07B
:10067000374E002800D18826576F2F4037435767E1
:10068000976F2F4037439767566B26405663966B9C
:10069000264096630026566596658F26F6435F686A
:1006A00037405F609F6837409F608E7909682028D7
:1006B0000BD0002819D1491E5160D76E2F408821D8
:1006C0000F43D7661746703719E0491E5160D16E47
:1006D00029401F4F3943D166116F294039431167B3
:1006E000012149071B4D174609E049085160D76EA3
:1006F0002F400521C9010F43D766174670373C6864
:100700002C400C433C60D16A104C2140D162116BEB
:10071000214011630021D16411658F21C943D46F39
:100720000C40D4671C680C401C600643BD20304060
:100730001168094B0B40C018801C1060F0BDC0460A
:10074000041800008418000024493E008888FDFF3A
:1007500001040000FFFFFFCF4000FFCF10B50723CB
:100760009B04194092008018024A84589C436118E7
:10077000815010BD3018000010B5029CA400001973
:1007800011431943014A815010BDC0465018000062
:1007900092008018014A81507047C046101800002E
:1007A00010B50122120383180C789C604B7883509B
:1007B0008978014A815010BD0C110000F0B581B05C
:1007C000204801461039096801256C051E4B1A4660
:1007D000103A176827400022D643090203D4002F9D
:1007E0001AD101B0F0BDE90502680A4302607548FC
:1007F00000F0EAF800960646E906724800F0E4F8D0
:100800007040009E304600D1284610490A68801882
:1008100008600D4B002FE4D018682043186076481C
:10082000214600F0D1F804460125A905654800F0ED
:10083000CBF8604000D13546054801686918016071
:1008400001B0F0BD48300A4048100A40E8012020BD
:100850008002202010B5234A8120D06222490860FE
:10086000224BCB641060224C9466D4665465946528
:100870009463D464D465D4639364536653635364BC
:100880009060506008654865C86588654866086678
:10089000106608674867C863886316481649016090
:1008A000016303208102154A13680B431360012181
:1008B0004A05134B1C6A14431C621C6814431C60D9
:1008C000104A114B136013638003104A13680343EB
:1008D0001360C8050E490A6A02430A620A680243A5
:1008E0000A6010BD848042400480424081000E00B6
:1008F00081000C00A0120A40013C0000A0130A4035
:1009000028100A40A0320A40CC330504A0330A4024
:1009100028300A4009480021016009480146083989
:100920000A6803239A430A60016801229143016027
:10093000110202688A4302607047C04608030B40F8
:1009400008010B4080B500F005F8FFF783FFFFF7C3
:10095000E1FF80BD80B5064806494160064A516006
:100960000649016011601020FFF76BFE80BDC04694
:1009700000080A40030000B100280A4001000026D8
:1009800008480168491C016007480178072903D815
:100990000178491C0170704704480168491C0160D6
:1009A0007047C04680032020680220206402202077
:1009B0001049002800D1103101208004014A8850DC
:1009C0007047C04600200A402722D20180580840C4
:1009D000411E884170470000064B002A00D11033A9
:1009E000C15070470349002800D11031024801224C
:1009F0000A5070479012000000000A4070B5064C83
:100A000001252560484E7D200002FFF71AFE761C66
:100A1000F9D3256170BDC04690120A400120400202
:100A200002490968014048424841704780130A4022
:100A30000020B249085E7047A5480068AD49884269
:100A400000DC0846AC49884200DB08467047C046D7
:100A50000020A749085E70479C480068A549884265
:100A600000DC0846A449884200DB08467047C046BF
:100A700010B584B0044601A800F054F9002803D151
:100A80000020C04304B010BD0298201A04B010BD6D
:100A900080B58C4900200870934908708A49087015
:100AA000904908708C4908708A490860904908800C
:100AB00087490860854908608C4908608F4908802B
:100AC0009349088001F004FE80BDC0467D4800784F
:100AD0007047C04680B50146844A00201060824AB3
:100AE0001170002903D18A49088001F0FBFD80BD07
:100AF0007E4900220A600C49884200DC08467D21BC
:100B0000C900884200DB08467949088070490968B5
:100B1000401A7849884200DC08467749884200DB61
:100B2000084676490880704718FCFFFFF0B589B089
:100B30000C46054606A800F0F5F800285CD006A88B
:100B40008078012100263B28084600D83046079FC0
:100B5000EA1B652A00D3314608405A49087001282B
:100B60005CD10594584801780126002948D059489D
:100B7000006806A9CC78584909788C4201D187428F
:100B80004BD03A1A1423642A194600D811468742DA
:100B900000D00B4601934D48016802911846484326
:100BA0007D21CD00294601F0D7FE002106AA515E25
:100BB000474A126880180490081A03904543019828
:100BC000C100284601F0C8FE0299401843498842F6
:100BD00000DC08464249884200DB08463B49086081
:100BE000032003994843C117890F401880100499C6
:100BF0004018374908600CE03248002606700DE0C6
:100C0000324900220A60067006A8815E304A1160EF
:100C1000C4783048076030480470059C3149087832
:100C2000401C0870C0B20A284AD3002008702E4920
:100C300009780E40012E3CD123490978002938D08B
:100C400000202B49085E22490968421A294882423D
:100C500000DC024626462848824200DB024627483E
:100C600002800A210B465343204804681B19244C78
:100C7000A34200DC2346234CA34200DB234603604F
:100C8000CD20504301F068FE0546104801684B2016
:100C900048430921C94301F05FFEF10069180818B3
:100CA0001949884200DC08461849884203DB084697
:100CB00001E00E4908601649088000B201F012FDFB
:100CC00009B0F0BD9C002020A6002020BC00202000
:100CD000B8002020B0002020AC00202078ECFFFFDE
:100CE00088130000A800202098002020C0002020A9
:100CF000B40020200080FFFFFF7F0000A000202024
:100D0000C0F2FCFF400D0300A8E4FFFF581B0000E9
:100D1000A40020201748C0697047C0461548806964
:100D20007047C04610B5002815D0124A137AD9076B
:100D3000FCD151890180117B8170517BC170116997
:100D40004160117D0172147AA342EFD101231C404E
:100D5000ECD1084610BD002010BDC046054800215A
:100D60000172418101734173016101758161C1713A
:100D7000C16170478C03202010B50024204600F08C
:100D800069FF01F0E9F90448046384854485C4815E
:100D900084800621017010BD68012020F0B58BB061
:100DA00001460020002964D07F2293021F680F6053
:100DB0005D684D609A688A60DC680094CC601C694C
:100DC00001940C615C6902944C619E698E61DC69DE
:100DD0000394CC611C6A04940C625C6A05944C62B6
:100DE0009C6A06948C62DC6A0794CC621C6B089443
:100DF0000C635C6B09944C639C6B8C63DB6B0A9398
:100E0000CB631D49794001236B400B4307214C40C4
:100E10001C43631E9C4173427341234329D11748ED
:100E2000424017484243009B5A404243019B5A406C
:100E30004243029B5A40424372404243039B5A4002
:100E40004243049B5A404243059B5A404243069BFF
:100E50005A404243079B5A404243089B5A404243F0
:100E6000099B5A4042434A4042430A98811A4842E9
:100E700048410BB0F0BDC046314C4143A766714BB1
:100E800093010001F0B581B02A4D2846FFF786FF97
:100E9000294F387029490870DA4E30461030002446
:100EA000214600F09DFE01F0A3F901F07DFB00F06A
:100EB00019FF01F02BFC00F0D3FBD3480221017095
:100EC000D24804803878002800D0A86800F0ECF9F7
:100ED00001F060FA2046FFF76BFDFFF78FFDF08B06
:100EE000E0490880308CE04908802220305CE949E4
:100EF00008702320305CE8490870F07C10490870C5
:100F0000307D10490870706AB16A0F4A10600F484E
:100F10000160B08DD549088001F03EFBDF490870C3
:100F200001F058FBDE49087001F03AFBDD4908701A
:100F300001B0F0BD3C0320207C0320204001202094
:100F4000E6012020E501202064012020600120200E
:100F5000F0B581B0FFF762FD064601F059FC074687
:100F600001F016FC054600F019FA0446A148067087
:100F7000A1480770A1480570284601F0F1FBA0497F
:100F80000870A048807900281CD127469E48047824
:100F900000F062FB844203D09B48007800F08AFB9B
:100FA00000F05AFB06283C460CD198480488FFF70D
:100FB0004FFD80B284423C4604D000209349085E35
:100FC00000F060FB002E15D08E4F38881D2803D806
:100FD000411C39801D2811D1387900280ED10120FB
:100FE0003871B879012836D100203881B87100F005
:100FF000F1FB03E00020834F3871388020462946FA
:1010000000F0FAFB00F024FB0646C01F022802D2C3
:101010000020B87100E0B8797D49087001252840AA
:10102000FFF7C6FC072E3ED0082E10D100F0FCFAC8
:10103000002509281DD801267844007940008744FE
:101040003218181818181D041A1C022616E0FFF78B
:101050003DFD054627E001F0DBFB01F099FB06466C
:1010600001F098F900F09AF9314600F047FBB871A9
:10107000C4E7052602E0032600E004266549204671
:10108000FFF7AEF988B28008634A4243500D8642AA
:1010900009D94B2292004243881A80B2962801D384
:1010A000002500E001252846FFF79CFC00F0D4FA5B
:1010B0005A49087000F0CCFA5949087000F0B4FAA7
:1010C00058490870204600F09FFA5749086000F020
:1010D000B7FA5649086000F093FA5549086000F0E5
:1010E000B3FA5449088000F087FA53490860FFF7C3
:1010F000AFFC52490880FFF79FFC51490880FFF779
:10110000ABFC50490880FFF793FC4F49088001F081
:10111000D9FA4E490880FFF7D9FC4D49087020469E
:10112000FFF7A6FC4B490860FFF7F8FD4A49086045
:10113000FFF7F0FD4949086000F00CF948490860E4
:1011400000F07AFA4749088047480024048000F0FC
:101150006FFA4649088000F0A5FD4549086000F097
:10116000B1FD4449086000F0A9FD434D288000F01E
:10117000B5FD424E3080285F00F0CAF84049086053
:10118000305F00F0C5F83F49086000F093FD3E4D28
:10119000288000F09FFD3D4C208000F07FFD3C4901
:1011A0000870288801B2C9134840401A81B2C8208B
:1011B000C82900D30146374A117021880AB2D213D8
:1011C0005140891A89B2C82900D3014632480170BA
:1011D00001F004FA01F018FA01F0DEF92F49087065
:1011E00001F0F8F92E49087001F0DAF92D4908707C
:1011F00001B0F0BD380320208A0320208503202081
:101200008403202068002020C8012020C60120205F
:10121000F0012020B80B00003B6D0000D50120201C
:10122000D4012020C4012020C0012020CC01202096
:10123000BC012020D2012020B0012020B8012020B4
:10124000B6012020BA012020B4012020D0012020A6
:10125000E4012020D8012020E0012020DC01202012
:101260008802202088032020860320205C01202083
:10127000440120205001202048012020540120203A
:101280004C01202058012020EE0120208602202041
:1012900060022020EC012020840220207D022020FA
:1012A0007E0220207F022020B0B50446074D28464C
:1012B0003C304021FFF791F8601C686428461030EC
:1012C00000F09CFC002068602880B0BDC400202095
:1012D000F0B581B00546C1171C4A00242346FEF72D
:1012E0006BFF1B4A1268D30FD318DF175E107342CF
:1012F000BC41002D00D43C46002D00D433461818C4
:101300004C41D3172146FEF76FFF01B0F0BDC04638
:10131000F0B581B00546C1170C4A00242346FEF7FC
:101320004BFF0B4A13680A225A43D31757107E42C9
:101330009C41002D00D41C46002D00D43E463018A0
:101340004C412146FEF750FF01B0F0BD40420F0076
:10135000000020200D4800687047C04610B51949AC
:10136000002008700F490860084908600849094AC8
:101370004A60FF221206084B1C689443032292071E
:10138000A2181A6088600720086010BD640220203F
:1013900010E000E0FF7C000020ED00E00148006864
:1013A0007047C04680032020EFF3108072B60549D5
:1013B0000878002802D00A78521E0A70411E88411F
:1013C00062B6704768022020EFF3108172B61849A8
:1013D0000968184A126806C062B67047EFF31080B9
:1013E00072B61348002101601248016062B6012004
:1013F000C105074A13680B431360400505490A6895
:1014000002430A6004480221016001607047C0463F
:1014100048300A4048100A4000E100E0EFF3108035
:1014200072B60348002101600248016062B670474D
:10143000E801202080022020B0B50446002528467F
:1014400000F008FC00F0A6FFEA4805634470C5817F
:10145000858008210170B0BD70B500280CD00379DB
:10146000012B0ED10BB2DB130C465C40E31A1CB20D
:10147000012C0EDC00231EE00020014600F096FC4B
:1014800070BD531E14469C4145882C2D03D8002363
:1014900002E05B1E0FE0012303290E4600DB03265A
:1014A00023402C2D00D80E469A4031B2C913334642
:1014B0004B405B1A3146008A801800B21AB2904243
:1014C00003DC5342984200DB0346C81A00B25918A5
:1014D00009B200F06BFC70BD002809D00021C1806A
:1014E000017141800170018141818181C18101824D
:1014F0007047002809D00021C1800171418001702E
:10150000018141818181C1810182704770B50028CC
:101510006ED00278521C0270D2B2052A68D3002520
:101520000570344C00293ED00646084601F031F9DA
:10153000014630460122327175800A22B35E0AB23A
:101540009200E51FADB2491F89B2A942114603D3EB
:10155000D118CD0F49194910002B00D00A464281FD
:1015600011B2890F511809B28910C1808289818115
:1015700001818A1A12B20323DB439A4200DC1A4625
:10158000042A00DB0422C281C90092005218172AE3
:101590001DDC1621C9438A4221461DDBD117490FA4
:1015A0005118C90818E005714188E21E92B29142B3
:1015B00007D2C5814A1D42800289C280272903D8EB
:1015C00009E0C5810289C28011B2002901DD022132
:1015D00002E0214600D4018A1022825E09B29142C3
:1015E00001DD012102E0914202DA611C5118018201
:1015F00070BDC046FEFF00007E48006B7047C046CD
:101600007C48406A7047C0467A4A9169002901D0F7
:10161000084670471178002903D05169411A0846DD
:10162000704700207047C046724840787047C046F7
:1016300044207049085E70473A206E49085E704742
:101640006C4880697047C0462A206A49085E704726
:10165000684800787047C046664880787047C04642
:1016600010B5644800240485022181700480343060
:10167000FFF732FFFFF772FBFFF70AFA2046FFF78A
:1016800029FA10BD10B57D21CA00821894B2090153
:101690008C4206D8574908858978062901D1FFF779
:1016A00027FA0348844201D3002010BD012010BD59
:1016B000D1070000B0B5821E0021042A1CD84D4A73
:1016C0001378082B18D8012425469D40FF23823328
:1016D0001D4211D09070C11E032901D2002002E0EA
:1016E000062805D1108D00B2FFF702FA204600E06F
:1016F0000020FFF7EFF921460846B0BDF0B581B0F4
:101700000C463C4EB578A91E05292AD20027B7857C
:10171000778577627061B7617770F01C0D21FEF7F5
:101720005AFE3763F474B474E1204000022D009037
:1017300000D1B420308230463430FFF7DAFEB5787D
:10174000032D10D1FFF7C2F9002819D0012420463B
:10175000FFF7C0F900983230FFF7CAF9204602249B
:1017600014E001200FE0002C0CD0032D04D3FFF770
:10177000ADF9002804D0B578062D0DD038460CE020
:10178000032000E002207070002008240021F18175
:10179000B180347001B0F0BD308DFE242C40042C9B
:1017A00000D0074638B2FFF7A3F9201F414241415C
:1017B000AA1F504250410843FFF78CF900F0D4FAB9
:1017C0000124204600F046FA00F05AFAF061306237
:1017D0002046DBE710B50024204600F03BFA00F07D
:1017E000D9FDEC48046384854485C48184800470F9
:1017F00010BDC04668012020F0B587B0E54E3278B4
:10180000082A0AD801239340FF248234234204D0BB
:101810000021FFF78BF907B0F0BDB3885B1CB380E4
:10182000931E032B33D2002405462146FFF77EF991
:10183000FFF74CF9002843D0B4813078042800D158
:10184000B9E0032800D1A0E0022829464CD1FFF7D7
:10185000EFF8294602B2D2135040801A80B23228E3
:1018600041D8FFF7F9F8294602B2D2135040801A46
:1018700080B2C82837D8F089401CF08180B278281F
:1018800032D3C548FFF734F92946032729E0062A51
:1018900040D1002405462146FFF748F9B088782852
:1018A00000D272E100F076FDB069002802D17069C3
:1018B000281AB061F481B4800720307007B0F0BD01
:1018C000B089401CB08180B2962829460CD32046AE
:1018D00000F0C0F900F05EFD29463463042070700A
:1018E0000827B4803770F4817069081AAB498842C0
:1018F00000D24AE13078072800D146E1204600F0C6
:10190000A9F900F047FD3463A5483080F481B48024
:1019100007B0F0BD06900C4600F0B2F9F1690590F1
:10192000401AC1174840401AFFF7D2FC7D21C90078
:10193000049101F011F87062B07CB474F17CF07421
:101940000A460240014321401143CDB234463434AB
:1019500020462946FFF7DAFD002D4DD00020F0800B
:10196000B278032A5FD3FFF7B1F8002851D00020E6
:10197000B081FFF761F801B2C9134840401A80B244
:10198000894988424ED9052764E0FFF751F801B232
:10199000C9134840401A80B232282946A4D8FFF71C
:1019A0005BF8294602B2D2135040801A80B2C9288F
:1019B0009AD2042795E7FFF73BF801B2C9134840D4
:1019C000401A80B20327322821D8FFF745F801B228
:1019D000C9134840401A80B2C828294681D8F089E6
:1019E000401CF08180B280084B2800D27CE77069EF
:1019F000081AB061072774E7F0886A494A1C06276D
:101A0000904227D2421CF2808842A9D122E0294686
:101A100067E7B089042795281CD8411CB181952817
:101A2000A7D117E0B27871690698411A931EDBB20C
:101A3000022B03D89B005EA7FB5800E05B4B99424A
:101A400007D23178082900D1E2E6052910D1022316
:101A50001DE008270024204600F0FCF800F09AFC66
:101A600034637770F481B480082030700698CFE634
:101A70003821715C012909D1718F0BB2DB135940F8
:101A8000C91A09B2042927DD062300E00323B38520
:101A90002A210391715E8FB29F4204D100213163EC
:101AA0003182039F31E0022A03D0FF222C32973289
:101AB00000E0B422994200DD1E22378A029297424A
:101AC00004D2791C3182316B039F1EE000203082EA
:101AD000994205DBC04304E0022958DC0823D6E71D
:101AE0000120039F401870850846FFF711FC019004
:101AF000F05FFFF70DFC0199411A049848430299E1
:101B000000F02AFF014630630698FFF70FF8F15FF7
:101B1000002720463A46FFF79FFC00F091F900F0BD
:101B2000BDF8002804D00720FFF786FC07B0F0BD01
:101B3000307805280ED1306A0599081AC117484037
:101B4000401AFFF7C5FB1E4988421EDBFFF714F958
:101B500007B0F0BDB07804280ED1706A17498842EA
:101B60000ADB05983062F781B78005203070716913
:101B70000698401AB06108E0284600F091FE00285F
:101B800003D0B0780228E1D0EBE707B0F0BD07231F
:101B90007DE7C046680120200CFEFFFF881300008F
:101BA00008080000570200004C040000B88800003C
:101BB000C0D401008813000010270000DC050000DD
:101BC000A086010004488121016001200002034930
:101BD000086008647047C0464C80424090120A403A
:101BE00000280AD000220171C170827002808260D8
:101BF000C2600261426182618283704770B584B0C5
:101C0000002813D00421502208230093019202914E
:101C1000044608340025064620462A462B4600F096
:101C20005FFC35607560204600F073FC04B070BD49
:101C3000FEF788FEFFF7C6FFFFF724F9FFF78EFBDC
:101C400000E030BFFFF7B0FB0028FAD0FFF780F9C3
:101C5000F8E7000010B5794C207000280ED1002064
:101C6000A0816081A08060802046243000F051FC7B
:101C70004834204600F04DFC00F08CFB10BDC046FF
:101C800080B582B06846FFF79FFB0098019908185D
:101C9000C10F4018401002B080BD000020206749ED
:101CA000085C704780B582B06846FFF78DFB0098EE
:101CB00002B080BD0A206149085E704706205F4976
:101CC000085E704780B582B06846FFF77DFB0198DB
:101CD00002B080BD0C205949085E70470820574962
:101CE000085E7047F0B589B0FFF778FB2D210591AC
:101CF0004B20000104900A240094019002914F4E61
:101D000030462430069012270322039200253946DC
:101D10002B4600F0E5FB0094049801900598029092
:101D20003446483420463946039A2B4600F0D8FB07
:101D3000FFF774FB07A8FFF747FB35607560B560D8
:101D4000B581304618300572089807993161706185
:101D5000B561F561069800F0DCFB204600F0D9FB88
:101D600000F018FB09B0F0BD10B582B0FFF756FBCC
:101D70006846FFF729FBF54C002020606060A060FA
:101D8000A0812146183108720199009A226161618F
:101D9000A061E0612046243000F0BBFB48342046BF
:101DA00000F0B7FB00F0F6FA02B010BD70B50D46BA
:101DB0000446002812D001200022002C014600DC3D
:101DC00011460223E14EF35E012B04DA414005D0B7
:101DD000002D09D116E010464140F9D1DB482430EE
:101DE00000F097FB002D0DD001200022002D0146B0
:101DF00000DC11460423D54EF35E012B00DB1046B8
:101E0000414003D1D148483000F083FB1320C04348
:101E1000854200DC05461421142D00DB0D46CB4A1B
:101E20009580844203DD142C04DA548070BD04468E
:101E3000142CFADB0C46548070BDC046F4012020FF
:101E4000F0B58DB0C14C2078012805D16078401CD8
:101E50006070C0B20A2801D20DB0F0BD00256570D7
:101E60000BA8FFF7B1FA20690B99216162690C9BFD
:101E70006361091AE1809E1A268102200390235E85
:101E8000002B28460AD0608902B2D2135040801A33
:101E900080B2132801D8002000E001200690042021
:101EA0000290205E099000280AD0A08902B2D213C5
:101EB0005040801A80B2132801D8002500E0012587
:101EC000049508B20A9001250793012B03DB0A98B9
:101ED00000282F460BD401200022079B002B074629
:101EE00000D417460A9B002B00DC104607400597DC
:101EF00030B2099A012A089502DB00282B460AD441
:101F000001250022099B002B2B4600D413460028F4
:101F100000DC15462B400A9AD2130D465540AA1AEA
:101F200092B21E2A01D90520A1E0C01332464240D8
:101F3000101A80B21E2801D9062098E088B24242C9
:101F400042410698024000208149012A0546049F2B
:101F500006D1258B7F4A9542089A019205D20A350F
:101F600025838D4200D901200190B0B24242424106
:101F70003A400020012A054605D1658B754A9542F5
:101F8000089E06D20A3565838D4201D8064600E0D8
:101F900001261A46069805990840002101280B469B
:101FA000089D05D1A38B6B488342284606D20A338D
:101FB000A383632B01D8084600E001201740012FBE
:101FC00006D1E18B634A9142019F3AD20A3101E086
:101FD0000021019FE183002F2A4600D13246002ACA
:101FE0002A4600D10246002E01D10320039001238E
:101FF000002F18461ED0002A1FD0632900D80023C6
:10200000002A294600D11946012930D02020205C21
:1020100000282ED10025079900293CD020462430E5
:102020000A9A00F07EFA0221615E012937DB4A003C
:1020300016323AE00398002ADFD102986329DED9EC
:10204000DEE7002F294605D0002906D0002E07D153
:10205000032006E031460029F8D10546002EF7D0CE
:102060000220002F00D00120002D00D104202021CB
:1020700060540020A0816081A08060802070204694
:10208000243000F046FA4834204600F042FA00F0CE
:1020900081F90DB0F0BD29462E46099B07E00029C5
:1020A00001D4002201E04A00163A1618A388180449
:1020B00018D00820225E2046483019B200F031FACC
:1020C0000421615E012902DB4A00163205E0002985
:1020D00001D4002201E04A00163A4B424B410893DA
:1020E000151861883B23D843854200DC05463C2D0A
:1020F00000DB3C2500220804104611D0D84386425C
:1021000000DC06463C2E00DB3C260A20205EC31E77
:102110009E42314600DC1946C01C864200DC08465F
:102120006081089900290AD10C21625ED31E9D426C
:10213000294600DC1946D21C954200DC0A46A281E1
:1021400000B211B200F04CF90DB0F0BDF401202046
:102150001F030000F6FF0000F0B581B00124660304
:10216000DB4D284631462246FEF736FC2103284641
:102170002246FEF731FCA10228462246FEF72CFC3F
:10218000E10228462246FEF727FCD24D4021284690
:102190002246FEF721FC610228462246FEF71CFC7F
:1021A000284631462246FEF717FC082128462246DB
:1021B000FEF712FCC84F0026384631463246FEF77D
:1021C000E7FA022238463146FEF7E2FA03223846A1
:1021D0003146FEF7DDFAC14831463246FEF7D8FAFD
:1021E000802128462246FEF7F7FB01B0F0BDC0462D
:1021F000F0B58BB00AAF0024BC7008200590388081
:102200000120079000020990192080010190089098
:102210005648842181628321816385210491016074
:102220005348544941605449016010200390FEF71F
:1022300008FAA94E30463946FEF7B2FA08A93046E8
:10224000FEF704FA009430463746214622462346DC
:10225000FEF792FA02250095069530462146224661
:102260002346FEF789FA0326009638462146224681
:102270002346FEF781FA384621462246FEF76EFADB
:10228000384621462A46FEF769FA38462146324644
:102290000296FEF763FA3846019D29462246FEF76C
:1022A00077FA38462946069AFEF772FA38462946E2
:1022B0003246FEF76DFA3148079A82600D210160BF
:1022C0002F480168114301600AAFBC70059838803F
:1022D000099408952B48049901602B4825494160D1
:1022E000254901600398FEF7ACF97C4E304639462B
:1022F000FEF756FA08A93046FEF7A8F900943046D2
:10230000214622462346FEF737FA3046214622462A
:10231000FEF724FA3046374629462246FEF738FAB9
:102320001A48079A826002601948016811430160E7
:102330002A480270684E304629462246FEF728FA9F
:1023400030462946069AFEF723FA30462946029A75
:10235000FEF71EFA384629462246FEF719FAD248F9
:1023600080212246FEF738FB0BB0F0BD3C80424096
:1023700000088640030000B10100002600118640DD
:1023800004188640E48042400088864000918640E0
:102390000498864070B511480078012817D119209B
:1023A00084014D4E0025304621462A46FEF7F0F9BD
:1023B000022230462146FEF7EBF903223046214641
:1023C000FEF7E6F9454821462A46FEF7E1F9B64808
:1023D00080210022FEF700FB70BDC0466102202074
:1023E000F0B583B00C46012600210191029000282F
:1023F000354600DA019D7103354800912A46FEF703
:10240000EBFA3103029880B2C70B31483A46FEF727
:10241000E3FAB1022E483A46FEF7DEFAF1022C4802
:102420002A46FEF7D9FA002C374600DA019F9E486B
:1024300040213A46FEF7D0FA7102A0B2C50B9A4E7F
:1024400030462A46FEF7C8FA304600992A46FEF77B
:10245000C3FA082130463A46FEF7BEFA20B2C0134E
:1024600021464140081A80B2C825C82800D3284612
:10247000C00019218E01371A17483946019AFEF714
:1024800087F9029908B2C0134140081A80B2C828DF
:1024900000D32846C000351A02220F4E3046294686
:1024A000FEF776F9032230463946FEF771F90B48FC
:1024B0002946019AFEF76CF902980443601E844194
:1024C000802179482246FEF787FA03B0F0BDC04666
:1024D00000000A4000200A4000008640008086403C
:1024E000F0B581B0002812D00093089B079E069D8E
:1024F00020270024C455066143618461C46106C07D
:10250000009901600838012D00D80125C56001B08F
:10251000F0BD002804D02021002242548261C26113
:10252000704770B5002809D0891A2022825C0346C2
:102530002033002A04D0C2698A1A02E0002070BD4C
:102540000022C16101241C7083695C1803695E422A
:10255000B442254600DC35469C4200DC2B468361B4
:1025600044685C4303685943611883685A438A1876
:10257000C1680446104600F0EFF901466069434225
:1025800099420A4602DD814203DD70BD1A4681424E
:10259000FBDC104670BD0000424800787047C04622
:1025A000474800787047C046B0B5414800240460F1
:1025B0003E4804603B4804703F4804703F4D2C7017
:1025C0003F48047001200104B4482246FEF704FA93
:1025D0002C70B0BD394800787047C04610B53448FB
:1025E00000240460314804602E48047032480470AE
:1025F0003348047001200104A8482246FEF7ECF994
:102600002E48047010BDC046F0B581B0254A15783B
:1026100001242104A148002D0FD024480768244E2E
:1026200033685B1EBB420AD200243460046014701D
:10263000214804702248047008E0002407E01D4B84
:102640009F420BD31E480470002414709348224606
:10265000FEF7C2F91948047001B0F0BD0E46791CAE
:1026600001600A21284600F055F91349097800272E
:10267000814201D33A4600E00122632D874800D809
:10268000144631462246FEF7A7F90C4804700A4A60
:102690001078401CC1B2092900D80746177001B054
:1026A000F0BDC0467402202000200A406C022020A9
:1026B0007002202030750000780220207A0220204D
:1026C0007C02202000201049085E70477047704748
:1026D000B0B50D4C00252580FFF7F8FF605FFFF7D0
:1026E000F6FFB0BD80B50649884200DC08460549C2
:1026F000884200DB084604490880FFF7E8FF80BDF8
:10270000A8E4FFFF581B000042012020F0B583B071
:10271000114E30463830FFF771FA08217D27380115
:102720000A220092019002913046643000240C2568
:1027300022462B46FFF7D4FE032002900748019063
:10274000F800009030468830062122462B46FFF7DD
:10275000C7FE347003B0F0BD8C022020400D030092
:10276000012101408207D20F51184207D20F5118A0
:102770000207D20F5118C206D20F51188206D20F8B
:1027800051184206D20F5118C0094018C0B2704704
:102790007047F0B581B0022101400122024053424E
:1027A0000624A343002900D05B1F0424044000D06A
:1027B000DB1E082505402E07F6179B19102606403C
:1027C000360900969B192027074000D0DB1C4026C5
:1027D000064000D05B1D49085118A2088918EA0874
:1027E0008918009A89187A098918B209891840B29B
:1027F000002804D4080604D1002001B0F0BDDB1D80
:10280000491C58B249B200F0A7F840B201B0F0BD7F
:10281000F0B581B00125A9061F4E3046FEF7D4F869
:102820000446E9063046FEF7CFF8002800D0A41C85
:102830002E0619483146FEF7C7F8002800D0241D9F
:102840006F0615483946FEF7BFF8002800D0083457
:1028500012483146FEF7B8F8002801D01020044392
:102860000E4E30463946FEF7AFF8002801D0202042
:102870000443A9050848FEF7A7F8002801D0402026
:10288000044329053046FEF79FF8002801D0802038
:102890000443E0B201B0F0BD00000A4000200A404D
:1028A000B0B5FFF75DFF0146184AD078002811D077
:1028B0009388174D01200024AB42034600D32346E2
:1028C000C9B20629014600D321460B430FD0002090
:1028D0005081B0BD052914D81089272803D8411C80
:1028E0001181272810D10120D0700020B0BD51895E
:1028F000042903D24B1C5381032905D10021D17037
:10290000B0BD00201081B0BD0020B0BD6801202006
:102910008813000043088B421AD3002203098B421C
:1029200079D3030A8B425ED3030B8B4242D3030C51
:102930008B4227D30902FF2212BA030C8B4202D327
:102940001212090203D0030B8B4233D31AE0D3E0F7
:10295000411A8041401C704703460B4371D4430821
:102960008B42F5D3002203098B4254D3030A8B42D6
:1029700039D3030B8B421DD3030C8B4202D39446F5
:102980006EE0090AC30B8B4201D3CB03C01A52413C
:10299000830B8B4201D38B03C01A5241430B8B42F2
:1029A00001D34B03C01A5241030B8B4201D30B03DB
:1029B000C01A5241C30A8B4201D3CB02C01A524102
:1029C000830A8B4201D38B02C01A5241430A8B42C5
:1029D00001D34B02C01A5241030A8B4201D30B02AE
:1029E000C01A5241CDD2C3098B4201D3CB01C01AC8
:1029F000524183098B4201D38B01C01A52414309D2
:102A00008B4201D34B01C01A524103098B4201D3BF
:102A10000B01C01A5241C3088B4201D3CB00C01A2C
:102A2000524183088B4201D38B00C01A52414308A4
:102A30008B4201D34B00C01A5241411A524110003F
:102A40007047CA0F00D04942031000D340425340A0
:102A500000229C4603098B422DD3030A8B4212D3DA
:102A60008901FC2212BA030A8B420CD3890192110C
:102A70008B4208D3890192118B4204D3890137D04C
:102A8000921100E08909C3098B4201D3CB01C01A1E
:102A9000524183098B4201D38B01C01A5241430931
:102AA0008B4201D34B01C01A524103098B4201D31F
:102AB0000B01C01A5241C3088B4201D3CB00C01A8C
:102AC000524183088B4201D38B00C01A5241D9D2A4
:102AD00043088B4201D34B00C01A5241411A00D225
:102AE00001465241104663465B1000D34042704796
:102AF00063465B1000D3404201B50021004201D083
:102B0000C9430846C046C04602BD000000000000A0
:102B1000302B0000000020200800000020010000F1
:102B2000382B000008002020A80400004801000005
:082B3000410700000000000055
:04000005000000C136
:00000001FF
