:020000040000FA
:10000000B00420208D010000910100009301000048
:1000100000000000000000000000000000000000E0
:10002000000000000000000000000000950100003A
:10003000000000000000000097010000810900009E
:100040009B010000BD0700009B0100009B01000018
:100050009B0100009B0100009B0100009B01000030
:10006000000000009B0100009B0100000000000058
:10007000000000009B0100009B0100009B010000AC
:100080009B0100009B0100009B0100009B01000000
:100090009B0100009B010000000000000000000028
:1000A0009B0100009B010000000000000000000018
:1000B0009B010000000000009B0100009B0100006C
:1000C00000F002F800F052F812A030C808382418E6
:1000D0002D18AC4201D100F049F80FCCA246AB4636
:1000E0000CA730CF2D1B083F3F197C427F1E544484
:1000F0002D090426F441641EAC4201D300F036F809
:100100000126334200D0FB1A3343984754465D46DC
:10011000DFE70000AC2A0000CC2A0000000000004D
:10012000103A02D378C878C1FAD8520701D330C840
:1001300030C101D504680C60704700000000000069
:100140007047000000000000002300240025002666
:10015000103A01D378C1FBD8520700D330C100D583
:100160000B6070471FB51FBD10B510BD00F037FA0A
:100170001146FFF7F7FF01F097FD00F04FFA03B4C7
:10018000FFF7F2FF03BC00F055FA000006480047F5
:10019000FEE7FEE7FEE7FEE7FEE7FEE70348044969
:1001A000024A044B70470000C1000000B003202049
:1001B000B0042020B00320204343514330B55C18E5
:1001C000010C130C0D4692B25D4380B251432C19C1
:1001D000054655430A0C09044D1962415843010C68
:1001E00000044019514130BD70B5054610460C461B
:1001F00018430ED000210846891A984127DA0021B9
:100200000846491BA04118DA2846214600F03FF86D
:1002100070BD002C03DA01230022DB0707E0002178
:100220000846491BA04102DA0022D2435308104677
:100230001946C046C0462A4627E000216842A1412F
:1002400000F025F8002440428C4121461AE00021AC
:100250000846491BA0410CDA214600205242984131
:100260000346284600F013F8002440428C41214602
:1002700070BD002052429841002103466842A141CE
:1002800000F005F8002452429C41234670BDFEB5A3
:10029000044610460D46184373D0A6468C460020EF
:1002A000A41A01469D4167D36646002701243D46B6
:1002B000B61A9D4102D313463A4621246546764636
:1002C0002F04360C3E432D0CB61A9D4104D3150C59
:1002D0001B042B4312041034654676462F06360A5B
:1002E0003E432D0AB61A9D4104D3150E1B022B4323
:1002F00012020834654676462F0736093E432D091B
:10030000B61A9D4104D3150F1B012B431201241D66
:1003100065467646AF07B6083E43AD08B61A9D411E
:1003200004D3950F9B002B439200A41C6546764690
:10033000EF0776083E436D08B61A9D411AD392180E
:100340005B41641C16E00018764665464941B71AC1
:100350009D410191009009D36046B11A98418E46A3
:100360008446009801990025401C6941DD07520828
:100370002A435B08641EE6D57246634603B0F0BDAF
:10038000FFE72046284307D00020C0430146C0466F
:10039000C04622462B46F1E700200146F7E701E080
:1003A00004C0091F0429FBD28B0701D50280801CE1
:1003B000C90700D00270704700290BD0C30702D0D4
:1003C0000270401C491E022904D3830702D5028013
:1003D000801C891EE3E70022EEE70022DFE7000031
:1003E000002203098B4273D3030A8B4258D3030BB9
:1003F0008B423CD3030C8B4221D312E003460B43C8
:100400007FD4002243088B4274D303098B425FD30D
:10041000030A8B4244D3030B8B4228D3030C8B4239
:100420000DD30902FF2212BA030C8B4202D312121F
:10043000090265D0030B8B4219D300E0090AC30BF4
:100440008B4201D3CB03C01A5241830B8B4201D3A1
:100450008B03C01A5241430B8B4201D34B03C01A8A
:100460005241030B8B4201D30B03C01A5241C30A02
:100470008B4201D3CB02C01A5241830A8B4201D373
:100480008B02C01A5241430A8B4201D34B02C01A5D
:100490005241030A8B4201D30B02C01A5241CDD202
:1004A000C3098B4201D3CB01C01A524183098B424D
:1004B00001D38B01C01A524143098B4201D34B0136
:1004C000C01A524103098B4201D30B01C01A524199
:1004D000C3088B4201D3CB00C01A524183088B4220
:1004E00001D38B00C01A524143088B4201D34B0009
:1004F000C01A5241411A00D201465241104670477B
:100500005DE0CA0F00D04942031000D3404253407F
:100510009C46002203098B422DD3030A8B4212D33F
:100520008901FC2212BA030A8B420CD38901921171
:100530008B4208D3890192118B4204D389013AD0AE
:10054000921100E08909C3098B4201D3CB01C01A83
:10055000524183098B4201D38B01C01A5241430996
:100560008B4201D34B01C01A524103098B4201D384
:100570000B01C01A5241C3088B4201D3CB00C01AF1
:10058000524183088B4201D38B00C01A5241D9D209
:1005900043088B4201D34B00C01A5241411A00D28A
:1005A00001465241104663465B1001D34042002B86
:1005B00000D54942704763465B1000D3404201B505
:1005C0000449002802DC491C084000E00846C046F7
:1005D000C04602BDFFFFFF7F7047704770477546FA
:1005E00000F024F8AE46050069465346C008C00036
:1005F000854618B020B5FFF7D1FD60BCB646002691
:100600000027C0C5C0C5C0C5C0C5C0C5C0C5C0C520
:10061000C0C5403D490849008D46704710B50446A5
:10062000C046C0462046FFF7AAFD10BD00487047EF
:100630000800202001491820ABBEFEE7260002007A
:100640007047811E091F00BFFCD27047F0B53C4ABD
:1006500082183C4BC31808794E793B4D3B4C002E19
:1006600023D0202804D00526F601002803D003E07B
:10067000374E002800D18826576F2F4037435767E1
:10068000976F2F4037439767566B26405663966B9C
:10069000264096630026566596658F26F6435F686A
:1006A00037405F609F6837409F608E7909682028D7
:1006B0000BD0002819D1491E5160D76E2F408821D8
:1006C0000F43D7661746703719E0491E5160D16E47
:1006D00029401F4F3943D166116F294039431167B3
:1006E000012149071B4D174609E049085160D76EA3
:1006F0002F400521C9010F43D766174670373C6864
:100700002C400C433C60D16A104C2140D162116BEB
:10071000214011630021D16411658F21C943D46F39
:100720000C40D4671C680C401C600643BD20304060
:100730001168094B0B40C018801C1060F0BDC0460A
:10074000041800008418000024493E008888FDFF3A
:1007500001040000FFFFFFCF4000FFCF10B50723CB
:100760009B04194092008018024A84589C436118E7
:10077000815010BD3018000010B5029CA400001973
:1007800011431943014A815010BDC0465018000062
:1007900092008018014A81507047C046101800002E
:1007A00010B50122120383180C789C604B7883509B
:1007B0008978014A815010BD0C110000F0B581B05C
:1007C000204801461039096801256C051E4B1A4660
:1007D000103A176827400022D643090203D4002F9D
:1007E0001AD101B0F0BDE90502680A4302607548FC
:1007F00000F0EAF800960646E906724800F0E4F8D0
:100800007040009E304600D1284610490A68801882
:1008100008600D4B002FE4D018682043186076481C
:10082000214600F0D1F804460125A905654800F0ED
:10083000CBF8604000D13546054801686918016071
:1008400001B0F0BD48300A4048100A40E8012020BD
:100850008002202010B5234A8120D06222490860FE
:10086000224BCB641060224C9466D4665465946528
:100870009463D464D465D4639364536653635364BC
:100880009060506008654865C86588654866086678
:10089000106608674867C863886316481649016090
:1008A000016303208102154A13680B431360012181
:1008B0004A05134B1C6A14431C621C6814431C60D9
:1008C000104A114B136013638003104A13680343EB
:1008D0001360C8050E490A6A02430A620A680243A5
:1008E0000A6010BD848042400480424081000E00B6
:1008F00081000C00A0120A40013C0000A0130A4035
:1009000028100A40A0320A40CC330504A0330A4024
:1009100028300A4009480021016009480146083989
:100920000A6803239A430A60016801229143016027
:10093000110202688A4302607047C04608030B40F8
:1009400008010B4080B500F005F8FFF783FFFFF7C3
:10095000E1FF80BD80B5064806494160064A516006
:100960000649016011601020FFF76BFE80BDC04694
:1009700000080A40030000B100280A4001000026D8
:1009800008480168491C016007480178072903D815
:100990000178491C0170704704480168491C0160D6
:1009A0007047C04680032020680220206402202077
:1009B0001049002800D1103101208004014A8850DC
:1009C0007047C04600200A402722D20180580840C4
:1009D000411E884170470000064B002A00D11033A9
:1009E000C15070470349002800D11031024801224C
:1009F0000A5070479012000000000A4070B5064C83
:100A000001252560484E7D200002FFF71AFE761C66
:100A1000F9D3256170BDC04690120A400120400202
:100A200002490968014048424841704780130A4022
:100A30000020B249085E7047A5480068AD49884269
:100A400000DC0846AC49884200DB08467047C046D7
:100A50000020A749085E70479C480068A549884265
:100A600000DC0846A449884200DB08467047C046BF
:100A700010B584B0044601A800F054F9002803D151
:100A80000020C04304B010BD0298201A04B010BD6D
:100A900080B58C4900200870934908708A49087015
:100AA000904908708C4908708A490860904908800C
:100AB00087490860854908608C4908608F4908802B
:100AC0009349088001F040FE80BDC0467D48007813
:100AD0007047C04680B50146844A00201060824AB3
:100AE0001170002903D18A49088001F037FE80BDCA
:100AF0007E4900220A600C49884200DC08467D21BC
:100B0000C900884200DB08467949088070490968B5
:100B1000401A7849884200DC08467749884200DB61
:100B2000084676490880704718FCFFFFF0B589B089
:100B30000C46054606A800F0F5F800285CD006A88B
:100B40008078012100263B28084600D83046079FC0
:100B5000EA1B652A00D3314608405A49087001282B
:100B60005CD10594584801780126002948D059489D
:100B7000006806A9CC78584909788C4201D187428F
:100B80004BD03A1A1423642A194600D811468742DA
:100B900000D00B4601934D48016802911846484326
:100BA0007D21CD00294601F02FFF002106AA515ECC
:100BB000474A126880180490081A03904543019828
:100BC000C100284601F020FF02994018434988429D
:100BD00000DC08464249884200DB08463B49086081
:100BE000032003994843C117890F401880100499C6
:100BF0004018374908600CE03248002606700DE0C6
:100C0000324900220A60067006A8815E304A1160EF
:100C1000C4783048076030480470059C3149087832
:100C2000401C0870C0B20A284AD3002008702E4920
:100C300009780E40012E3CD123490978002938D08B
:100C400000202B49085E22490968421A294882423D
:100C500000DC024626462848824200DB024627483E
:100C600002800A210B465343204804681B19244C78
:100C7000A34200DC2346234CA34200DB234603604F
:100C8000CD20504301F0C0FE0546104801684B20BE
:100C900048430921C94301F0B7FEF100691808185B
:100CA0001949884200DC08461849884203DB084697
:100CB00001E00E4908601649088000B201F04EFDBF
:100CC00009B0F0BD9C002020A6002020BC00202000
:100CD000B8002020B0002020AC00202078ECFFFFDE
:100CE00088130000A800202098002020C0002020A9
:100CF000B40020200080FFFFFF7F0000A000202024
:100D0000C0F2FCFF400D0300A8E4FFFF581B0000E9
:100D1000A40020201748C0697047C0461548806964
:100D20007047C04610B5002815D0124A137AD9076B
:100D3000FCD151890180117B8170517BC170116997
:100D40004160117D0172147AA342EFD101231C404E
:100D5000ECD1084610BD002010BDC046054800215A
:100D60000172418101734173016101758161C1713A
:100D7000C16170478C03202010B50024204600F08C
:100D8000A5FF01F025FA0448046384854485C481E5
:100D900084800621017010BD68012020F0B58BB061
:100DA00001460020002964D07F2293021F680F6053
:100DB0005D684D609A688A60DC680094CC601C694C
:100DC00001940C615C6902944C619E698E61DC69DE
:100DD0000394CC611C6A04940C625C6A05944C62B6
:100DE0009C6A06948C62DC6A0794CC621C6B089443
:100DF0000C635C6B09944C639C6B8C63DB6B0A9398
:100E0000CB631D49794001236B400B4307214C40C4
:100E10001C43631E9C4173427341234329D11748ED
:100E2000424017484243009B5A404243019B5A406C
:100E30004243029B5A40424372404243039B5A4002
:100E40004243049B5A404243059B5A404243069BFF
:100E50005A404243079B5A404243089B5A404243F0
:100E6000099B5A4042434A4042430A98811A4842E9
:100E700048410BB0F0BDC046314C4143A766714BB1
:100E800093010001F0B581B02A4D2846FFF786FF97
:100E9000294F387029490870DA4E30461030002446
:100EA000214600F0D9FE01F0DFF901F0B9FB00F0B6
:100EB00055FF01F067FC00F0E9FBD3480221017007
:100EC000D24804803878002800D0A86800F0ECF9F7
:100ED00001F09CFA2046FFF76BFDFFF78FFDF08BCA
:100EE000E0490880308CE04908802220305CE949E4
:100EF00008702320305CE8490870F07C10490870C5
:100F0000307D10490870706AB16A0F4A10600F484E
:100F10000160B08DD549088001F07AFBDF49087087
:100F200001F094FBDE49087001F076FBDD490870A2
:100F300001B0F0BD3C0320207C0320204001202094
:100F4000E6012020E501202064012020600120200E
:100F5000F0B581B0FFF762FD064601F095FC07464B
:100F600001F052FC054600F019FA0446A14806704B
:100F7000A1480770A1480570284601F02DFCA04942
:100F80000870A048807900281CD127469E48047824
:100F900000F078FB844203D09B48007800F0A0FB6F
:100FA00000F070FB06283C460CD198480488FFF7F7
:100FB0004FFD80B284423C4604D000209349085E35
:100FC00000F076FB002E15D08E4F38881D2803D8F0
:100FD000411C39801D2811D1387900280ED10120FB
:100FE0003871B879012836D100203881B87100F005
:100FF00009FC03E00020834F3871388020462946E1
:1010000000F012FC00F03AFB0646C01F022802D294
:101010000020B87100E0B8797D49087001252840AA
:10102000FFF7C6FC072E3ED0082E10D100F012FBB1
:10103000002509281DD801267844007940008744FE
:101040003218181818181D041A1C022616E0FFF78B
:101050003DFD054627E001F017FC01F0D5FB0646F3
:1010600001F0D4F900F09AF9314600F05DFBB87157
:10107000C4E7052602E0032600E004266549204671
:10108000FFF7AEF988B28008634A4243500D8642AA
:1010900009D94B2292004243881A80B2962801D384
:1010A000002500E001252846FFF79CFC00F0EAFA45
:1010B0005A49087000F0E2FA5949087000F0CAFA7B
:1010C00058490870204600F0B5FA5749086000F00A
:1010D000CDFA5649086000F0A9FA5549086000F0B9
:1010E000C9FA5449088000F09DFA53490860FFF797
:1010F000AFFC52490880FFF79FFC51490880FFF779
:10110000ABFC50490880FFF793FC4F49088001F081
:1011100015FB4E490880FFF7D9FC4D490870204661
:10112000FFF7A6FC4B490860FFF7F8FD4A49086045
:10113000FFF7F0FD4949086000F00CF948490860E4
:1011400000F090FA4749088047480024048000F0E6
:1011500085FA4649088000F0E1FD4549086000F045
:10116000EDFD4449086000F0E5FD434D288000F0A6
:10117000F1FD424E3080285F00F0CAF84049086017
:10118000305F00F0C5F83F49086000F0CFFD3E4DEC
:10119000288000F0DBFD3D4C208000F0BBFD3C4989
:1011A0000870288801B2C9134840401A81B2C8208B
:1011B000C82900D30146374A117021880AB2D213D8
:1011C0005140891A89B2C82900D3014632480170BA
:1011D00001F040FA01F054FA01F01AFA2F490870B0
:1011E00001F034FA2E49087001F016FA2D49087002
:1011F00001B0F0BD380320208A0320208503202081
:101200008403202068002020C8012020C60120205F
:10121000F0012020B80B00003B6D0000D50120201C
:10122000D4012020C4012020C0012020CC01202096
:10123000BC012020D2012020B0012020B8012020B4
:10124000B6012020BA012020B4012020D0012020A6
:10125000E4012020D8012020E0012020DC01202012
:101260008802202088032020860320205C01202083
:10127000440120205001202048012020540120203A
:101280004C01202058012020EE0120208602202041
:1012900060022020EC012020840220207D022020FA
:1012A0007E0220207F022020B0B50446074D28464C
:1012B0003C304021FFF791F8601C686428461030EC
:1012C00000F0D8FC002068602880B0BDC400202059
:1012D000F0B581B00546C1171C4A00242346FEF72D
:1012E0006BFF1B4A1268D30FD318DF175E107342CF
:1012F000BC41002D00D43C46002D00D433461818C4
:101300004C41D3172146FEF76FFF01B0F0BDC04638
:10131000F0B581B00546C1170C4A00242346FEF7FC
:101320004BFF0B4A13680A225A43D31757107E42C9
:101330009C41002D00D41C46002D00D43E463018A0
:101340004C412146FEF750FF01B0F0BD40420F0076
:10135000000020200D4800687047C04610B51949AC
:10136000002008700F490860084908600849094AC8
:101370004A60FF221206084B1C689443032292071E
:10138000A2181A6088600720086010BD640220203F
:1013900010E000E0FF7C000020ED00E00148006864
:1013A0007047C04680032020EFF3108072B60549D5
:1013B0000878002802D00A78521E0A70411E88411F
:1013C00062B6704768022020EFF3108172B61849A8
:1013D0000968184A126806C062B67047EFF31080B9
:1013E00072B61348002101601248016062B6012004
:1013F000C105074A13680B431360400505490A6895
:1014000002430A6004480221016001607047C0463F
:1014100048300A4048100A4000E100E0EFF3108035
:1014200072B60348002101600248016062B670474D
:10143000E801202080022020B0B50446002528467F
:1014400000F044FC00F0E2FFED4805634470C58104
:10145000858008210170B0BD70B500280CD00379DB
:10146000012B0ED10BB2DB130C465C40E31A1CB20D
:10147000012C0EDC00231EE00020014600F0D2FC0F
:1014800070BD531E14469C4145882C2D03D8002363
:1014900002E05B1E0FE0012303290E4600DB03265A
:1014A00023402C2D00D80E469A4031B2C913334642
:1014B0004B405B1A3146008A801800B21AB2904243
:1014C00003DC5342984200DB0346C81A00B25918A5
:1014D00009B200F0A7FC70BD002809D00021C1802E
:1014E000017141800170018141818181C18101824D
:1014F0007047002809D00021C1800171418001702E
:10150000018141818181C18101827047F0B581B043
:10151000002800D181E003785B1C0370DBB2052B4F
:101520007BD3002505703E4C002919D0164607468E
:10153000084601F06AF9014638460A22BB5E002BD4
:101540001CD0E21F4F1F92B2BFB2974216D3324651
:10155000002E1ED08900C918CB0FC91849101FE0F2
:1015600005714188E21E92B291420AD2C5814A1D9C
:1015700042800289C280272906D841E0890032468C
:101580000EE0C5810289C28011B2002936DD022138
:1015900037E007265E43890071184B0FC918C91040
:1015A00041810123037145800BB29B0FC91809B219
:1015B0008B10C380818983810381591A0DB2032660
:1015C000F1438D4200DC0D46042D00DB0425C5816E
:1015D0000221002A00D10E46B340561EB2415543A7
:1015E0006A00D218172A0CDC1621C9438A42214608
:1015F00007DBD117490F5118C90802E0214600D472
:10160000018A1022825E09B2914201DD012102E0CD
:10161000914202DA611C5118018201B0F0BDC0464E
:10162000FEFF00007F48006B7047C0467D48406A5F
:101630007047C0467B4A9169002901D0084670472F
:101640001178002903D05169411A084670470020DB
:101650007047C046734840787047C046442071497F
:10166000085E70473A206F49085E70476D48806990
:101670007047C0462A206B49085E70476948007869
:101680007047C046674880787047C04610B56548C7
:10169000002404850221817004803430FFF71CFF90
:1016A000FFF75CFBFFF7F4F92046FFF713FA10BDD4
:1016B00010B57D21CA00821894B209018C4206D867
:1016C000584908858978062901D1FFF711FA03489E
:1016D000844201D3002010BD012010BDD1070000BD
:1016E000B0B5821E0021042A1CD84E4A1378082B5C
:1016F00018D8012425469D40FF2382331D4211D076
:101700009070C11E032901D2002002E0062805D1F5
:10171000108D00B2FFF7ECF9204600E00020FFF743
:10172000D9F921460846B0BDF0B581B00C463D4E12
:10173000B578A91E05292AD20027B7857785776253
:101740007061B7617770F01C0D21FEF744FE3763BE
:10175000F474B474E1204000022D009000D1B42054
:10176000308230463430FFF7C4FEB578032D10D1F7
:10177000FFF7ACF9002819D001242046FFF7AAF999
:1017800000983230FFF7B4F92046022414E001201B
:101790000FE0002C0CD0032D04D3FFF797F900289D
:1017A00004D0B578062D0DD038460CE0032000E0BB
:1017B00002207070002008240021F181B180347073
:1017C00001B0F0BD308DFE242C40042C00D0074623
:1017D00038B2FFF78DF9201F41424141AA1F504204
:1017E00050410843FFF776F900F0FAFA0124204649
:1017F00000F06CFA00F080FAF06130622046DBE71E
:101800006801202010B50024204600F05FFA00F0A7
:10181000FDFDFA48046384854485C4818480047096
:1018200010BDC04668012020F0B585B0F34F3A786E
:10183000082A0AD801239340FF248234234204D08B
:101840000021FFF773F905B0F0BDBB885B1CBB80BE
:10185000931E032B33D2002405462146FFF766F979
:10186000FFF734F9002843D0BC813878042800D130
:10187000CBE0032800D1B2E0022829464CD1FFF783
:10188000D7F8294602B2D2135040801A80B23228CB
:1018900041D8FFF7E1F8294602B2D2135040801A2E
:1018A00080B2C82837D8F889401CF88180B27828DF
:1018B00032D3D348FFF71CF92946032629E0062A2C
:1018C00040D1002405462146FFF730F9B888782832
:1018D00000D28FE100F09AFDB869002802D1786942
:1018E000281AB861FC81BC800720387005B0F0BDB3
:1018F000B889401CB88180B2962829460CD320466E
:1019000000F0E4F900F082FD29463C630420787081
:101910000826BC803E70FC817869081AB949884263
:1019200000D267E13878072800D163E1204600F053
:10193000CDF900F06BFD3C63B3483880FC81BC807E
:1019400005B0F0BD04900C4600F0D6F9F96902909C
:10195000401AC1174840401AFFF7BAFC05467D20DF
:10196000C1002846019101F04FF821467862BC7C05
:10197000B974FB7CFC74012600220392A34A9542B1
:10198000324600DC039AA24D4019A24DA84200D372
:10199000039E32431846204023430B400343DDB2ED
:1019A0003C46343420462946FFF7B0FD002D4ED08A
:1019B0000020F880BA78032A60D3FFF787F8002860
:1019C00052D00020B881FFF737F801B2C913484060
:1019D000401A80B2914988424FD905266BE0FFF743
:1019E00027F801B2C9134840401A80B2322829466C
:1019F00092D8FFF731F8294602B2D2135040801A2C
:101A000080B2C92888D2042683E7FFF711F801B213
:101A1000C9134840401A80B20326322822D8FFF763
:101A20001BF801B2C9134840401A80B2C8282946A1
:101A300000D96EE7F889401CF88180B280084B28F5
:101A400000D269E77869081AB861072661E7F88863
:101A500071494A1C062690422DD2421CFA808842C7
:101A6000A8D128E0294654E7B8890426952822D829
:101A7000411CB9819528A6D11DE0BA7879690498EE
:101A8000411A921ED2B2022A03D8920065A39A5834
:101A900000E0634A91420DD23978082900D1CFE69F
:101AA000052916D10222BA857B8D19B2914216DC26
:101AB0003C2615E008260024204600F007F900F037
:101AC000A5FC3C637E70FC81BC80082038700498C3
:101AD000B6E6F98E89B22C290FD800210EE01E2619
:101AE000934203D100213963398242E03B8A9E420E
:101AF0000AD9591C3982396B3BE001213822BA5C82
:101B0000914307D10A2206E00020388291421BDB74
:101B1000C0431AE003220029C5D1796A444B994297
:101B2000C1DC3B4BC9183B4B9942BCD3798F0AB2FD
:101B3000D2135140891A09B2042901DD0A22B2E701
:101B4000022959DC1222AEE70120401878850846A8
:101B5000FFF7DEFB03902A20385EFFF7D9FB0399DD
:101B6000411A01984843314600F04EFF0146386360
:101B70000498FEF7DBFF2A20395E00262046324615
:101B8000FFF76AFC00F098F900F0C4F8002804D0D0
:101B90000720FFF751FC05B0F0BD387805280ED1BD
:101BA000386A0299081AC1174840401AFFF790FB9B
:101BB000214988421EDBFFF7DFF805B0F0BDB87899
:101BC00004280ED1786A1B4988420ADB02983862E1
:101BD000FE81BE800520387079690498401AB8618A
:101BE00008E0284600F098FE002803D0B8780228C4
:101BF000E1D0EBE705B0F0BD0B2254E768012020EF
:101C00000CFEFFFF88130000080800004768400032
:101C100082FBFFFF17080000570200004C04000081
:101C2000B8880000C0D4010088130000102700000D
:101C30007C100000DC050000A08601000448812122
:101C40000160012000020349086008647047C04633
:101C50004C80424090120A4000280AD000220171B4
:101C6000C170827002808260C260026142618261E2
:101C70008283704770B584B0002813D004215022AD
:101C80000823009301920291044608340025064679
:101C900020462A462B4600F05FFC356075602046E2
:101CA00000F073FC04B070BDFEF74CFEFFF7C6FFFA
:101CB000FFF7E8F8FFF752FB00E030BFFFF774FBD7
:101CC0000028FAD0FFF744F9F8E7000010B5794C86
:101CD000207000280ED10020A0816081A08060804B
:101CE0002046243000F051FC4834204600F04DFCE2
:101CF00000F08CFB10BDC04680B582B06846FFF78F
:101D000063FB009801990818C10F4018401002B0F9
:101D100080BD000020206749085C704780B582B014
:101D20006846FFF751FB009802B080BD0A20614968
:101D3000085E704706205F49085E704780B582B034
:101D40006846FFF741FB019802B080BD0C2059495D
:101D5000085E704708205749085E7047F0B589B0A3
:101D6000FFF73CFB2D2105914B20000104900A2434
:101D70000094019002914F4E304624300690122775
:101D800003220392002539462B4600F0E5FB009420
:101D9000049801900598029034464834204639460C
:101DA000039A2B4600F0D8FBFFF738FB07A8FFF794
:101DB0000BFB35607560B560B58130461830057233
:101DC0000898079931617061B561F561069800F076
:101DD000DCFB204600F0D9FB00F018FB09B0F0BD99
:101DE00010B582B0FFF71AFB6846FFF7EDFAF54C25
:101DF000002020606060A060A08121461831087238
:101E00000199009A22616161A061E061204624305D
:101E100000F0BBFB4834204600F0B7FB00F0F6FAB8
:101E200002B010BD70B50D460446002812D0012046
:101E30000022002C014600DC11460223E14EF35E35
:101E4000012B04DA414005D0002D09D116E01046DF
:101E50004140F9D1DB48243000F097FB002D0DD034
:101E600001200022002D014600DC11460423D54E3E
:101E7000F35E012B00DB1046414003D1D1484830CE
:101E800000F083FB1320C043854200DC054614218B
:101E9000142D00DB0D46CB4A9580844203DD142CC3
:101EA00004DA548070BD0446142CFADB0C465480CE
:101EB00070BDC046F4012020F0B58DB0C14C207833
:101EC000012805D16078401C6070C0B20A2801D298
:101ED0000DB0F0BD002565700BA8FFF775FA2069FD
:101EE0000B99216162690C9B6361091AE1809E1A5A
:101EF000268102200390235E002B28460AD06089A9
:101F000002B2D2135040801A80B2132801D80020A8
:101F100000E00120069004200290205E0990002835
:101F20000AD0A08902B2D2135040801A80B213287E
:101F300001D8002500E00125049508B20A9001258A
:101F40000793012B03DB0A9800282F460BD40120AE
:101F50000022079B002B074600D417460A9B002B44
:101F600000DC10460740059730B2099A012A08950F
:101F700002DB00282B460AD401250022099B002BF6
:101F80002B4600D41346002800DC15462B400A9A45
:101F9000D2130D465540AA1A92B21E2A01D9052025
:101FA000A1E0C01332464240101A80B21E2801D967
:101FB000062098E088B24242424106980240002042
:101FC0008149012A0546049F06D1258B7F4A954207
:101FD000089A019205D20A3525838D4200D9012045
:101FE0000190B0B2424242413A400020012A0546E7
:101FF00005D1658B754A9542089E06D20A356583E0
:102000008D4201D8064600E001261A460698059939
:102010000840002101280B46089D05D1A38B6B4881
:102020008342284606D20A33A383632B01D808468D
:1020300000E001201740012F06D1E18B634A914255
:10204000019F3AD20A3101E00021019FE183002F74
:102050002A4600D13246002A2A4600D10246002EE6
:1020600001D1032003900123002F18461ED0002A1F
:102070001FD0632900D80023002A294600D1194621
:10208000012930D02020205C00282ED1002507997E
:1020900000293CD0204624300A9A00F07EFA022122
:1020A000615E012937DB4A0016323AE00398002AC4
:1020B000DFD102986329DED9DEE7002F294605D05B
:1020C000002906D0002E07D1032006E03146002962
:1020D000F8D10546002EF7D00220002F00D00120B5
:1020E000002D00D10420202160540020A0816081B7
:1020F000A080608020702046243000F046FA4834EA
:10210000204600F042FA00F081F90DB0F0BD2946FA
:102110002E46099B07E0002901D4002201E04A0075
:10212000163A1618A388180418D00820225E2046F4
:10213000483019B200F031FA0421615E012902DB56
:102140004A00163205E0002901D4002201E04A00CD
:10215000163A4B424B410893151861886823D843BF
:10216000854200DC0546692D00DB69250022080454
:10217000104611D0D843864200DC0646692E00DBAB
:1021800069260A20205EC31E9E42314600DC1946A5
:10219000C01C864200DC08466081089900290AD1EB
:1021A0000C21625ED31E9D42294600DC1946D21CDA
:1021B000954200DC0A46A28100B211B200F04CF94F
:1021C0000DB0F0BDF40120201F030000F6FF000059
:1021D000F0B581B001246603DB4D28463146224626
:1021E000FEF7FAFB210328462246FEF7F5FBA10283
:1021F00028462246FEF7F0FBE10228462246FEF77B
:10220000EBFBD24D402128462246FEF7E5FB61025A
:1022100028462246FEF7E0FB284631462246FEF7D6
:10222000DBFB082128462246FEF7D6FBC84F0026D6
:10223000384631463246FEF7ABFA0222384631467E
:10224000FEF7A6FA032238463146FEF7A1FAC14846
:1022500031463246FEF79CFA802128462246FEF798
:10226000BBFB01B0F0BDC046F0B58BB00AAF002497
:10227000BC7008200590388001200790000209906A
:1022800019208001019008905648842181628321A1
:102290008163852104910160534854494160544948
:1022A000016010200390FEF7CCF9A94E3046394664
:1022B000FEF776FA08A93046FEF7C8F900943046D2
:1022C0003746214622462346FEF756FA0225009558
:1022D00006953046214622462346FEF74DFA032650
:1022E00000963846214622462346FEF745FA3846F0
:1022F00021462246FEF732FA384621462A46FEF7A4
:102300002DFA3846214632460296FEF727FA38461D
:10231000019D29462246FEF73BFA38462946069A91
:10232000FEF736FA384629463246FEF731FA31488A
:10233000079A82600D2101602F48016811430160F6
:102340000AAFBC7005983880099408952B48049909
:1023500001602B4825494160254901600398FEF73B
:1023600070F97C4E30463946FEF71AFA08A9304615
:10237000FEF76CF900943046214622462346FEF7CC
:10238000FBF9304621462246FEF7E8F9304637464B
:1023900029462246FEF7FCF91A48079A8260026035
:1023A00019480168114301602A480270684E30469E
:1023B00029462246FEF7ECF930462946069AFEF7F2
:1023C000E7F930462946029AFEF7E2F938462946EF
:1023D0002246FEF7DDF9D24880212246FEF7FCFABC
:1023E0000BB0F0BD3C80424000088640030000B1C5
:1023F000010000260011864004188640E480424017
:1024000000888640009186400498864070B5114847
:102410000078012817D1192084014D4E002530463F
:1024200021462A46FEF7B4F9022230462146FEF73D
:10243000AFF9032230462146FEF7AAF94548214666
:102440002A46FEF7A5F9B64880210022FEF7C4FA15
:1024500070BDC04661022020F0B583B00C46012655
:102460000021019102900028354600DA019D710398
:10247000354800912A46FEF7AFFA3103029880B240
:10248000C70B31483A46FEF7A7FAB1022E483A4642
:10249000FEF7A2FAF1022C482A46FEF79DFA002C1C
:1024A000374600DA019F9E4840213A46FEF794FAEB
:1024B0007102A0B2C50B9A4E30462A46FEF78CFA3E
:1024C000304600992A46FEF787FA082130463A46F8
:1024D000FEF782FA20B2C01321464140081A80B2AA
:1024E000C825C82800D32846C00019218E01371AF4
:1024F00017483946019AFEF74BF9029908B2C01302
:102500004140081A80B2C82800D32846C000351AB6
:1025100002220F4E30462946FEF73AF90322304692
:102520003946FEF735F90B482946019AFEF730F98E
:1025300002980443601E8441802179482246FEF7B8
:102540004BFA03B0F0BDC04600000A4000200A402C
:102550000000864000808640F0B581B0002812D08F
:102560000093089B079E069D20270024C455066102
:1025700043618461C46106C0009901600838012D7F
:1025800000D80125C56001B0F0BD002804D020218D
:10259000002242548261C261704770B5002809D0A0
:1025A000891A2022825C03462033002A04D0C269A3
:1025B0008A1A02E0002070BD0022C16101241C7053
:1025C00083695C1803695E42B442254600DC3546E7
:1025D0009C4200DC2B46836144685C43036859439A
:1025E000611883685A438A18C1680446104600F08F
:1025F0000BFA01466069434299420A4602DD814274
:1026000003DD70BD1A468142FBDC104670BD000040
:10261000424800787047C046474800787047C04637
:10262000B0B54148002404603E4804603B48047053
:102630003F4804703F4D2C703F4804700120010456
:10264000B4482246FEF7C8F92C70B0BD394800786E
:102650007047C04610B53448002404603148046017
:102660002E4804703248047033480470012001047D
:10267000A8482246FEF7B0F92E48047010BDC046A7
:10268000F0B581B0254A157801242104A148002D18
:102690000FD024480768244E33685B1EBB420AD221
:1026A00000243460046014702148047022480470CF
:1026B00008E0002407E01D4B9F420BD31E48047026
:1026C0000024147093482246FEF786F919480470D6
:1026D00001B0F0BD0E46791C01600A21284600F0C9
:1026E00071F9134909780027814201D33A4600E085
:1026F0000122632D874800D8144631462246FEF752
:102700006BF90C4804700A4A1078401CC1B20929C0
:1027100000D80746177001B0F0BDC04674022020F3
:1027200000200A406C02202070022020307500003A
:10273000780220207A0220207C02202000201049EC
:10274000085E704770477047B0B50D4C0025258076
:10275000FFF7F8FF605FFFF7F6FFB0BD80B50649F1
:10276000884200DC08460549884200DB08460449E7
:102770000880FFF7E8FF80BDA8E4FFFF581B0000BA
:1027800042012020F0B583B0114E30463830FFF7BB
:1027900071FA08217D2738010A22009201900291E6
:1027A0003046643000240C2522462B46FFF7D4FE29
:1027B0000320029007480190F800009030468830CE
:1027C000062122462B46FFF7C7FE347003B0F0BD4A
:1027D0008C022020400D0300012101408207D20F0E
:1027E00051184207D20F51180207D20F5118C206D2
:1027F000D20F51188206D20F51184206D20F51182B
:10280000C0094018C0B270477047F0B581B00221CE
:1028100001400122024053420624A343002900D074
:102820005B1F0424044000D0DB1E082505402E0752
:10283000F6179B1910260640360900969B1920278B
:10284000074000D0DB1C4026064000D05B1D490835
:102850005118A2088918EA088918009A89187A0973
:102860008918B209891840B2002804D4080604D196
:10287000002001B0F0BDDB1D491C58B249B200F088
:10288000C3F840B201B0F0BDF0B581B00125A90692
:102890001F4E3046FEF798F80446E9063046FEF72C
:1028A00093F8002800D0A41C2E0619483146FEF7E4
:1028B0008BF8002800D0241D6F0615483946FEF716
:1028C00083F8002800D0083412483146FEF77CF81F
:1028D000002801D0102004430E4E30463946FEF742
:1028E00073F8002801D020200443A9050848FEF70A
:1028F0006BF8002801D04020044329053046FEF73C
:1029000063F8002801D080200443E0B201B0F0BD9C
:1029100000000A4000200A4070B50446FFF75CFF43
:102920000022032806D3E006800F03D0C3222240F2
:10293000501E824121494B6AC878002819D0204D89
:1029400001200024AB42034600DC23468E88AE42C1
:1029500000D8204618400240012A0FD14889062895
:1029600003D2421C4A8105281BD10020C8700120D7
:1029700070BD002A05D00020088170BD002048816C
:1029800070BD0A89272A08D8501C08817D20840040
:102990000020A34207DB034606E07D20800083423F
:1029A00008DA002070BD0123273A541EA2411A43C1
:1029B00000D070BD0120C870002070BD68012020CB
:1029C0008713000043088B421AD3002203098B426D
:1029D00079D3030A8B425ED3030B8B4242D3030CA1
:1029E0008B4227D30902FF2212BA030C8B4202D377
:1029F0001212090203D0030B8B4233D31AE0D3E047
:102A0000411A8041401C704703460B4371D4430870
:102A10008B42F5D3002203098B4254D3030A8B4225
:102A200039D3030B8B421DD3030C8B4202D3944644
:102A30006EE0090AC30B8B4201D3CB03C01A52418B
:102A4000830B8B4201D38B03C01A5241430B8B4241
:102A500001D34B03C01A5241030B8B4201D30B032A
:102A6000C01A5241C30A8B4201D3CB02C01A524151
:102A7000830A8B4201D38B02C01A5241430A8B4214
:102A800001D34B02C01A5241030A8B4201D30B02FD
:102A9000C01A5241CDD2C3098B4201D3CB01C01A17
:102AA000524183098B4201D38B01C01A5241430921
:102AB0008B4201D34B01C01A524103098B4201D30F
:102AC0000B01C01A5241C3088B4201D3CB00C01A7C
:102AD000524183088B4201D38B00C01A52414308F4
:102AE0008B4201D34B00C01A5241411A524110008F
:102AF0007047CA0F00D04942031000D340425340F0
:102B000000229C4603098B422DD3030A8B4212D329
:102B10008901FC2212BA030A8B420CD3890192115B
:102B20008B4208D3890192118B4204D3890137D09B
:102B3000921100E08909C3098B4201D3CB01C01A6D
:102B4000524183098B4201D38B01C01A5241430980
:102B50008B4201D34B01C01A524103098B4201D36E
:102B60000B01C01A5241C3088B4201D3CB00C01ADB
:102B7000524183088B4201D38B00C01A5241D9D2F3
:102B800043088B4201D34B00C01A5241411A00D274
:102B900001465241104663465B1000D340427047E5
:102BA00063465B1000D3404201B50021004201D0D2
:102BB000C9430846C046C04602BD000000000000F0
:102BC000E02B000000002020080000002001000091
:102BD000E82B000008002020A804000048010000A5
:082BE0004107000000000000A5
:04000005000000C136
:00000001FF
