:020000040000FA
:10000000C00420208D010000910100009301000038
:1000100000000000000000000000000000000000E0
:10002000000000000000000000000000950100003A
:100030000000000000000000970100009909000086
:100040009B010000BD0700009B0100009B01000018
:100050009B0100009B0100009B0100009B01000030
:10006000000000009B0100009B0100000000000058
:10007000000000009B0100009B0100009B010000AC
:100080009B0100009B0100009B0100009B01000000
:100090009B0100009B010000000000000000000028
:1000A0009B0100009B010000000000000000000018
:1000B0009B010000000000009B0100009B0100006C
:1000C00000F002F800F052F812A030C808382418E6
:1000D0002D18AC4201D100F049F80FCCA246AB4636
:1000E0000CA730CF2D1B083F3F197C427F1E544484
:1000F0002D090426F441641EAC4201D300F036F809
:100100000126334200D0FB1A3343984754465D46DC
:10011000DFE70000BC310000DC310000000000001F
:10012000103A02D378C878C1FAD8520701D330C840
:1001300030C101D504680C60704700000000000069
:100140007047000000000000002300240025002666
:10015000103A01D378C1FBD8520700D330C100D583
:100160000B6070471FB51FBD10B510BD00F037FA0A
:100170001146FFF7F7FF02F0F3F800F04FFA03B46F
:10018000FFF7F2FF03BC00F055FA000006480047F5
:10019000FEE7FEE7FEE7FEE7FEE7FEE70348044969
:1001A000024A044B70470000C1000000C003202039
:1001B000C0042020C00320204343514330B55C18C5
:1001C000010C130C0D4692B25D4380B251432C19C1
:1001D000054655430A0C09044D1962415843010C68
:1001E00000044019514130BD70B5054610460C461B
:1001F00018430ED000210846891A984127DA0021B9
:100200000846491BA04118DA2846214600F03FF86D
:1002100070BD002C03DA01230022DB0707E0002178
:100220000846491BA04102DA0022D2435308104677
:100230001946C046C0462A4627E000216842A1412F
:1002400000F025F8002440428C4121461AE00021AC
:100250000846491BA0410CDA214600205242984131
:100260000346284600F013F8002440428C41214602
:1002700070BD002052429841002103466842A141CE
:1002800000F005F8002452429C41234670BDFEB5A3
:10029000044610460D46184373D0A6468C460020EF
:1002A000A41A01469D4167D36646002701243D46B6
:1002B000B61A9D4102D313463A4621246546764636
:1002C0002F04360C3E432D0CB61A9D4104D3150C59
:1002D0001B042B4312041034654676462F06360A5B
:1002E0003E432D0AB61A9D4104D3150E1B022B4323
:1002F00012020834654676462F0736093E432D091B
:10030000B61A9D4104D3150F1B012B431201241D66
:1003100065467646AF07B6083E43AD08B61A9D411E
:1003200004D3950F9B002B439200A41C6546764690
:10033000EF0776083E436D08B61A9D411AD392180E
:100340005B41641C16E00018764665464941B71AC1
:100350009D410191009009D36046B11A98418E46A3
:100360008446009801990025401C6941DD07520828
:100370002A435B08641EE6D57246634603B0F0BDAF
:10038000FFE72046284307D00020C0430146C0466F
:10039000C04622462B46F1E700200146F7E701E080
:1003A00004C0091F0429FBD28B0701D50280801CE1
:1003B000C90700D00270704700290BD0C30702D0D4
:1003C0000270401C491E022904D3830702D5028013
:1003D000801C891EE3E70022EEE70022DFE7000031
:1003E000002203098B4273D3030A8B4258D3030BB9
:1003F0008B423CD3030C8B4221D312E003460B43C8
:100400007FD4002243088B4274D303098B425FD30D
:10041000030A8B4244D3030B8B4228D3030C8B4239
:100420000DD30902FF2212BA030C8B4202D312121F
:10043000090265D0030B8B4219D300E0090AC30BF4
:100440008B4201D3CB03C01A5241830B8B4201D3A1
:100450008B03C01A5241430B8B4201D34B03C01A8A
:100460005241030B8B4201D30B03C01A5241C30A02
:100470008B4201D3CB02C01A5241830A8B4201D373
:100480008B02C01A5241430A8B4201D34B02C01A5D
:100490005241030A8B4201D30B02C01A5241CDD202
:1004A000C3098B4201D3CB01C01A524183098B424D
:1004B00001D38B01C01A524143098B4201D34B0136
:1004C000C01A524103098B4201D30B01C01A524199
:1004D000C3088B4201D3CB00C01A524183088B4220
:1004E00001D38B00C01A524143088B4201D34B0009
:1004F000C01A5241411A00D201465241104670477B
:100500005DE0CA0F00D04942031000D3404253407F
:100510009C46002203098B422DD3030A8B4212D33F
:100520008901FC2212BA030A8B420CD38901921171
:100530008B4208D3890192118B4204D389013AD0AE
:10054000921100E08909C3098B4201D3CB01C01A83
:10055000524183098B4201D38B01C01A5241430996
:100560008B4201D34B01C01A524103098B4201D384
:100570000B01C01A5241C3088B4201D3CB00C01AF1
:10058000524183088B4201D38B00C01A5241D9D209
:1005900043088B4201D34B00C01A5241411A00D28A
:1005A00001465241104663465B1001D34042002B86
:1005B00000D54942704763465B1000D3404201B505
:1005C0000449002802DC491C084000E00846C046F7
:1005D000C04602BDFFFFFF7F7047704770477546FA
:1005E00000F024F8AE46050069465346C008C00036
:1005F000854618B020B5FFF7D1FD60BCB646002691
:100600000027C0C5C0C5C0C5C0C5C0C5C0C5C0C520
:10061000C0C5403D490849008D46704710B50446A5
:10062000C046C0462046FFF7AAFD10BD00487047EF
:100630000800202001491820ABBEFEE7260002007A
:100640007047811E091F00BFFCD27047F0B53C4ABD
:1006500082183C4BC31808794E793B4D3B4C002E19
:1006600023D0202804D00526F601002803D003E07B
:10067000374E002800D18826576F2F4037435767E1
:10068000976F2F4037439767566B26405663966B9C
:10069000264096630026566596658F26F6435F686A
:1006A00037405F609F6837409F608E7909682028D7
:1006B0000BD0002819D1491E5160D76E2F408821D8
:1006C0000F43D7661746703719E0491E5160D16E47
:1006D00029401F4F3943D166116F294039431167B3
:1006E000012149071B4D174609E049085160D76EA3
:1006F0002F400521C9010F43D766174670373C6864
:100700002C400C433C60D16A104C2140D162116BEB
:10071000214011630021D16411658F21C943D46F39
:100720000C40D4671C680C401C600643BD20304060
:100730001168094B0B40C018801C1060F0BDC0460A
:10074000041800008418000024493E008888FDFF3A
:1007500001040000FFFFFFCF4000FFCF10B50723CB
:100760009B04194092008018024A84589C436118E7
:10077000815010BD3018000010B5029CA400001973
:1007800011431943014A815010BDC0465018000062
:1007900092008018014A81507047C046101800002E
:1007A00010B50122120383180C789C604B7883509B
:1007B0008978014A815010BD0C110000F0B581B05C
:1007C000204801461039096801256C051E4B1A4660
:1007D000103A176827400022D643090203D4002F9D
:1007E0001AD101B0F0BDE90502680A43026017485A
:1007F00000F0F4F800960646E906144800F0EEF81A
:100800007040009E304600D1284611490A68801881
:1008100008600D4B002FE4D01868204318600D4885
:10082000214600F0DBF804460125A905074800F041
:10083000D5F8604000D13546074801686918016065
:1008400001B0F0BD48300A4048100A4000200A407C
:10085000F001202000000A409002202010B5284A14
:100860008120D06227490860274BCB641060274C59
:100870009466D466546594659463D464D465D463F3
:1008800048608861906293645366536353649060D8
:10089000506008654865C8658865486608661066E2
:1008A00008674867C863886361481949016106227F
:1008B0000260891D016403208102164A13680B43FC
:1008C000136001214A05144B1C6A14431C621C6806
:1008D00014431C60404A114B13614B041360104BCE
:1008E000136480030F4A136803431360C8050E495D
:1008F0000A6A02430A620A6802430A6010BDC046DF
:10090000848042400480424081000E0081000C003F
:10091000013C0000A0130A4028100A40CC33050413
:10092000CC330704A0330A4028300A40094800218C
:1009300001600948014608390A6803239A430A609E
:100940000168012291430160110202688A4302603A
:100950007047C04608030B4008010B4080B500F00B
:1009600005F8FFF77BFFFFF7E1FF80BD80B5064884
:1009700006494160064A5160064901601160102035
:10098000FFF75FFE80BDC04600080A40030000B1CB
:1009900000280A400100002608480168491C01603F
:1009A00007480178072903D80178491C017070476E
:1009B00004480168491C01607047C046900320202C
:1009C00078022020740220200349002800D1103131
:1009D000012080040860704790320A402722D2012B
:1009E00080580840411E884170470000002A03D10A
:1009F0009522520181507047014A81507047C0468C
:100A0000901200000A49002800D11031012008602E
:100A10007047C04670B5064C01252560484E7D20C4
:100A20000002FFF70EFE761CF9D3256170BDC046AB
:100A300090120A40012040020249096801404842E0
:100A40004841704780130A400020B149085E704752
:100A5000A5480068AC49884200DC0846AB4988429A
:100A600000DB08467047C0460020A649085E704774
:100A70009C480068A449884200DC0846A349884293
:100A800000DB08467047C04610B584B0044601A894
:100A900000F054F9002803D10020C04304B010BD79
:100AA0000298201A04B010BD80B58C49002008704F
:100AB000934908708A490870904908708C490870F9
:100AC0008A4908608F49088087490860854908601D
:100AD000904908608E4908809349088002F096F991
:100AE00080BDC0467D4800787047C04680B501464D
:100AF000884A00201060824A1170002903D18A4977
:100B0000088002F08DF980BD824900220A600C49FC
:100B1000884200DC08467D21C900884200DB084687
:100B20007849088070490968401A7749884200DC92
:100B300008467649884200DB0846754908807047B8
:100B400018FCFFFFF0B587B00C46054604A800F07E
:100B5000F5F800285BD004A88178012000223B2909
:100B6000014600D81146059EAB1B652B034600D3FA
:100B700013461940594A117001295BD158490A7826
:100B8000002A49D05948006804A9CF785849097803
:100B90008F4201D186424CD00394321A1424642A25
:100BA000214600D81146864200D00C464D480168C7
:100BB0000091204648437D21CD00294602F0A8FA45
:100BC000002104AA515E484A126880180290081A4F
:100BD00001904543E100284602F09AFA0099401836
:100BE0004449884200DC084643498842039C00DBB4
:100BF00008463C490860032001994843C117890F02
:100C00004018801002994018374908600DE03348B9
:100C10000021017001200DE0324A002313600870AA
:100C200004A8C15E304A1160C77830480660304879
:100C300007700020314A1178491C1170C9B20A2985
:100C40004AD3002111702E4A127853425341034374
:100C50003BD123480078002837D02A48405E2249FB
:100C60000968421A2848824200DC02462646274884
:100C7000824200DB0246264802800A210B4653438B
:100C8000244804681B19244CA34200DC2346234C4F
:100C9000A34200DB23460360CD20504302F038FA24
:100CA0000546104801684B2048430921C94302F01A
:100CB0002FFAF100691809181948814200DC014631
:100CC0001848814203DB014601E0124801601648E2
:100CD000018008B202F0A4F807B0F0BDA000202007
:100CE000AA002020C0002020BC002020B40020202A
:100CF000B000202078ECFFFF88130000AC0020201B
:100D00009C002020B80020200080FFFFFF7F000013
:100D1000A4002020C4002020C0F2FCFF400D0300EE
:100D2000A8E4FFFF581B0000A80020201848C06955
:100D30007047C046164880697047C04610B5002805
:100D400017D0134A137AD907FCD151890180117B3E
:100D50008170517BC17011694160117D0172147AFB
:100D6000A342EFD101231C40ECD1481E814108462B
:100D700010BD002010BDC046054800210172418110
:100D800001734173016101758161C171C161704776
:100D90009C03202010B50024204601F0F3FA01F056
:100DA00061FD0448046384854485C48184800621F0
:100DB000017010BD6C012020F0B58BB00146002001
:100DC000002964D07F2293021F680F605D684D6028
:100DD0009A688A60DC680094CC601C6901940C619C
:100DE0005C6902944C619E698E61DC690394CC61FC
:100DF0001C6A04940C625C6A05944C629C6A0694BA
:100E00008C62DC6A0794CC621C6B08940C635C6B8C
:100E100009944C639C6B8C63DB6B0A93CB631D4919
:100E2000794001236B400B4307214C401C43631E58
:100E30009C4173427341234329D1174842401748CC
:100E40004243009B5A404243019B5A404243029B0B
:100E50005A40424372404243039B5A404243049BE0
:100E60005A404243059B5A404243069B5A404243E4
:100E7000079B5A404243089B5A404243099B5A40B1
:100E800042434A4042430A98811A484248410BB0C3
:100E9000F0BDC046314C4143A766714B9301000140
:100EA000F0B581B02D48FFF787FF2D4E30702D49EA
:100EB0000870E54F3C46143400252046294601F0D1
:100EC00027FA01F01BFD01F00DFF01F0A3FA01F07C
:100ED000BBFF00F017FC00F0CDFE284601F020F823
:100EE000DA480221017001203874D9480580307831
:100EF000002801D01948806800F0F8F901F0D0FD11
:100F00002846FFF761FDFFF785FD788CE6490880EC
:100F1000B88CE6490880A07CEF490870E07CEF4976
:100F20000870F87D10490870387E10490870B86A5A
:100F3000F96A0F4A10600F480160388EDC4908805A
:100F400001F0C8FEE649087001F0E2FEE5490870CC
:100F500001F0C4FEE449087001B0F0BD4C0320204C
:100F60008C03202044012020EE012020ED012020D0
:100F70006801202064012020F0B581B0FFF75AFD00
:100F8000074601F0E5FF054601F0A0FF064600F028
:100F900027FA0090A8480770A8480570A84806706E
:100FA000304601F07BFFA7490870A74CA0790028C4
:100FB00019D1A648057800F0A1FB854203D0A348CB
:100FC000007800F0C9FB00F099FB06280BD1A0487F
:100FD0000588FFF749FD80B2854204D000209C4976
:100FE000085E00F0A1FB0125002F19D020881D28E4
:100FF0002946009F04D8411C21801D3841424141AF
:10100000002911D0207900280ED101202071A0796B
:1010100000283ED000202081A07100F02FFC03E0CA
:10102000002020712080009F3846314600F038FCB7
:1010300000F060FB0646C01F01280CD80020A071FC
:10104000072E08D1207C002805D100F04BFB00F0D2
:1010500067FF01202074A0797E490870FFF7B4FC77
:10106000082E10D100F032FB0025092822D80124D7
:101070007844007940008744371D1D1D1D1D220442
:101080001F2102241BE0072E2ED0FFF72BFD054663
:101090002AE001F05DFF01F019FF074601F000FDB5
:1010A0000020207400F09CF93946009F00F07AFB84
:1010B000A071B9E7052402E0032400E00424664996
:1010C0003846FFF78DF988B28008644A4243500DD4
:1010D000844209D94B2292004243881A80B2962852
:1010E00001D3002500E001252846FFF78BFC00F026
:1010F00005FB5B49087000F0FDFA5A49087000F0E2
:10110000E5FA59490870384600F0D0FA57490860A6
:1011100000F0E8FA5649086000F0C4FA5549086042
:1011200000F0E4FA5449088000F0B8FA5349086026
:10113000FFF79AFC52490880FFF78AFC5149088062
:10114000FFF796FC50490880FFF77EFC4F49088066
:1011500001F056FE4E490880FFF7C4FC4D49087067
:101160003846FFF791FC4C490860FFF7E3FD4B4917
:101170000860FFF7DBFD4A49086000F00DF94949B6
:10118000086000F0ABFA4849088048480024048011
:1011900000F0A0FA4649088001F01CF945490860B2
:1011A00001F028F94449086001F020F9434D2880F6
:1011B00001F02CF9424E3080285F00F0CBF8414915
:1011C0000860305F00F0C6F83F49086001F00AF996
:1011D0003E4D288001F016F93D4C208001F0F6F8D4
:1011E0003C490870288801B2C9134840401A81B2AE
:1011F000C820C82900D30146374A117021880AB295
:10120000D2135140891A89B2C82900D30146334804
:10121000017001F081FD01F095FD01F05BFD3049A9
:10122000087001F075FD2F49087001F057FD2E4937
:10123000087001B0F0BDC046480320209A0320206A
:10124000950320209403202068002020D001202036
:10125000CE012020F8012020B80B00003B6D0000DB
:10126000DD012020DC012020CC012020C80120202D
:10127000D4012020C4012020DA012020B801202040
:10128000C0012020BE012020C2012020BC0120205E
:10129000D8012020EC012020E0012020E8012020BE
:1012A000E40120209802202098032020960320208B
:1012B0006001202048012020540120204C012020E2
:1012C00058012020500120205C012020F601202020
:1012D0009602202070022020F40120209402202079
:1012E0008D0220208E0220208F022020B0B50446DF
:1012F000074D28463C304021FFF76FF8601C6864BA
:101300002846103001F012F8002068602880B0BD37
:10131000C8002020F0B581B00546C1171C4A002442
:101320002346FEF749FF1B4A1268D30FD318DF1775
:101330005E107342BC41002D00D43C46002D00D409
:10134000334618184C41D3172146FEF74DFF01B024
:10135000F0BDC046F0B581B00546C1170C4A002467
:101360002346FEF729FF0B4A13680A225A43D31774
:1013700057107E429C41002D00D41C46002D00D405
:101380003E4630184C412146FEF72EFF01B0F0BD1D
:1013900040420F00000020200D4800687047C04602
:1013A00010B51949002008700F4908600849086005
:1013B0000849094A4A60FF221206084B1C689443F8
:1013C00003229207A2181A6088600720086010BDE7
:1013D0007402202010E000E0FF7C000020ED00E01F
:1013E000014800687047C04690032020EFF310804A
:1013F00072B605490878002802D00A78521E0A7091
:10140000411E884162B6704778022020EFF31081B8
:1014100072B618490968184A126806C062B6704761
:10142000EFF3108072B6134800210160124801608A
:1014300062B60120C105074A13680B4313604005DB
:1014400005490A6802430A600448022101600160FC
:101450007047C04648300A4048100A4000E100E0AA
:10146000EFF3108072B6034800210160024801606A
:1014700062B67047F001202090022020B0B50446EB
:101480000025284600F07EFF01F00AFBC4480563F2
:101490004470C581858008210170B0BD80B50028E9
:1014A0000BD0002909DD0279002A0ED14288632A77
:1014B00008D80A46032908D908E00020014601F0AF
:1014C00015F880BD0322032900D80A460A21405E90
:1014D0001C21C943884207DB032141438B0FC918F4
:1014E00089081D2803DC03E008311D2800DD1521D3
:1014F00052001632501A00B2891809B200F0F6FFF5
:1015000080BD80B5002805D000210170801C142109
:10151000FEF761FF80BD80B5002805D00021017075
:10152000801C1421FEF757FF80BD0000F0B581B08C
:10153000002800D1ACE004460078401C2070C0B206
:10154000052800D2A4E00026267000291AD01546EE
:10155000084601F0BEFC0F21C9430A460C320123A4
:1015600090421A4600DB3246042800DC3346667996
:10157000774277411F431743012F12D10122627135
:10158000820029E0002121716088434A904212D2F2
:101590002182E181411D61802189E18027280ED8C7
:1015A00012E0628983009B1A1BB2012B0EDBDB1C4D
:1015B0009B08D21810E02182E1812189E18008B2E4
:1015C00000283BDC002843D4618A43E0002B03D58C
:1015D0000326F31A9B08D21A628113B2002B02D49D
:1015E0009E1CB60803E00226F61AB6087642E6808C
:1015F000A689961B36B2112E02DB1026E68107E083
:101600008E4202DAE1810E4605E0E681002E02D428
:10161000B61CB60803E00227BE1BB6087642A281BC
:10162000268220810120207100206080002D01D1C0
:10163000022000E006204343472B01DD082109E09A
:101640004620C043834204DB580F1818C10801E04C
:10165000104908311220205E0AB2824206DD09B22A
:10166000401C00B2884207DB084605E005DA401E50
:1016700000B2904200DC1046608200B2002802D422
:10168000801C800803E00221081A80084042A082E2
:1016900001B0F0BDF0FF0000FBFF00007F48006BD1
:1016A0007047C0467D48406A7047C0467B4A916992
:1016B000002901D0084670471178002903D05169EC
:1016C000411A0846704700207047C046734840786A
:1016D0007047C04648207149085E70473A206F49FC
:1016E000085E70476D4880697047C0462A206B4984
:1016F000085E7047694800787047C0466748807840
:101700007047C04610B565480024048502218170E9
:1017100004803430FFF7F5FEFFF72EFBFFF7C4F926
:101720002046FFF7E3F910BD10B57D21CA008218ED
:1017300094B209018C4206D858490885897806294F
:1017400001D1FFF7E1F90348844201D3002010BD25
:10175000012010BDD1070000B0B5821E0021042A6F
:101760001CD84E4A1378082B18D8012425469D40D2
:10177000FF2382331D4211D09070C11E032901D274
:10178000002002E0062805D1108D00B2FFF7BCF959
:10179000204600E00020FFF7A9F921460846B0BD29
:1017A0006C012020F0B581B00C463C4EB778B91ED4
:1017B000052911D20025B585758575627061B56101
:1017C0007570F01C0D21FEF706FE3563F474B474D9
:1017D000022F03D0782002E0012026E05020308242
:1017E00030463430FFF797FEB778032F0DD1FFF75F
:1017F00079F9002816D001242046FFF777F97D20DB
:101800008000FFF781F9022512E0002C0CD0032F95
:1018100004D3FFF767F9002804D0B778062F0ED05D
:1018200028460DE0032000E0022070700024082507
:101830000020F081B0803570204601B0F0BD308DC1
:10184000FE243C40042C00D0054628B2FFF75CF98A
:10185000201F41424141BA1F504250410843FFF707
:1018600045F900F01DFE0125284600F08BFD00F033
:101870009FFDF06130622C46DAE7C04610B50024C7
:10188000204600F07FFD01F00BF9E84804638485F1
:101890004485C4818480047010BDC0466C01202042
:1018A000F0B587B00D460446E04E307808280BD8D6
:1018B00001218140FF228232114205D000212046C1
:1018C000FFF740F907B0F0BDB188491CB180811E17
:1018D000032931D2002520462946FFF733F9FFF7C7
:1018E00001F9002841D0B5813078042800D187E083
:1018F000032800D1A1E0022800D0B2E0FFF7A4F84D
:10190000C1134840401A80B2322800D9A8E0FFF73E
:10191000AFF8C1134840401A80B2C82800D99FE0F0
:10192000F089401CF08180B2782800D299E0C0484C
:10193000FFF7EAF8032791E0062826D10025204684
:101940002946FFF7FFF8B088782800D22AE101F095
:10195000A7F8B069002802D17069201AB061F5813A
:10196000B5800720307007B0F0BDB089401CB08151
:1019700080B2962875D3284600F004FD01F090F857
:10198000356304207070082768E000F011FDF169EC
:101990000390401AC1174840401AFFF7BBFC7D2155
:1019A000C900049101F0B4FB7062B07CB574F17CA5
:1019B000F0740A460240014329401143CDB230463B
:1019C00034300027059029463A46FFF7AFFD0295CF
:1019D000002D06975BD0F780B17803296CD3FFF711
:1019E00081F800285ED00020B081FFF731F8C113E4
:1019F0004840401A80B2924988425CD9052775E078
:101A0000FFF722F8C1134840401A80B2032732285A
:101A100024D8FFF72DF8C1134840401A80B2C828D7
:101A20001CD8F089401CF08180B280084B2818D364
:101A30007069201AB061072710E0FFF705F8C1139D
:101A40004840401A80B232280BD8FFF711F8C11372
:101A50004840401A80B2C92803D20427B5803770A5
:101A6000F5817069201A7349884200D29AE0307873
:101A7000072800D196E0284600F084FC01F010F819
:101A800035636D483080F581B58007B0F0BDF088D2
:101A90006A494A1C0627904228D2421CF28088429A
:101AA0009AD123E0B089042795281FD8411CB18121
:101AB00095289AD11AE0B1787069201A8A1ED3B29B
:101AC000022B04D852B292005FA39A5800E05D4AFC
:101AD0009042069F09D23078052814D0082800D1FA
:101AE000ECE6022911D0092010E00827002528463D
:101AF00000F048FC00F0D4FF35637770F581B580C5
:101B000008203070DAE602220BE00D20F28E632A04
:101B100001D8024600E003223823F35C002B00D0FA
:101B20000246B2852A25705F83B2934203D13763A0
:101B30003782394626E0022901D0782300E050237D
:101B4000904200DD3223318A994203D2481C308210
:101B5000316B17E037829042019301DBF94300E0DB
:101B6000012109187185FFF7F5FB0090705FFFF701
:101B7000F1FB0099401A04994843019901F0C8FA11
:101B8000014630632046FEF7DDFF715F0598FFF7E1
:101B900085FC00F0D5FC00F019FC002804D00720DB
:101BA000FFF76CFC07B0F0BD307805280FD1306A24
:101BB0000399081AC1174840401AFFF7ABFB049974
:101BC00001F0A6FAB178042923D0782122E0B07878
:101BD000042803D1706A1F4988420FDA029801F085
:101BE000FFF900281CD0B078022807D1F781B78010
:101BF000052030700398306207B0F0BD0398306262
:101C0000F781B780052030707069201AB06107B085
:101C1000F0BD64218842C5DBFFF7BCF807B0F0BD1A
:101C2000706A0D498842BDDB0920B9E76C012020AC
:101C30000CFEFFFF88130000080800005702000098
:101C40004C040000B8880000C0D4010088130000D4
:101C500010270000DC050000911A000004488121D3
:101C6000016001200002AC49086008647047C0466A
:101C70004C804240F0B58DB0A7480221016104219B
:101C8000016001204604A54806607D200402C720AB
:101C9000C5432F462046FEF7D4FC7F1CFAD39F4F46
:101CA0003E61012000F092FA3E602F463237204616
:101CB000FEF7C7FC7F1CFAD3984F3E61112000F05D
:101CC00085FA3E6050352046FEF7BBFC6D1CFAD30A
:101CD000924F3E61362000F079FA3E60A02000F07D
:101CE00075FA3E613A2000F071FA3E6005200990D5
:101CF00000F06CFA3E61B22000F068FA3E600C25FC
:101D0000284600F063FA284600F060FA00200A90A6
:101D100000F05CFA33250C95284600F057FA284667
:101D200000F054FA3E61B72000F050FA3E603520D2
:101D300000F04CFA3E61BB2000F048FA3E603220D1
:101D400000F044FA3E61C22000F040FA3E600120FB
:101D500000F03CFA3E61C32000F038FA3E601520E6
:101D60000B9000F033FA3E61C42000F02FFA3E6081
:101D7000202000F02BFA3E61C62000F027FA3E60DA
:101D80000F2000F023FA3E61D0252846089500F088
:101D90001DFA3E60A42000F019FAA12000F016FA06
:101DA0003E61E02000F012FA3E60284600F00EFA94
:101DB0000820079000F00AFA0E20069000F006FABC
:101DC0000927384600F002FA384600F0FFF9099872
:101DD00000F0FCF931252846029500F0F7F90C983F
:101DE00000F0F4F94820099000F0F0F91720059070
:101DF00000F0ECF91420049000F0E8F90B9800F0E2
:101E0000E5F9284600F0E2F93420039000F0DEF90D
:101E1000ED4D2E61E12000F0D9F92E60089800F018
:101E2000D5F9079800F0D2F9069800F0CFF93846B6
:101E300000F0CCF9384600F0C9F90B9F384600F0A5
:101E4000C5F9029D284600F0C1F90C9800F0BEF9D2
:101E5000099800F0BBF9059800F0B8F9049800F073
:101E6000B5F9384600F0B2F9284600F0AFF903980A
:101E700000F0ACF9D44D2E61212000F0A7F92E60BE
:101E80002E61292000F0A2F92E602046FEF7D9FB32
:101E90002046FEF7D6FB2046FEF7D3FB2046FEF792
:101EA000D0FB2046FEF7CDFB2046FEF7CAFB2046BE
:101EB000FEF7C7FB2046FEF7C4FB2046FEF7C1FB3A
:101EC0002046FEF7BEFB2046FEF7BBFB2046FEF792
:101ED000B8FB2046FEF7B5FB2046FEF7B2FB2046D6
:101EE000FEF7AFFB2046FEF7ACFB2046FEF7A9FB52
:101EF0002046FEF7A6FB2046FEF7A3FB2046FEF792
:101F0000A0FB0A980090FF221832EF23014600F050
:101F100001F90DB0F0BDC04690120A4090320A405F
:101F2000F0B58BB07049884200D3084608906F49DD
:101F300001F0CCF809AE30707D20C5000898294624
:101F400001F0C4F8CD2739464143C90A0A24614348
:101F5000411A717045430898401B81B28A08644B4E
:101F600053435A0CB270634A4A43D10C22464A4347
:101F7000801A3071C8B202977843C00A0194604356
:101F8000081AF0700024009408204821ED22A323B1
:101F900000F0C0F808995848814203D3574E0029F1
:101FA0000BD103E03F204601002906D1544E04E046
:101FB000039C641C052C00D18CE009A8005D0299EB
:101FC0004143C90A019A5143401AC0B24DA10F5C66
:101FD000039460004E490C5A20462130069020465A
:101FE0001C300590601D049020461B300890A01DF9
:101FF0000790012004E000F08DF86800212DD7D271
:1020000005463842F9D0681E3F28F6D87844007952
:10201000400087442B342A3D2A2A2A462A2A2A2A83
:102020002A2A2A4F2A2A2A2A2A2A2A2A2A2A2A2AEB
:102030002A2A2A572A2A2A2A2A2A2A2A2A2A2A2AD3
:102040002A2A2A2A2A2A2A2A2A2A2A2A2A2A2A2AF0
:102050002A2A2A1FB0B20090079880B208998AB243
:1020600075217A2300F056F8A2E7C6E7B0B20090D7
:10207000079880B208998AB254215923BBE7B0B2BD
:102080000090059880B206998AB25A217723B2E768
:10209000B0B20090059880B206998AB27821952353
:1020A000A9E7B0B20090079880B208998AB2962149
:1020B0009B23A0E7B0B20090049882B278219523C8
:1020C000204698E7B0B20090049882B25A21772354
:1020D000204690E7B0B20090632092216A229923B3
:1020E00000F018F80BB0F0BD9F860100102700002B
:1020F0007B140000CDCC0000214E000000F8FFFF53
:102100001084FFFF3F065B4F666D7D077F6F000009
:10211000C2320000F0B583B0904252D81646044651
:10212000D00822284DD80D4699424AD801204704AC
:1021300025490F6101972A20029300F047F82248B1
:10214000076027461437B8B2000A00F03FF8F8B22B
:1021500000F03CF837461437B8B2000A00F036F801
:10216000F8B200F033F8019F174807612B2000F008
:102170002DF815480760280A00F028F8E8B200F0AA
:1021800025F80095029D280A00F020F8E8B200F03A
:102190001DF80D4807612C2000F018F80A48076068
:1021A000301B401C0099691A4D1C454309D0089EFC
:1021B000340A204600F00AF8F0B200F007F86D1E6D
:1021C000F7D103B0F0BDC04690320A40F0B581B0FF
:1021D00004464E4E022737610820FEF732FA60B2FD
:1021E000002802D40420306101E00420306008257A
:1021F0002846FEF726FA37602846FEF722FA3761AE
:102200002846FEF71EFA600602D40420306101E081
:102210000420306008252846FEF713FA3760284668
:10222000FEF70FFA37612846FEF70BFAA00602D434
:102230000420306101E00420306008252846FEF7C4
:1022400000FA37602846FEF7FCF937612846FEF7AA
:10225000F8F9E00602D40420306101E00420306087
:1022600008252846FEF7EDF937602846FEF7E9F91C
:1022700037612846FEF7E5F9200702D404203061D3
:1022800001E00420306008252846FEF7DAF93760BF
:102290002846FEF7D6F937612846FEF7D2F96007DF
:1022A00002D40420306101E0042030600825284673
:1022B000FEF7C7F937602846FEF7C3F937612846AD
:1022C000FEF7BFF9A00702D40420306101E004202A
:1022D000306008252846FEF7B4F937602846FEF737
:1022E000B0F937612846FEF7ACF9E00702D10420C7
:1022F000306101E00420306008242046FEF7A1F997
:1023000037602046FEF79DF901B0F0BD90120A40FB
:1023100000280AD000220171C170827002808260A0
:10232000C2600261426182618283704770B584B08D
:10233000002813D004460421502008220092019066
:10234000029125460835002628463246334600F0DD
:102350004DFC26606660284600F061FC04B070BD4C
:10236000FEF7FCFAFFF77AFCFEF79AFDFFF718F884
:1023700000E030BFFFF73AF80028FAD0FEF7FCFD86
:10238000F8E7000010B56D4C207000280ED1002039
:102390006060A0602061607020462C3000F03FFC3F
:1023A0005034204600F03BFC00F07AFB10BDC046E4
:1023B00080B582B06846FFF729F80098019908189F
:1023C000C10F4018401002B080BD000028205B49BA
:1023D000085C704780B582B06846FFF717F8009830
:1023E00002B080BD10205549085E70470C2053494B
:1023F000085E704780B582B06846FFF707F801981D
:1024000002B080BD12204D49085E70470E204B4936
:10241000085E7047F0B589B0FFF702F82D210591ED
:102420004B20800104902824009401900291434E97
:1024300030462C300690122703220392002539469D
:102440002B4600F0D3FB009404980190059802906D
:102450003446503420463946039A2B4600F0C6FBDA
:10246000FEF7FEFF07A8FEF7D1FFB5703580756255
:1024700030461C300573089807997560B560F560A3
:1024800035617161B061F5613562069800F0C7FB96
:10249000204600F0C4FB00F003FB09B0F0BDC046CD
:1024A00010B582B0FEF7DCFF6846FEF7AFFFEA4CDE
:1024B0000020A0702080606221461C3108730199C1
:1024C000009A6060A060E06020616261A161E061EB
:1024D000206220462C3000F0A2FB5034204600F051
:1024E0009EFB00F0DDFA02B010BDC04670B50D468F
:1024F0000446D94E7078002807D130462C3000F0C1
:102500008EFB3046503000F08AFB0120707068204E
:10251000C043854200DC05466921692D00DB0D467C
:102520007581844203DD692C04DA348170BD044670
:10253000692CFADB0C46348170BDC046FC012020BA
:10254000F0B58DB0C44C2078002805D0A078401C90
:10255000A070C0B20A2801D20DB0F0BD0027A7704C
:102560000BA8FEF753FF60690B996161A2690C9B90
:10257000A361081A0A90A081981A0990E0810A20A4
:10258000215E6278E088002A039000D0084601911D
:102590000821655EA1880492002A059100D0294691
:1025A00000B20A043B460AD0228A13B2DB135A4017
:1025B000D21A92B2132A01D8002300E00123029517
:1025C0000EB200280AD0618A0AB2D2135140891A89
:1025D00089B2132901D8002700E001270A9909B21E
:1025E00008910122012E03DB0899002915460CD41D
:1025F000079201210022002E0D4600D41546089EA8
:10260000002E00DC11460D40079A069509990EB27E
:10261000012801DB002E09D40121002500280A46EB
:1026200000D42A46002E00DC29460A4007960A9864
:1026300080B2414241411940884D012904D1A68B05
:10264000AE4203D20A3600E00026A683099880B283
:10265000414241413940012905D1E08BA842069908
:1026600004D20A3001E000200699E0830B40012BE0
:1026700004D1218CA94203D20A3100E00021218437
:102680001740012F04D1628CAA4203D20A3200E023
:1026900000226284089BDB130A9D5D40EB1A9BB20B
:1026A0001F2B05D3A38C6D4DAB4203D20A3300E040
:1026B0000023A384079DED13099F6F407D1BADB2DE
:1026C0001F2D05D3E58C654FBD4203D20A3500E0CE
:1026D0000025E584B6B27609182E01D9012018E04C
:1026E0005F4E80B2B04201D9022012E088B2632866
:1026F00001D903200DE090B2632801D9042008E03D
:1027000098B2312801D9052003E0A8B2322813D3AA
:1027100006202821605400206060A0602061208095
:1027200020462C3000F07BFA5034204600F077FA37
:1027300000F0B6F90DB0F0BD2820205C0028EAD1E9
:102740000498002803D0039D029E019B47E00025CA
:102750000598002803990FD001B220462C300A9A20
:102760001204921300F063FA0421625E012A06DB70
:1027700091B2490816310DE02A462E460CE0002A97
:1027800001D4002106E0514289B24908334B591A5D
:102790000C3909B20E18E18800290FD00E20205EF6
:1027A00082002046503009B200F041FA0621655EF1
:1027B000012D06DBA9B2490816310DE005922B4622
:1027C0000DE0002D01D4002106E0694289B24908DC
:1027D000224A511A0C3909B20B18A088059060786A
:1027E000002801D0218905916821CA43934200DC69
:1027F0001346059A1204692B00DB6923002A11D0C5
:10280000C9438E4200DC0E46692E00DB692610218A
:10281000615ECA1EB24200DC3246C91CB14202DB14
:10282000114600E000212182002800D0658928049B
:102830000AD01220225ED01E984200DC1846D21C1C
:102840009A4202DB024600E00022628208B211B224
:1028500000F04CF90DB0F0BDFC012020F6FF0000A7
:102860001F030000F0B581B001246603DB4D28464C
:1028700031462246FEF7BAF8210328462246FEF7E3
:10288000B5F8A10228462246FEF7B0F8E102284634
:102890002246FEF7ABF8D24D402128462246FEF7ED
:1028A000A5F8610228462246FEF7A0F828463146E0
:1028B0002246FEF79BF8082128462246FEF796F8A6
:1028C000C84F0026384631463246FDF761FF0222E6
:1028D00038463146FDF75CFF032238463146FDF7A6
:1028E00057FFC14831463246FDF752FF8021284646
:1028F0002246FEF77BF801B0F0BDC046F0B58BB0C4
:102900000AAF0024BC700820059038800120079091
:1029100000020990192080010190089056488421F6
:102920008162832181638521049101605348544968
:1029300041605449016010200390FDF782FEA94ECA
:1029400030463946FDF72CFF08A93046FDF77EFEDC
:10295000009430463746214622462346FDF70CFFB9
:102960000225009506953046214622462346FDF76E
:1029700003FF032600963846214622462346FDF7EC
:10298000FBFE384621462246FDF7E8FE3846214642
:102990002A46FDF7E3FE3846214632460296FDF709
:1029A000DDFE3846019D29462246FDF7F1FE3846F8
:1029B0002946069AFDF7ECFE384629463246FDF7D1
:1029C000E7FE3148079A82600D2101602F480168B7
:1029D000114301600AAFBC70059838802C480499F7
:1029E0000160099408952B482549416025490160FB
:1029F0000398FDF726FE7C4E30463946FDF7D0FEA3
:102A000008A93046FDF722FE0094304621462246B2
:102A10002346FDF7B1FE304621462246FDF79EFED5
:102A20003046374629462246FDF7B2FE1A48079A35
:102A30008260026019480168114301602A480270EF
:102A4000684E304629462246FDF7A2FE304629460A
:102A5000069AFDF79DFE30462946029AFDF798FE3C
:102A6000384629462246FDF793FEDE48802122465D
:102A7000FDF7BCFF0BB0F0BD3C8042400008864033
:102A8000030000B1010000260011864004188640B2
:102A9000E480424000888640009186400498864049
:102AA00070B511480078012817D1192084014D4EC6
:102AB0000025304621462A46FDF76AFE02223046AE
:102AC0002146FDF765FE032230462146FDF760FEF4
:102AD000454821462A46FDF75BFEC2488021002278
:102AE000FDF784FF70BDC04671022020F0B583B0B1
:102AF0000C4601260021019102900028354600DA9B
:102B0000019D7103354800912A46FDF76FFF31039F
:102B1000029880B2C70B31483A46FDF767FFB10211
:102B20002E483A46FDF762FFF1022C482A46FDF78F
:102B30005DFF002C374600DA019FAA4840213A4643
:102B4000FDF754FF7102A0B2C50BA64E30462A46CF
:102B5000FDF74CFF304600992A46FDF747FF082154
:102B600030463A46FDF742FF20B2C01321464140AD
:102B7000081A80B2C825C82800D32846C0001921E9
:102B80008E01371A17483946019AFDF701FE02995E
:102B900008B2C0134140081A80B2C82800D32846A2
:102BA000C000351A02220F4E30462946FDF7F0FDCF
:102BB000032230463946FDF7EBFD0B482946019AC2
:102BC000FDF7E6FD02980443601E8441802185489C
:102BD0002246FDF70BFF03B0F0BDC04600000A40DF
:102BE00000200A400000864000808640F0B581B099
:102BF000002812D00093089B079E069D20270024E2
:102C0000C455066143618461C46106C000990160D6
:102C10000838012D00D80125C56001B0F0BD00289D
:102C200004D02021002242548261C2617047F0B575
:102C300085B000280AD004468F1A2020215C204647
:102C40002030002904D0E169791A02E000253AE039
:102C50000021E7610122027023687B43A5684D4390
:102C6000A0690290C21926697042904200DC1046A9
:102C700004930395E918B24200DC064662683046C8
:102C8000019250430818E168009100F041FA65692B
:102C90006942012F01DBA84203DC002F16D58842D0
:102CA00014DA0C46029901984143049808180399D4
:102CB0004018009900F02CFA2146814200DC0146C0
:102CC000A84200DC0D46284605B0F0BDA661814251
:102CD000F5DDF5E7424800787047C0464748007880
:102CE0007047C046B0B54148002404603E480460C7
:102CF0003B4804703F4804703F4D2C703F480470BF
:102D000001200104B5482246FDF770FE2C70B0BDCD
:102D1000394800787047C04610B534480024046034
:102D2000314804602E4804703248047033480470FF
:102D300001200104A9482246FDF758FE2E480470E0
:102D400010BDC046F0B581B0254C2778012631046E
:102D5000A248002F11D0009123490A68234B1D6817
:102D60006D1E95420BD200261E600E602670214813
:102D7000067022480670994808E0002607E01C4BC0
:102D80009A420BD31D490E700026267000993246D8
:102D9000FDF72CFE1848067001B0F0BD501C08600D
:102DA0000A21384600F092F9124C21780025814220
:102DB00001D3294600E001218848632F00D80E4640
:102DC00000993246FDF712FE0B4806702078401C31
:102DD000C1B2092900D80546257001B0F0BDC04632
:102DE0008402202000200A407C0220208002202033
:102DF00030750000880220208A0220208C022020CA
:102E000000201049085E704770477047B0B50D4C00
:102E100000252580FFF7F8FF605FFFF7F6FFB0BDE4
:102E200080B50649884200DC08460549884200DB37
:102E3000084604490880FFF7E8FF80BDA8E4FFFFCB
:102E4000581B000046012020F0B583B0114E3046DB
:102E50003830FFF76BFA08217D2738010A220092EB
:102E6000019002913046643000240C2522462B4606
:102E7000FFF7BCFE0320029007480190F800009085
:102E800030468830062122462B46FFF7AFFE3470CD
:102E900003B0F0BD9C022020400D03000121014041
:102EA0008207D20F89184207D20F89180207D20F62
:102EB0008918C206D20F89188206D20F89184206D5
:102EC000D20F8918C0090818C0B27047FF214840C6
:102ED0007047F0B581B00221014001220240544206
:102EE00007232340002900D05B1D0424044000D0A8
:102EF000DB1C08250540ED0800955B1910260640EF
:102F0000F506ED175B192027074000D0DB1E402592
:102F1000054000D0FB3349085118A2088918009ACF
:102F20008918320989187A098918AA09891840B2BA
:102F3000002804D4080604D1002001B0F0BDDB1F36
:102F4000491C58B249B200F0E3F840B201B0F0BDFC
:102F5000F0B581B00125A9061F4E3046FDF73EFDB4
:102F60000446E9063046FDF739FD002800D0A41CD0
:102F70002E0619483146FDF731FD002800D0241DEA
:102F80006F0615483946FDF729FD002800D00834A2
:102F900012483146FDF722FD002801D010200443DD
:102FA0000E4E30463946FDF719FD002801D020208D
:102FB0000443A9050848FDF711FD002801D0402071
:102FC000044329053046FDF709FD002801D0802083
:102FD0000443E0B201B0F0BD00000A4000200A4006
:102FE000F0B581B00446FFF759FF04280CD30F2138
:102FF0002140481E814118202040421E9041084037
:103000000F2C08D8002207E02D48416AC07800281C
:1030100036D0002206E001220240294B596AD878B6
:10302000002827D0AF204301012000249942064602
:1030300000DB2646224B9D88224FBD42054600D329
:1030400025463543204EB142014600DC21460D4362
:103050000CD1002A0AD05989062903D24A1C5A8168
:10306000052929D10021D97001B0F0BD0020588177
:1030700001B0F0BD002A03D00020188101B0F0BDDE
:103080000F4A1389272B08D8581C10817D208400F3
:103090000020A14206DB014605E07D208000814240
:1030A00008DA09E00121273B5C1EA3410B4301D054
:1030B00001B0F0BD0120D070002001B0F0BDC046CD
:1030C0006C012020B0360000901A000043088B42AB
:1030D0001AD3002203098B4279D3030A8B425ED3B1
:1030E000030B8B4242D3030C8B4227D30902FF22EE
:1030F00012BA030C8B4202D31212090203D0030B43
:103100008B4233D31AE0D3E0411A8041401C704710
:1031100003460B4371D443088B42F5D300220309C5
:103120008B4254D3030A8B4239D3030B8B421DD3FA
:10313000030C8B4202D394466EE0090AC30B8B4208
:1031400001D3CB03C01A5241830B8B4201D38B03B3
:10315000C01A5241430B8B4201D34B03C01A524158
:10316000030B8B4201D30B03C01A5241C30A8B429B
:1031700001D3CB02C01A5241830A8B4201D38B0286
:10318000C01A5241430A8B4201D34B02C01A52412A
:10319000030A8B4201D30B02C01A5241CDD2C3099C
:1031A0008B4201D3CB01C01A524183098B4201D318
:1031B0008B01C01A524143098B4201D34B01C01A03
:1031C000524103098B4201D30B01C01A5241C3087B
:1031D0008B4201D3CB00C01A524183088B4201D3EA
:1031E0008B00C01A524143088B4201D34B00C01AD6
:1031F0005241411A524110007047CA0F00D0494253
:10320000031000D34042534000229C4603098B42E6
:103210002DD3030A8B4212D38901FC2212BA030A6E
:103220008B420CD3890192118B4208D389019211F0
:103230008B4204D3890137D0921100E08909C30978
:103240008B4201D3CB01C01A524183098B4201D377
:103250008B01C01A524143098B4201D34B01C01A62
:10326000524103098B4201D30B01C01A5241C308DA
:103270008B4201D3CB00C01A524183088B4201D349
:103280008B00C01A5241D9D243088B4201D34B0064
:10329000C01A5241411A00D20146524110466346BB
:1032A0005B1000D34042704763465B1000D340423E
:1032B00001B50021004201D0C9430846C046C046BE
:1032C00002BD12003C0070009A00C4000000000023
:1032D000F032000000002020080000002001000063
:1032E000F832000008002020B80400004801000067
:0832F000C10D00000000000008
:04000005000000C136
:00000001FF
